{
	"src/ScholarshipFactory.sol": {
		"ScholarshipFactory": {
			"abi": [
				{
					"inputs": [
						{
							"internalType": "address",
							"name": "_dispenserImplementation",
							"type": "address"
						},
						{
							"internalType": "address",
							"name": "_admin",
							"type": "address"
						},
						{
							"internalType": "address",
							"name": "_director",
							"type": "address"
						}
					],
					"stateMutability": "nonpayable",
					"type": "constructor"
				},
				{
					"inputs": [],
					"name": "FailedDeployment",
					"type": "error"
				},
				{
					"inputs": [
						{
							"internalType": "uint256",
							"name": "balance",
							"type": "uint256"
						},
						{
							"internalType": "uint256",
							"name": "needed",
							"type": "uint256"
						}
					],
					"name": "InsufficientBalance",
					"type": "error"
				},
				{
					"inputs": [],
					"name": "InvalidAdminAddress",
					"type": "error"
				},
				{
					"inputs": [],
					"name": "InvalidDirectorAddress",
					"type": "error"
				},
				{
					"inputs": [],
					"name": "InvalidImplementationAddress",
					"type": "error"
				},
				{
					"inputs": [],
					"name": "InvalidMerkleRoot",
					"type": "error"
				},
				{
					"inputs": [],
					"name": "InvalidPriceFeedAddress",
					"type": "error"
				},
				{
					"inputs": [],
					"name": "OnlyDirectorCanCreateDispenser",
					"type": "error"
				},
				{
					"inputs": [
						{
							"internalType": "address",
							"name": "owner",
							"type": "address"
						}
					],
					"name": "OwnableInvalidOwner",
					"type": "error"
				},
				{
					"inputs": [
						{
							"internalType": "address",
							"name": "account",
							"type": "address"
						}
					],
					"name": "OwnableUnauthorizedAccount",
					"type": "error"
				},
				{
					"inputs": [],
					"name": "StipendAmountMustBeGreaterThanZero",
					"type": "error"
				},
				{
					"anonymous": false,
					"inputs": [
						{
							"indexed": true,
							"internalType": "address",
							"name": "dispenserAddress",
							"type": "address"
						},
						{
							"indexed": false,
							"internalType": "uint256",
							"name": "usdStipendAmount",
							"type": "uint256"
						}
					],
					"name": "DispenserCreated",
					"type": "event"
				},
				{
					"anonymous": false,
					"inputs": [
						{
							"indexed": true,
							"internalType": "address",
							"name": "previousOwner",
							"type": "address"
						},
						{
							"indexed": true,
							"internalType": "address",
							"name": "newOwner",
							"type": "address"
						}
					],
					"name": "OwnershipTransferred",
					"type": "event"
				},
				{
					"inputs": [
						{
							"internalType": "bytes32",
							"name": "_merkleRoot",
							"type": "bytes32"
						},
						{
							"internalType": "uint256",
							"name": "_usdStipendAmount",
							"type": "uint256"
						},
						{
							"internalType": "address",
							"name": "_priceFeed",
							"type": "address"
						}
					],
					"name": "createDispenser",
					"outputs": [
						{
							"internalType": "address",
							"name": "",
							"type": "address"
						}
					],
					"stateMutability": "nonpayable",
					"type": "function"
				},
				{
					"inputs": [],
					"name": "director",
					"outputs": [
						{
							"internalType": "address",
							"name": "",
							"type": "address"
						}
					],
					"stateMutability": "view",
					"type": "function"
				},
				{
					"inputs": [],
					"name": "dispenserImplementation",
					"outputs": [
						{
							"internalType": "address",
							"name": "",
							"type": "address"
						}
					],
					"stateMutability": "view",
					"type": "function"
				},
				{
					"inputs": [
						{
							"internalType": "uint256",
							"name": "",
							"type": "uint256"
						}
					],
					"name": "dispensers",
					"outputs": [
						{
							"internalType": "address",
							"name": "",
							"type": "address"
						}
					],
					"stateMutability": "view",
					"type": "function"
				},
				{
					"inputs": [],
					"name": "owner",
					"outputs": [
						{
							"internalType": "address",
							"name": "",
							"type": "address"
						}
					],
					"stateMutability": "view",
					"type": "function"
				},
				{
					"inputs": [],
					"name": "renounceOwnership",
					"outputs": [],
					"stateMutability": "nonpayable",
					"type": "function"
				},
				{
					"inputs": [
						{
							"internalType": "address",
							"name": "newOwner",
							"type": "address"
						}
					],
					"name": "transferOwnership",
					"outputs": [],
					"stateMutability": "nonpayable",
					"type": "function"
				},
				{
					"inputs": [
						{
							"internalType": "address",
							"name": "newDirector",
							"type": "address"
						}
					],
					"name": "updateDirector",
					"outputs": [],
					"stateMutability": "nonpayable",
					"type": "function"
				}
			],
			"devdoc": {
				"errors": {
					"FailedDeployment()": [
						{
							"details": "The deployment failed."
						}
					],
					"InsufficientBalance(uint256,uint256)": [
						{
							"details": "The ETH balance of the account is not enough to perform the operation."
						}
					],
					"OwnableInvalidOwner(address)": [
						{
							"details": "The owner is not a valid owner account. (eg. `address(0)`)"
						}
					],
					"OwnableUnauthorizedAccount(address)": [
						{
							"details": "The caller account is not authorized to perform an operation."
						}
					]
				},
				"kind": "dev",
				"methods": {
					"createDispenser(bytes32,uint256,address)": {
						"details": "The Merkle root is used to verify if a student is eligible for the stipendThe Merkle root must be a valid bytes32 valueThe stipend amount must be greater than zeroThe price feed is used to convert the stipend amount from USD to ETHEmits a DispenserCreated event upon successful creation of the dispenser",
						"params": {
							"_merkleRoot": "The Merkle root for stipend eligibility verification",
							"_priceFeed": "The address of the Chainlink price feed contract for USD to ETH conversion",
							"_usdStipendAmount": "The stipend amount in USD cents (e.g., 1000 for $10.00)"
						},
						"returns": {
							"_0": "The address of the newly created Payroll clone"
						}
					},
					"owner()": {
						"details": "Returns the address of the current owner."
					},
					"renounceOwnership()": {
						"details": "Leaves the contract without owner. It will not be possible to call `onlyOwner` functions. Can only be called by the current owner. NOTE: Renouncing ownership will leave the contract without an owner, thereby disabling any functionality that is only available to the owner."
					},
					"transferOwnership(address)": {
						"details": "Transfers ownership of the contract to a new account (`newOwner`). Can only be called by the current owner."
					},
					"updateDirector(address)": {
						"params": {
							"newDirector": "The new director address to be set"
						}
					}
				},
				"version": 1
			},
			"evm": {
				"assembly": "    /* \"src/ScholarshipFactory.sol\":263:3289  contract ScholarshipFactory is Ownable {... */\n  mstore(0x40, 0xa0)\n    /* \"src/ScholarshipFactory.sol\":839:1317  constructor(... */\n  callvalue\n  dup1\n  iszero\n  tag_1\n  jumpi\n  revert(0x00, 0x00)\ntag_1:\n  pop\n  mload(0x40)\n  sub(codesize, bytecodeSize)\n  dup1\n  bytecodeSize\n  dup4\n  codecopy\n  dup2\n  add\n  0x40\n  dup2\n  swap1\n  mstore\n  tag_2\n  swap2\n  tag_3\n  jump\t// in\ntag_2:\n    /* \"src/ScholarshipFactory.sol\":958:964  _admin */\n  dup2\n  sub(shl(0xa0, 0x01), 0x01)\n    /* \"lib/openzeppelin-contracts-upgradeable/lib/openzeppelin-contracts/contracts/access/Ownable.sol\":1273:1299  initialOwner == address(0) */\n  dup2\n  and\n    /* \"lib/openzeppelin-contracts-upgradeable/lib/openzeppelin-contracts/contracts/access/Ownable.sol\":1269:1364  if (initialOwner == address(0)) {... */\n  tag_7\n  jumpi\n    /* \"lib/openzeppelin-contracts-upgradeable/lib/openzeppelin-contracts/contracts/access/Ownable.sol\":1322:1353  OwnableInvalidOwner(address(0)) */\n  mload(0x40)\n  shl(0xe0, 0x1e4fbdf7)\n  dup2\n  mstore\n    /* \"lib/openzeppelin-contracts-upgradeable/lib/openzeppelin-contracts/contracts/access/Ownable.sol\":1350:1351  0 */\n  0x00\n    /* \"lib/openzeppelin-contracts-upgradeable/lib/openzeppelin-contracts/contracts/access/Ownable.sol\":1322:1353  OwnableInvalidOwner(address(0)) */\n  0x04\n  dup3\n  add\n    /* \"#utility.yul\":725:776   */\n  mstore\n    /* \"#utility.yul\":698:716   */\n  0x24\n  add\n    /* \"lib/openzeppelin-contracts-upgradeable/lib/openzeppelin-contracts/contracts/access/Ownable.sol\":1322:1353  OwnableInvalidOwner(address(0)) */\n  mload(0x40)\n  dup1\n  swap2\n  sub\n  swap1\n  revert\n    /* \"lib/openzeppelin-contracts-upgradeable/lib/openzeppelin-contracts/contracts/access/Ownable.sol\":1269:1364  if (initialOwner == address(0)) {... */\ntag_7:\n    /* \"lib/openzeppelin-contracts-upgradeable/lib/openzeppelin-contracts/contracts/access/Ownable.sol\":1373:1405  _transferOwnership(initialOwner) */\n  tag_10\n    /* \"lib/openzeppelin-contracts-upgradeable/lib/openzeppelin-contracts/contracts/access/Ownable.sol\":1392:1404  initialOwner */\n  dup2\n    /* \"lib/openzeppelin-contracts-upgradeable/lib/openzeppelin-contracts/contracts/access/Ownable.sol\":1373:1391  _transferOwnership */\n  tag_11\n    /* \"lib/openzeppelin-contracts-upgradeable/lib/openzeppelin-contracts/contracts/access/Ownable.sol\":1373:1405  _transferOwnership(initialOwner) */\n  jump\t// in\ntag_10:\n  pop\n  sub(shl(0xa0, 0x01), 0x01)\n    /* \"src/ScholarshipFactory.sol\":997:1035  _dispenserImplementation != address(0) */\n  dup4\n  and\n    /* \"src/ScholarshipFactory.sol\":976:1089  require(... */\n  tag_13\n  jumpi\n  mload(0x40)\n  shl(0xe2, 0x325c055b)\n  dup2\n  mstore\n  0x04\n  add\n  mload(0x40)\n  dup1\n  swap2\n  sub\n  swap1\n  revert\ntag_13:\n  sub(shl(0xa0, 0x01), 0x01)\n    /* \"src/ScholarshipFactory.sol\":1107:1127  _admin != address(0) */\n  dup3\n  and\n    /* \"src/ScholarshipFactory.sol\":1099:1151  require(_admin != address(0), InvalidAdminAddress()) */\n  tag_14\n  jumpi\n  mload(0x40)\n  shl(0xe2, 0x016ed19f)\n  dup2\n  mstore\n  0x04\n  add\n  mload(0x40)\n  dup1\n  swap2\n  sub\n  swap1\n  revert\ntag_14:\n  sub(shl(0xa0, 0x01), 0x01)\n    /* \"src/ScholarshipFactory.sol\":1169:1192  _director != address(0) */\n  dup2\n  and\n    /* \"src/ScholarshipFactory.sol\":1161:1219  require(_director != address(0), InvalidDirectorAddress()) */\n  tag_15\n  jumpi\n  mload(0x40)\n  shl(0xe3, 0x074f166b)\n  dup2\n  mstore\n  0x04\n  add\n  mload(0x40)\n  dup1\n  swap2\n  sub\n  swap1\n  revert\ntag_15:\n  sub(shl(0xa0, 0x01), 0x01)\n    /* \"src/ScholarshipFactory.sol\":1230:1280  dispenserImplementation = _dispenserImplementation */\n  swap3\n  dup4\n  and\n  0x80\n  mstore\n    /* \"src/ScholarshipFactory.sol\":1290:1298  director */\n  0x02\n    /* \"src/ScholarshipFactory.sol\":1290:1310  director = _director */\n  dup1\n  sload\n  not(sub(shl(0xa0, 0x01), 0x01))\n  and\n  swap2\n  swap1\n  swap4\n  and\n  or\n  swap1\n  swap2\n  sstore\n  pop\n    /* \"src/ScholarshipFactory.sol\":263:3289  contract ScholarshipFactory is Ownable {... */\n  jump(tag_19)\n    /* \"lib/openzeppelin-contracts-upgradeable/lib/openzeppelin-contracts/contracts/access/Ownable.sol\":2912:3099  function _transferOwnership(address newOwner) internal virtual {... */\ntag_11:\n    /* \"lib/openzeppelin-contracts-upgradeable/lib/openzeppelin-contracts/contracts/access/Ownable.sol\":2985:3001  address oldOwner */\n  0x00\n    /* \"lib/openzeppelin-contracts-upgradeable/lib/openzeppelin-contracts/contracts/access/Ownable.sol\":3004:3010  _owner */\n  dup1\n  sload\n  sub(shl(0xa0, 0x01), 0x01)\n    /* \"lib/openzeppelin-contracts-upgradeable/lib/openzeppelin-contracts/contracts/access/Ownable.sol\":3020:3037  _owner = newOwner */\n  dup4\n  dup2\n  and\n  not(sub(shl(0xa0, 0x01), 0x01))\n  dup4\n  and\n  dup2\n  or\n  dup5\n  sstore\n    /* \"lib/openzeppelin-contracts-upgradeable/lib/openzeppelin-contracts/contracts/access/Ownable.sol\":3052:3092  OwnershipTransferred(oldOwner, newOwner) */\n  mload(0x40)\n    /* \"lib/openzeppelin-contracts-upgradeable/lib/openzeppelin-contracts/contracts/access/Ownable.sol\":3004:3010  _owner */\n  swap2\n  swap1\n  swap3\n  and\n  swap3\n  dup4\n  swap2\n    /* \"lib/openzeppelin-contracts-upgradeable/lib/openzeppelin-contracts/contracts/access/Ownable.sol\":3052:3092  OwnershipTransferred(oldOwner, newOwner) */\n  0x8be0079c531659141344cd1fd0a4f28419497f9722a3daafe3b4186f6b6457e0\n  swap2\n    /* \"lib/openzeppelin-contracts-upgradeable/lib/openzeppelin-contracts/contracts/access/Ownable.sol\":2985:3001  address oldOwner */\n  swap1\n    /* \"lib/openzeppelin-contracts-upgradeable/lib/openzeppelin-contracts/contracts/access/Ownable.sol\":3052:3092  OwnershipTransferred(oldOwner, newOwner) */\n  log3\n    /* \"lib/openzeppelin-contracts-upgradeable/lib/openzeppelin-contracts/contracts/access/Ownable.sol\":2975:3099  {... */\n  pop\n    /* \"lib/openzeppelin-contracts-upgradeable/lib/openzeppelin-contracts/contracts/access/Ownable.sol\":2912:3099  function _transferOwnership(address newOwner) internal virtual {... */\n  pop\n  jump\t// out\n    /* \"#utility.yul\":14:191   */\ntag_18:\n    /* \"#utility.yul\":93:106   */\n  dup1\n  mload\n  sub(shl(0xa0, 0x01), 0x01)\n    /* \"#utility.yul\":135:166   */\n  dup2\n  and\n    /* \"#utility.yul\":125:167   */\n  dup2\n  eq\n    /* \"#utility.yul\":115:185   */\n  tag_21\n  jumpi\n    /* \"#utility.yul\":181:182   */\n  0x00\n    /* \"#utility.yul\":178:179   */\n  0x00\n    /* \"#utility.yul\":171:183   */\n  revert\n    /* \"#utility.yul\":115:185   */\ntag_21:\n    /* \"#utility.yul\":14:191   */\n  swap2\n  swap1\n  pop\n  jump\t// out\n    /* \"#utility.yul\":196:574   */\ntag_3:\n    /* \"#utility.yul\":284:290   */\n  0x00\n    /* \"#utility.yul\":292:298   */\n  0x00\n    /* \"#utility.yul\":300:306   */\n  0x00\n    /* \"#utility.yul\":353:355   */\n  0x60\n    /* \"#utility.yul\":341:350   */\n  dup5\n    /* \"#utility.yul\":332:339   */\n  dup7\n    /* \"#utility.yul\":328:351   */\n  sub\n    /* \"#utility.yul\":324:356   */\n  slt\n    /* \"#utility.yul\":321:373   */\n  iszero\n  tag_23\n  jumpi\n    /* \"#utility.yul\":369:370   */\n  0x00\n    /* \"#utility.yul\":366:367   */\n  0x00\n    /* \"#utility.yul\":359:371   */\n  revert\n    /* \"#utility.yul\":321:373   */\ntag_23:\n    /* \"#utility.yul\":392:432   */\n  tag_24\n    /* \"#utility.yul\":422:431   */\n  dup5\n    /* \"#utility.yul\":392:432   */\n  tag_18\n  jump\t// in\ntag_24:\n    /* \"#utility.yul\":382:432   */\n  swap3\n  pop\n    /* \"#utility.yul\":451:500   */\n  tag_25\n    /* \"#utility.yul\":496:498   */\n  0x20\n    /* \"#utility.yul\":485:494   */\n  dup6\n    /* \"#utility.yul\":481:499   */\n  add\n    /* \"#utility.yul\":451:500   */\n  tag_18\n  jump\t// in\ntag_25:\n    /* \"#utility.yul\":441:500   */\n  swap2\n  pop\n    /* \"#utility.yul\":519:568   */\n  tag_26\n    /* \"#utility.yul\":564:566   */\n  0x40\n    /* \"#utility.yul\":553:562   */\n  dup6\n    /* \"#utility.yul\":549:567   */\n  add\n    /* \"#utility.yul\":519:568   */\n  tag_18\n  jump\t// in\ntag_26:\n    /* \"#utility.yul\":509:568   */\n  swap1\n  pop\n    /* \"#utility.yul\":196:574   */\n  swap3\n  pop\n  swap3\n  pop\n  swap3\n  jump\t// out\n    /* \"#utility.yul\":579:782   */\ntag_19:\n    /* \"src/ScholarshipFactory.sol\":263:3289  contract ScholarshipFactory is Ownable {... */\n  mload(0x80)\n  codecopy(0x00, dataOffset(sub_0), dataSize(sub_0))\n  0x00\n  assignImmutable(\"0x721a20cb1ebf635e5867c4ff9034ea3a03bc8e6afbc4dd2dd16591fa45f58157\")\n  return(0x00, dataSize(sub_0))\nstop\n\nsub_0: assembly {\n        /* \"src/ScholarshipFactory.sol\":263:3289  contract ScholarshipFactory is Ownable {... */\n      mstore(0x40, 0x80)\n      callvalue\n      dup1\n      iszero\n      tag_1\n      jumpi\n      revert(0x00, 0x00)\n    tag_1:\n      pop\n      jumpi(tag_2, lt(calldatasize, 0x04))\n      shr(0xe0, calldataload(0x00))\n      dup1\n      0x8da5cb5b\n      gt\n      tag_11\n      jumpi\n      dup1\n      0x8da5cb5b\n      eq\n      tag_7\n      jumpi\n      dup1\n      0x9c8d69c5\n      eq\n      tag_8\n      jumpi\n      dup1\n      0xd86f77fc\n      eq\n      tag_9\n      jumpi\n      dup1\n      0xf2fde38b\n      eq\n      tag_10\n      jumpi\n      revert(0x00, 0x00)\n    tag_11:\n      dup1\n      0x1de933c7\n      eq\n      tag_3\n      jumpi\n      dup1\n      0x335b7fa2\n      eq\n      tag_4\n      jumpi\n      dup1\n      0x5af82abf\n      eq\n      tag_5\n      jumpi\n      dup1\n      0x715018a6\n      eq\n      tag_6\n      jumpi\n    tag_2:\n      revert(0x00, 0x00)\n        /* \"src/ScholarshipFactory.sol\":3114:3287  function updateDirector(address newDirector) external onlyOwner {... */\n    tag_3:\n      tag_12\n      tag_13\n      calldatasize\n      0x04\n      tag_14\n      jump\t// in\n    tag_13:\n      tag_15\n      jump\t// in\n    tag_12:\n      stop\n        /* \"src/ScholarshipFactory.sol\":393:420  address[] public dispensers */\n    tag_4:\n      tag_16\n      tag_17\n      calldatasize\n      0x04\n      tag_18\n      jump\t// in\n    tag_17:\n      tag_19\n      jump\t// in\n    tag_16:\n      mload(0x40)\n      sub(shl(0xa0, 0x01), 0x01)\n        /* \"#utility.yul\":778:810   */\n      swap1\n      swap2\n      and\n        /* \"#utility.yul\":760:811   */\n      dup2\n      mstore\n        /* \"#utility.yul\":748:750   */\n      0x20\n        /* \"#utility.yul\":733:751   */\n      add\n        /* \"src/ScholarshipFactory.sol\":393:420  address[] public dispensers */\n      mload(0x40)\n      dup1\n      swap2\n      sub\n      swap1\n      return\n        /* \"src/ScholarshipFactory.sol\":426:449  address public director */\n    tag_5:\n      sload(0x02)\n      tag_16\n      swap1\n      sub(shl(0xa0, 0x01), 0x01)\n      and\n      dup2\n      jump\n        /* \"lib/openzeppelin-contracts-upgradeable/lib/openzeppelin-contracts/contracts/access/Ownable.sol\":2293:2394  function renounceOwnership() public virtual onlyOwner {... */\n    tag_6:\n      tag_12\n      tag_26\n      jump\t// in\n        /* \"lib/openzeppelin-contracts-upgradeable/lib/openzeppelin-contracts/contracts/access/Ownable.sol\":1638:1723  function owner() public view virtual returns (address) {... */\n    tag_7:\n        /* \"lib/openzeppelin-contracts-upgradeable/lib/openzeppelin-contracts/contracts/access/Ownable.sol\":1684:1691  address */\n      0x00\n        /* \"lib/openzeppelin-contracts-upgradeable/lib/openzeppelin-contracts/contracts/access/Ownable.sol\":1710:1716  _owner */\n      sload\n      sub(shl(0xa0, 0x01), 0x01)\n      and\n        /* \"lib/openzeppelin-contracts-upgradeable/lib/openzeppelin-contracts/contracts/access/Ownable.sol\":1638:1723  function owner() public view virtual returns (address) {... */\n      jump(tag_16)\n        /* \"src/ScholarshipFactory.sol\":339:387  address public immutable dispenserImplementation */\n    tag_8:\n      tag_16\n      immutable(\"0x721a20cb1ebf635e5867c4ff9034ea3a03bc8e6afbc4dd2dd16591fa45f58157\")\n      dup2\n      jump\n        /* \"src/ScholarshipFactory.sol\":2138:2969  function createDispenser(... */\n    tag_9:\n      tag_16\n      tag_34\n      calldatasize\n      0x04\n      tag_35\n      jump\t// in\n    tag_34:\n      tag_36\n      jump\t// in\n        /* \"lib/openzeppelin-contracts-upgradeable/lib/openzeppelin-contracts/contracts/access/Ownable.sol\":2543:2758  function transferOwnership(address newOwner) public virtual onlyOwner {... */\n    tag_10:\n      tag_12\n      tag_39\n      calldatasize\n      0x04\n      tag_14\n      jump\t// in\n    tag_39:\n      tag_40\n      jump\t// in\n        /* \"src/ScholarshipFactory.sol\":3114:3287  function updateDirector(address newDirector) external onlyOwner {... */\n    tag_15:\n        /* \"lib/openzeppelin-contracts-upgradeable/lib/openzeppelin-contracts/contracts/access/Ownable.sol\":1531:1544  _checkOwner() */\n      tag_42\n        /* \"lib/openzeppelin-contracts-upgradeable/lib/openzeppelin-contracts/contracts/access/Ownable.sol\":1531:1542  _checkOwner */\n      tag_43\n        /* \"lib/openzeppelin-contracts-upgradeable/lib/openzeppelin-contracts/contracts/access/Ownable.sol\":1531:1544  _checkOwner() */\n      jump\t// in\n    tag_42:\n      sub(shl(0xa0, 0x01), 0x01)\n        /* \"src/ScholarshipFactory.sol\":3196:3221  newDirector != address(0) */\n      dup2\n      and\n        /* \"src/ScholarshipFactory.sol\":3188:3248  require(newDirector != address(0), InvalidDirectorAddress()) */\n      tag_45\n      jumpi\n      mload(0x40)\n      shl(0xe3, 0x074f166b)\n      dup2\n      mstore\n      0x04\n      add\n      mload(0x40)\n      dup1\n      swap2\n      sub\n      swap1\n      revert\n    tag_45:\n        /* \"src/ScholarshipFactory.sol\":3258:3266  director */\n      0x02\n        /* \"src/ScholarshipFactory.sol\":3258:3280  director = newDirector */\n      dup1\n      sload\n      not(sub(shl(0xa0, 0x01), 0x01))\n      and\n      sub(shl(0xa0, 0x01), 0x01)\n      swap3\n      swap1\n      swap3\n      and\n      swap2\n      swap1\n      swap2\n      or\n      swap1\n      sstore\n        /* \"src/ScholarshipFactory.sol\":3114:3287  function updateDirector(address newDirector) external onlyOwner {... */\n      jump\t// out\n        /* \"src/ScholarshipFactory.sol\":393:420  address[] public dispensers */\n    tag_19:\n      0x01\n      dup2\n      dup2\n      sload\n      dup2\n      lt\n      tag_46\n      jumpi\n      0x00\n      dup1\n      revert\n    tag_46:\n      0x00\n      swap2\n      dup3\n      mstore\n      0x20\n      swap1\n      swap2\n      keccak256\n      add\n      sload\n      sub(shl(0xa0, 0x01), 0x01)\n      and\n      swap1\n      pop\n      dup2\n      jump\t// out\n        /* \"lib/openzeppelin-contracts-upgradeable/lib/openzeppelin-contracts/contracts/access/Ownable.sol\":2293:2394  function renounceOwnership() public virtual onlyOwner {... */\n    tag_26:\n        /* \"lib/openzeppelin-contracts-upgradeable/lib/openzeppelin-contracts/contracts/access/Ownable.sol\":1531:1544  _checkOwner() */\n      tag_49\n        /* \"lib/openzeppelin-contracts-upgradeable/lib/openzeppelin-contracts/contracts/access/Ownable.sol\":1531:1542  _checkOwner */\n      tag_43\n        /* \"lib/openzeppelin-contracts-upgradeable/lib/openzeppelin-contracts/contracts/access/Ownable.sol\":1531:1544  _checkOwner() */\n      jump\t// in\n    tag_49:\n        /* \"lib/openzeppelin-contracts-upgradeable/lib/openzeppelin-contracts/contracts/access/Ownable.sol\":2357:2387  _transferOwnership(address(0)) */\n      tag_51\n        /* \"lib/openzeppelin-contracts-upgradeable/lib/openzeppelin-contracts/contracts/access/Ownable.sol\":2384:2385  0 */\n      0x00\n        /* \"lib/openzeppelin-contracts-upgradeable/lib/openzeppelin-contracts/contracts/access/Ownable.sol\":2357:2375  _transferOwnership */\n      tag_52\n        /* \"lib/openzeppelin-contracts-upgradeable/lib/openzeppelin-contracts/contracts/access/Ownable.sol\":2357:2387  _transferOwnership(address(0)) */\n      jump\t// in\n    tag_51:\n        /* \"lib/openzeppelin-contracts-upgradeable/lib/openzeppelin-contracts/contracts/access/Ownable.sol\":2293:2394  function renounceOwnership() public virtual onlyOwner {... */\n      jump\t// out\n        /* \"src/ScholarshipFactory.sol\":2138:2969  function createDispenser(... */\n    tag_36:\n        /* \"src/ScholarshipFactory.sol\":2320:2328  director */\n      sload(0x02)\n        /* \"src/ScholarshipFactory.sol\":2279:2286  address */\n      0x00\n      swap1\n      sub(shl(0xa0, 0x01), 0x01)\n        /* \"src/ScholarshipFactory.sol\":2320:2328  director */\n      and\n        /* \"src/ScholarshipFactory.sol\":2306:2316  msg.sender */\n      caller\n        /* \"src/ScholarshipFactory.sol\":2306:2328  msg.sender == director */\n      eq\n        /* \"src/ScholarshipFactory.sol\":2298:2363  require(msg.sender == director, OnlyDirectorCanCreateDispenser()) */\n      tag_55\n      jumpi\n      mload(0x40)\n      shl(0xe1, 0x5c378d31)\n      dup2\n      mstore\n      0x04\n      add\n      mload(0x40)\n      dup1\n      swap2\n      sub\n      swap1\n      revert\n    tag_55:\n        /* \"src/ScholarshipFactory.sol\":2401:2402  0 */\n      0x00\n        /* \"src/ScholarshipFactory.sol\":2381:2398  _usdStipendAmount */\n      dup4\n        /* \"src/ScholarshipFactory.sol\":2381:2402  _usdStipendAmount > 0 */\n      gt\n        /* \"src/ScholarshipFactory.sol\":2373:2441  require(_usdStipendAmount > 0, StipendAmountMustBeGreaterThanZero()) */\n      tag_56\n      jumpi\n      mload(0x40)\n      shl(0xe2, 0x10e41573)\n      dup2\n      mstore\n      0x04\n      add\n      mload(0x40)\n      dup1\n      swap2\n      sub\n      swap1\n      revert\n    tag_56:\n      sub(shl(0xa0, 0x01), 0x01)\n        /* \"src/ScholarshipFactory.sol\":2459:2483  _priceFeed != address(0) */\n      dup3\n      and\n        /* \"src/ScholarshipFactory.sol\":2451:2511  require(_priceFeed != address(0), InvalidPriceFeedAddress()) */\n      tag_57\n      jumpi\n      mload(0x40)\n      shl(0xe0, 0xe3588063)\n      dup2\n      mstore\n      0x04\n      add\n      mload(0x40)\n      dup1\n      swap2\n      sub\n      swap1\n      revert\n    tag_57:\n        /* \"src/ScholarshipFactory.sol\":2529:2540  _merkleRoot */\n      dup4\n        /* \"src/ScholarshipFactory.sol\":2521:2576  require(_merkleRoot != bytes32(0), InvalidMerkleRoot()) */\n      tag_58\n      jumpi\n      mload(0x40)\n      shl(0xe0, 0x9dd854d3)\n      dup2\n      mstore\n      0x04\n      add\n      mload(0x40)\n      dup1\n      swap2\n      sub\n      swap1\n      revert\n    tag_58:\n        /* \"src/ScholarshipFactory.sol\":2587:2609  address dispenserClone */\n      0x00\n        /* \"src/ScholarshipFactory.sol\":2612:2643  dispenserImplementation.clone() */\n      tag_59\n        /* \"src/ScholarshipFactory.sol\":2612:2635  dispenserImplementation */\n      immutable(\"0x721a20cb1ebf635e5867c4ff9034ea3a03bc8e6afbc4dd2dd16591fa45f58157\")\n      sub(shl(0xa0, 0x01), 0x01)\n        /* \"src/ScholarshipFactory.sol\":2612:2641  dispenserImplementation.clone */\n      and\n      tag_60\n        /* \"src/ScholarshipFactory.sol\":2612:2643  dispenserImplementation.clone() */\n      jump\t// in\n    tag_59:\n        /* \"src/ScholarshipFactory.sol\":2723:2731  director */\n      sload(0x02)\n        /* \"src/ScholarshipFactory.sol\":2653:2821  ScholarshipDispenser(payable(dispenserClone)).initialize(... */\n      mload(0x40)\n      shl(0xe0, 0x5f761675)\n      dup2\n      mstore\n      sub(shl(0xa0, 0x01), 0x01)\n        /* \"src/ScholarshipFactory.sol\":2723:2731  director */\n      swap2\n      dup3\n      and\n        /* \"src/ScholarshipFactory.sol\":2653:2821  ScholarshipDispenser(payable(dispenserClone)).initialize(... */\n      0x04\n      dup3\n      add\n        /* \"#utility.yul\":1426:1477   */\n      mstore\n        /* \"#utility.yul\":1493:1511   */\n      0x24\n      dup2\n      add\n        /* \"#utility.yul\":1486:1520   */\n      dup8\n      swap1\n      mstore\n        /* \"#utility.yul\":1556:1588   */\n      dup6\n      dup3\n      and\n        /* \"#utility.yul\":1536:1554   */\n      0x44\n      dup3\n      add\n        /* \"#utility.yul\":1529:1589   */\n      mstore\n        /* \"#utility.yul\":1605:1623   */\n      0x64\n      dup2\n      add\n        /* \"#utility.yul\":1598:1632   */\n      dup9\n      swap1\n      mstore\n        /* \"src/ScholarshipFactory.sol\":2587:2643  address dispenserClone = dispenserImplementation.clone() */\n      swap2\n      swap3\n      pop\n        /* \"src/ScholarshipFactory.sol\":2653:2709  ScholarshipDispenser(payable(dispenserClone)).initialize */\n      dup3\n      and\n      swap1\n      0x5f761675\n      swap1\n        /* \"#utility.yul\":1398:1417   */\n      0x84\n      add\n        /* \"src/ScholarshipFactory.sol\":2653:2821  ScholarshipDispenser(payable(dispenserClone)).initialize(... */\n      0x00\n      mload(0x40)\n      dup1\n      dup4\n      sub\n      dup2\n      0x00\n      dup8\n      dup1\n      extcodesize\n      iszero\n      dup1\n      iszero\n      tag_63\n      jumpi\n      revert(0x00, 0x00)\n    tag_63:\n      pop\n      gas\n      call\n      iszero\n      dup1\n      iszero\n      tag_65\n      jumpi\n      returndatacopy(0x00, 0x00, returndatasize)\n      revert(0x00, returndatasize)\n    tag_65:\n      pop\n      pop\n        /* \"src/ScholarshipFactory.sol\":2832:2842  dispensers */\n      0x01\n        /* \"src/ScholarshipFactory.sol\":2832:2863  dispensers.push(dispenserClone) */\n      dup1\n      sload\n      dup1\n      dup3\n      add\n      dup3\n      sstore\n      0x00\n      swap2\n      swap1\n      swap2\n      mstore\n      0xb10e2d527612073b26eecdfd717e6a320cf44b4afac2b0732d9fcbe2b7fa0cf6\n      add\n      dup1\n      sload\n      not(sub(shl(0xa0, 0x01), 0x01))\n      and\n      sub(shl(0xa0, 0x01), 0x01)\n      dup6\n      and\n      swap1\n      dup2\n      or\n      swap1\n      swap2\n      sstore\n        /* \"src/ScholarshipFactory.sol\":2879:2930  DispenserCreated(dispenserClone, _usdStipendAmount) */\n      mload(0x40)\n        /* \"#utility.yul\":1789:1814   */\n      dup8\n      dup2\n      mstore\n        /* \"src/ScholarshipFactory.sol\":2832:2863  dispensers.push(dispenserClone) */\n      swap1\n      swap3\n      pop\n        /* \"src/ScholarshipFactory.sol\":2879:2930  DispenserCreated(dispenserClone, _usdStipendAmount) */\n      0xa99c90577b80d735a56496629133b35ecc581a0e5d29b949147bbca7730e6d5a\n      swap2\n      pop\n        /* \"#utility.yul\":1777:1779   */\n      0x20\n        /* \"#utility.yul\":1762:1780   */\n      add\n        /* \"src/ScholarshipFactory.sol\":2879:2930  DispenserCreated(dispenserClone, _usdStipendAmount) */\n      mload(0x40)\n      dup1\n      swap2\n      sub\n      swap1\n      log2\n        /* \"src/ScholarshipFactory.sol\":2948:2962  dispenserClone */\n      swap5\n        /* \"src/ScholarshipFactory.sol\":2138:2969  function createDispenser(... */\n      swap4\n      pop\n      pop\n      pop\n      pop\n      jump\t// out\n        /* \"lib/openzeppelin-contracts-upgradeable/lib/openzeppelin-contracts/contracts/access/Ownable.sol\":2543:2758  function transferOwnership(address newOwner) public virtual onlyOwner {... */\n    tag_40:\n        /* \"lib/openzeppelin-contracts-upgradeable/lib/openzeppelin-contracts/contracts/access/Ownable.sol\":1531:1544  _checkOwner() */\n      tag_70\n        /* \"lib/openzeppelin-contracts-upgradeable/lib/openzeppelin-contracts/contracts/access/Ownable.sol\":1531:1542  _checkOwner */\n      tag_43\n        /* \"lib/openzeppelin-contracts-upgradeable/lib/openzeppelin-contracts/contracts/access/Ownable.sol\":1531:1544  _checkOwner() */\n      jump\t// in\n    tag_70:\n      sub(shl(0xa0, 0x01), 0x01)\n        /* \"lib/openzeppelin-contracts-upgradeable/lib/openzeppelin-contracts/contracts/access/Ownable.sol\":2627:2649  newOwner == address(0) */\n      dup2\n      and\n        /* \"lib/openzeppelin-contracts-upgradeable/lib/openzeppelin-contracts/contracts/access/Ownable.sol\":2623:2714  if (newOwner == address(0)) {... */\n      tag_72\n      jumpi\n        /* \"lib/openzeppelin-contracts-upgradeable/lib/openzeppelin-contracts/contracts/access/Ownable.sol\":2672:2703  OwnableInvalidOwner(address(0)) */\n      mload(0x40)\n      shl(0xe0, 0x1e4fbdf7)\n      dup2\n      mstore\n        /* \"lib/openzeppelin-contracts-upgradeable/lib/openzeppelin-contracts/contracts/access/Ownable.sol\":2700:2701  0 */\n      0x00\n        /* \"lib/openzeppelin-contracts-upgradeable/lib/openzeppelin-contracts/contracts/access/Ownable.sol\":2672:2703  OwnableInvalidOwner(address(0)) */\n      0x04\n      dup3\n      add\n        /* \"#utility.yul\":760:811   */\n      mstore\n        /* \"#utility.yul\":733:751   */\n      0x24\n      add\n        /* \"lib/openzeppelin-contracts-upgradeable/lib/openzeppelin-contracts/contracts/access/Ownable.sol\":2672:2703  OwnableInvalidOwner(address(0)) */\n    tag_73:\n      mload(0x40)\n      dup1\n      swap2\n      sub\n      swap1\n      revert\n        /* \"lib/openzeppelin-contracts-upgradeable/lib/openzeppelin-contracts/contracts/access/Ownable.sol\":2623:2714  if (newOwner == address(0)) {... */\n    tag_72:\n        /* \"lib/openzeppelin-contracts-upgradeable/lib/openzeppelin-contracts/contracts/access/Ownable.sol\":2723:2751  _transferOwnership(newOwner) */\n      tag_74\n        /* \"lib/openzeppelin-contracts-upgradeable/lib/openzeppelin-contracts/contracts/access/Ownable.sol\":2742:2750  newOwner */\n      dup2\n        /* \"lib/openzeppelin-contracts-upgradeable/lib/openzeppelin-contracts/contracts/access/Ownable.sol\":2723:2741  _transferOwnership */\n      tag_52\n        /* \"lib/openzeppelin-contracts-upgradeable/lib/openzeppelin-contracts/contracts/access/Ownable.sol\":2723:2751  _transferOwnership(newOwner) */\n      jump\t// in\n    tag_74:\n        /* \"lib/openzeppelin-contracts-upgradeable/lib/openzeppelin-contracts/contracts/access/Ownable.sol\":2543:2758  function transferOwnership(address newOwner) public virtual onlyOwner {... */\n      pop\n      jump\t// out\n        /* \"lib/openzeppelin-contracts-upgradeable/lib/openzeppelin-contracts/contracts/access/Ownable.sol\":1796:1958  function _checkOwner() internal view virtual {... */\n    tag_43:\n        /* \"lib/openzeppelin-contracts-upgradeable/lib/openzeppelin-contracts/contracts/access/Ownable.sol\":1684:1691  address */\n      0x00\n        /* \"lib/openzeppelin-contracts-upgradeable/lib/openzeppelin-contracts/contracts/access/Ownable.sol\":1710:1716  _owner */\n      sload\n      sub(shl(0xa0, 0x01), 0x01)\n      and\n        /* \"lib/openzeppelin-contracts-upgradeable/lib/openzeppelin-contracts/contracts/utils/Context.sol\":735:745  msg.sender */\n      caller\n        /* \"lib/openzeppelin-contracts-upgradeable/lib/openzeppelin-contracts/contracts/access/Ownable.sol\":1855:1878  owner() != _msgSender() */\n      eq\n        /* \"lib/openzeppelin-contracts-upgradeable/lib/openzeppelin-contracts/contracts/access/Ownable.sol\":1851:1952  if (owner() != _msgSender()) {... */\n      tag_51\n      jumpi\n        /* \"lib/openzeppelin-contracts-upgradeable/lib/openzeppelin-contracts/contracts/access/Ownable.sol\":1901:1941  OwnableUnauthorizedAccount(_msgSender()) */\n      mload(0x40)\n      shl(0xe0, 0x118cdaa7)\n      dup2\n      mstore\n        /* \"lib/openzeppelin-contracts-upgradeable/lib/openzeppelin-contracts/contracts/utils/Context.sol\":735:745  msg.sender */\n      caller\n        /* \"lib/openzeppelin-contracts-upgradeable/lib/openzeppelin-contracts/contracts/access/Ownable.sol\":1901:1941  OwnableUnauthorizedAccount(_msgSender()) */\n      0x04\n      dup3\n      add\n        /* \"#utility.yul\":760:811   */\n      mstore\n        /* \"#utility.yul\":733:751   */\n      0x24\n      add\n        /* \"lib/openzeppelin-contracts-upgradeable/lib/openzeppelin-contracts/contracts/access/Ownable.sol\":1901:1941  OwnableUnauthorizedAccount(_msgSender()) */\n      tag_73\n        /* \"#utility.yul\":614:817   */\n      jump\n        /* \"lib/openzeppelin-contracts-upgradeable/lib/openzeppelin-contracts/contracts/access/Ownable.sol\":2912:3099  function _transferOwnership(address newOwner) internal virtual {... */\n    tag_52:\n        /* \"lib/openzeppelin-contracts-upgradeable/lib/openzeppelin-contracts/contracts/access/Ownable.sol\":2985:3001  address oldOwner */\n      0x00\n        /* \"lib/openzeppelin-contracts-upgradeable/lib/openzeppelin-contracts/contracts/access/Ownable.sol\":3004:3010  _owner */\n      dup1\n      sload\n      sub(shl(0xa0, 0x01), 0x01)\n        /* \"lib/openzeppelin-contracts-upgradeable/lib/openzeppelin-contracts/contracts/access/Ownable.sol\":3020:3037  _owner = newOwner */\n      dup4\n      dup2\n      and\n      not(sub(shl(0xa0, 0x01), 0x01))\n      dup4\n      and\n      dup2\n      or\n      dup5\n      sstore\n        /* \"lib/openzeppelin-contracts-upgradeable/lib/openzeppelin-contracts/contracts/access/Ownable.sol\":3052:3092  OwnershipTransferred(oldOwner, newOwner) */\n      mload(0x40)\n        /* \"lib/openzeppelin-contracts-upgradeable/lib/openzeppelin-contracts/contracts/access/Ownable.sol\":3004:3010  _owner */\n      swap2\n      swap1\n      swap3\n      and\n      swap3\n      dup4\n      swap2\n        /* \"lib/openzeppelin-contracts-upgradeable/lib/openzeppelin-contracts/contracts/access/Ownable.sol\":3052:3092  OwnershipTransferred(oldOwner, newOwner) */\n      0x8be0079c531659141344cd1fd0a4f28419497f9722a3daafe3b4186f6b6457e0\n      swap2\n        /* \"lib/openzeppelin-contracts-upgradeable/lib/openzeppelin-contracts/contracts/access/Ownable.sol\":2985:3001  address oldOwner */\n      swap1\n        /* \"lib/openzeppelin-contracts-upgradeable/lib/openzeppelin-contracts/contracts/access/Ownable.sol\":3052:3092  OwnershipTransferred(oldOwner, newOwner) */\n      log3\n        /* \"lib/openzeppelin-contracts-upgradeable/lib/openzeppelin-contracts/contracts/access/Ownable.sol\":2975:3099  {... */\n      pop\n        /* \"lib/openzeppelin-contracts-upgradeable/lib/openzeppelin-contracts/contracts/access/Ownable.sol\":2912:3099  function _transferOwnership(address newOwner) internal virtual {... */\n      pop\n      jump\t// out\n        /* \"lib/openzeppelin-contracts-upgradeable/lib/openzeppelin-contracts/contracts/proxy/Clones.sol\":1070:1193  function clone(address implementation) internal returns (address instance) {... */\n    tag_60:\n        /* \"lib/openzeppelin-contracts-upgradeable/lib/openzeppelin-contracts/contracts/proxy/Clones.sol\":1127:1143  address instance */\n      0x00\n        /* \"lib/openzeppelin-contracts-upgradeable/lib/openzeppelin-contracts/contracts/proxy/Clones.sol\":1162:1186  clone(implementation, 0) */\n      tag_84\n        /* \"lib/openzeppelin-contracts-upgradeable/lib/openzeppelin-contracts/contracts/proxy/Clones.sol\":1168:1182  implementation */\n      dup3\n        /* \"lib/openzeppelin-contracts-upgradeable/lib/openzeppelin-contracts/contracts/proxy/Clones.sol\":1184:1185  0 */\n      0x00\n        /* \"lib/openzeppelin-contracts-upgradeable/lib/openzeppelin-contracts/contracts/proxy/Clones.sol\":1162:1167  clone */\n      tag_85\n        /* \"lib/openzeppelin-contracts-upgradeable/lib/openzeppelin-contracts/contracts/proxy/Clones.sol\":1162:1186  clone(implementation, 0) */\n      jump\t// in\n    tag_84:\n        /* \"lib/openzeppelin-contracts-upgradeable/lib/openzeppelin-contracts/contracts/proxy/Clones.sol\":1155:1186  return clone(implementation, 0) */\n      swap3\n        /* \"lib/openzeppelin-contracts-upgradeable/lib/openzeppelin-contracts/contracts/proxy/Clones.sol\":1070:1193  function clone(address implementation) internal returns (address instance) {... */\n      swap2\n      pop\n      pop\n      jump\t// out\n        /* \"lib/openzeppelin-contracts-upgradeable/lib/openzeppelin-contracts/contracts/proxy/Clones.sol\":1585:2495  function clone(address implementation, uint256 value) internal returns (address instance) {... */\n    tag_85:\n        /* \"lib/openzeppelin-contracts-upgradeable/lib/openzeppelin-contracts/contracts/proxy/Clones.sol\":1657:1673  address instance */\n      0x00\n        /* \"lib/openzeppelin-contracts-upgradeable/lib/openzeppelin-contracts/contracts/proxy/Clones.sol\":1713:1718  value */\n      dup2\n        /* \"lib/openzeppelin-contracts-upgradeable/lib/openzeppelin-contracts/contracts/proxy/Clones.sol\":1689:1710  address(this).balance */\n      selfbalance\n        /* \"lib/openzeppelin-contracts-upgradeable/lib/openzeppelin-contracts/contracts/proxy/Clones.sol\":1689:1718  address(this).balance < value */\n      lt\n        /* \"lib/openzeppelin-contracts-upgradeable/lib/openzeppelin-contracts/contracts/proxy/Clones.sol\":1685:1808  if (address(this).balance < value) {... */\n      iszero\n      tag_88\n      jumpi\n        /* \"lib/openzeppelin-contracts-upgradeable/lib/openzeppelin-contracts/contracts/proxy/Clones.sol\":1741:1797  Errors.InsufficientBalance(address(this).balance, value) */\n      mload(0x40)\n      shl(0xe0, 0xcf479181)\n      dup2\n      mstore\n        /* \"lib/openzeppelin-contracts-upgradeable/lib/openzeppelin-contracts/contracts/proxy/Clones.sol\":1768:1789  address(this).balance */\n      selfbalance\n        /* \"lib/openzeppelin-contracts-upgradeable/lib/openzeppelin-contracts/contracts/proxy/Clones.sol\":1741:1797  Errors.InsufficientBalance(address(this).balance, value) */\n      0x04\n      dup3\n      add\n        /* \"#utility.yul\":1999:2024   */\n      mstore\n        /* \"#utility.yul\":2040:2058   */\n      0x24\n      dup2\n      add\n        /* \"#utility.yul\":2033:2067   */\n      dup4\n      swap1\n      mstore\n        /* \"#utility.yul\":1972:1990   */\n      0x44\n      add\n        /* \"lib/openzeppelin-contracts-upgradeable/lib/openzeppelin-contracts/contracts/proxy/Clones.sol\":1741:1797  Errors.InsufficientBalance(address(this).balance, value) */\n      tag_73\n        /* \"#utility.yul\":1825:2073   */\n      jump\n        /* \"lib/openzeppelin-contracts-upgradeable/lib/openzeppelin-contracts/contracts/proxy/Clones.sol\":1685:1808  if (address(this).balance < value) {... */\n    tag_88:\n        /* \"lib/openzeppelin-contracts-upgradeable/lib/openzeppelin-contracts/contracts/proxy/Clones.sol\":2094:2142  0x3d602d80600a3d3981f3363d3d373d3d3d363d73000000 */\n      0x3d602d80600a3d3981f3363d3d373d3d3d363d73000000\n        /* \"lib/openzeppelin-contracts-upgradeable/lib/openzeppelin-contracts/contracts/proxy/Clones.sol\":2076:2090  implementation */\n      dup4\n        /* \"lib/openzeppelin-contracts-upgradeable/lib/openzeppelin-contracts/contracts/proxy/Clones.sol\":2070:2074  0x60 */\n      0x60\n        /* \"lib/openzeppelin-contracts-upgradeable/lib/openzeppelin-contracts/contracts/proxy/Clones.sol\":2066:2091  shl(0x60, implementation) */\n      shl\n        /* \"lib/openzeppelin-contracts-upgradeable/lib/openzeppelin-contracts/contracts/proxy/Clones.sol\":2060:2064  0xe8 */\n      0xe8\n        /* \"lib/openzeppelin-contracts-upgradeable/lib/openzeppelin-contracts/contracts/proxy/Clones.sol\":2056:2092  shr(0xe8, shl(0x60, implementation)) */\n      shr\n        /* \"lib/openzeppelin-contracts-upgradeable/lib/openzeppelin-contracts/contracts/proxy/Clones.sol\":2053:2143  or(shr(0xe8, shl(0x60, implementation)), 0x3d602d80600a3d3981f3363d3d373d3d3d363d73000000) */\n      or\n        /* \"lib/openzeppelin-contracts-upgradeable/lib/openzeppelin-contracts/contracts/proxy/Clones.sol\":2047:2051  0x00 */\n      0x00\n        /* \"lib/openzeppelin-contracts-upgradeable/lib/openzeppelin-contracts/contracts/proxy/Clones.sol\":2040:2144  mstore(0x00, or(shr(0xe8, shl(0x60, implementation)), 0x3d602d80600a3d3981f3363d3d373d3d3d363d73000000)) */\n      mstore\n        /* \"lib/openzeppelin-contracts-upgradeable/lib/openzeppelin-contracts/contracts/proxy/Clones.sol\":2301:2333  0x5af43d82803e903d91602b57fd5bf3 */\n      0x5af43d82803e903d91602b57fd5bf3\n        /* \"lib/openzeppelin-contracts-upgradeable/lib/openzeppelin-contracts/contracts/proxy/Clones.sol\":2284:2298  implementation */\n      dup4\n        /* \"lib/openzeppelin-contracts-upgradeable/lib/openzeppelin-contracts/contracts/proxy/Clones.sol\":2278:2282  0x78 */\n      0x78\n        /* \"lib/openzeppelin-contracts-upgradeable/lib/openzeppelin-contracts/contracts/proxy/Clones.sol\":2274:2299  shl(0x78, implementation) */\n      shl\n        /* \"lib/openzeppelin-contracts-upgradeable/lib/openzeppelin-contracts/contracts/proxy/Clones.sol\":2271:2334  or(shl(0x78, implementation), 0x5af43d82803e903d91602b57fd5bf3) */\n      or\n        /* \"lib/openzeppelin-contracts-upgradeable/lib/openzeppelin-contracts/contracts/proxy/Clones.sol\":2265:2269  0x20 */\n      0x20\n        /* \"lib/openzeppelin-contracts-upgradeable/lib/openzeppelin-contracts/contracts/proxy/Clones.sol\":2258:2335  mstore(0x20, or(shl(0x78, implementation), 0x5af43d82803e903d91602b57fd5bf3)) */\n      mstore\n        /* \"lib/openzeppelin-contracts-upgradeable/lib/openzeppelin-contracts/contracts/proxy/Clones.sol\":2380:2384  0x37 */\n      0x37\n        /* \"lib/openzeppelin-contracts-upgradeable/lib/openzeppelin-contracts/contracts/proxy/Clones.sol\":2374:2378  0x09 */\n      0x09\n        /* \"lib/openzeppelin-contracts-upgradeable/lib/openzeppelin-contracts/contracts/proxy/Clones.sol\":2367:2372  value */\n      dup4\n        /* \"lib/openzeppelin-contracts-upgradeable/lib/openzeppelin-contracts/contracts/proxy/Clones.sol\":2360:2385  create(value, 0x09, 0x37) */\n      create\n        /* \"lib/openzeppelin-contracts-upgradeable/lib/openzeppelin-contracts/contracts/proxy/Clones.sol\":2348:2385  instance := create(value, 0x09, 0x37) */\n      swap1\n      pop\n      sub(shl(0xa0, 0x01), 0x01)\n        /* \"lib/openzeppelin-contracts-upgradeable/lib/openzeppelin-contracts/contracts/proxy/Clones.sol\":2408:2430  instance == address(0) */\n      dup2\n      and\n        /* \"lib/openzeppelin-contracts-upgradeable/lib/openzeppelin-contracts/contracts/proxy/Clones.sol\":2404:2489  if (instance == address(0)) {... */\n      tag_84\n      jumpi\n        /* \"lib/openzeppelin-contracts-upgradeable/lib/openzeppelin-contracts/contracts/proxy/Clones.sol\":2453:2478  Errors.FailedDeployment() */\n      mload(0x40)\n      shl(0xe0, 0xb06ebf3d)\n      dup2\n      mstore\n      0x04\n      add\n      mload(0x40)\n      dup1\n      swap2\n      sub\n      swap1\n      revert\n        /* \"#utility.yul\":14:187   */\n    tag_92:\n        /* \"#utility.yul\":82:102   */\n      dup1\n      calldataload\n      sub(shl(0xa0, 0x01), 0x01)\n        /* \"#utility.yul\":131:162   */\n      dup2\n      and\n        /* \"#utility.yul\":121:163   */\n      dup2\n      eq\n        /* \"#utility.yul\":111:181   */\n      tag_95\n      jumpi\n        /* \"#utility.yul\":177:178   */\n      0x00\n        /* \"#utility.yul\":174:175   */\n      0x00\n        /* \"#utility.yul\":167:179   */\n      revert\n        /* \"#utility.yul\":111:181   */\n    tag_95:\n        /* \"#utility.yul\":14:187   */\n      swap2\n      swap1\n      pop\n      jump\t// out\n        /* \"#utility.yul\":192:378   */\n    tag_14:\n        /* \"#utility.yul\":251:257   */\n      0x00\n        /* \"#utility.yul\":304:306   */\n      0x20\n        /* \"#utility.yul\":292:301   */\n      dup3\n        /* \"#utility.yul\":283:290   */\n      dup5\n        /* \"#utility.yul\":279:302   */\n      sub\n        /* \"#utility.yul\":275:307   */\n      slt\n        /* \"#utility.yul\":272:324   */\n      iszero\n      tag_97\n      jumpi\n        /* \"#utility.yul\":320:321   */\n      0x00\n        /* \"#utility.yul\":317:318   */\n      0x00\n        /* \"#utility.yul\":310:322   */\n      revert\n        /* \"#utility.yul\":272:324   */\n    tag_97:\n        /* \"#utility.yul\":343:372   */\n      tag_98\n        /* \"#utility.yul\":362:371   */\n      dup3\n        /* \"#utility.yul\":343:372   */\n      tag_92\n      jump\t// in\n    tag_98:\n        /* \"#utility.yul\":333:372   */\n      swap4\n        /* \"#utility.yul\":192:378   */\n      swap3\n      pop\n      pop\n      pop\n      jump\t// out\n        /* \"#utility.yul\":383:609   */\n    tag_18:\n        /* \"#utility.yul\":442:448   */\n      0x00\n        /* \"#utility.yul\":495:497   */\n      0x20\n        /* \"#utility.yul\":483:492   */\n      dup3\n        /* \"#utility.yul\":474:481   */\n      dup5\n        /* \"#utility.yul\":470:493   */\n      sub\n        /* \"#utility.yul\":466:498   */\n      slt\n        /* \"#utility.yul\":463:515   */\n      iszero\n      tag_100\n      jumpi\n        /* \"#utility.yul\":511:512   */\n      0x00\n        /* \"#utility.yul\":508:509   */\n      0x00\n        /* \"#utility.yul\":501:513   */\n      revert\n        /* \"#utility.yul\":463:515   */\n    tag_100:\n      pop\n        /* \"#utility.yul\":556:579   */\n      calldataload\n      swap2\n        /* \"#utility.yul\":383:609   */\n      swap1\n      pop\n      jump\t// out\n        /* \"#utility.yul\":822:1190   */\n    tag_35:\n        /* \"#utility.yul\":899:905   */\n      0x00\n        /* \"#utility.yul\":907:913   */\n      0x00\n        /* \"#utility.yul\":915:921   */\n      0x00\n        /* \"#utility.yul\":968:970   */\n      0x60\n        /* \"#utility.yul\":956:965   */\n      dup5\n        /* \"#utility.yul\":947:954   */\n      dup7\n        /* \"#utility.yul\":943:966   */\n      sub\n        /* \"#utility.yul\":939:971   */\n      slt\n        /* \"#utility.yul\":936:988   */\n      iszero\n      tag_103\n      jumpi\n        /* \"#utility.yul\":984:985   */\n      0x00\n        /* \"#utility.yul\":981:982   */\n      0x00\n        /* \"#utility.yul\":974:986   */\n      revert\n        /* \"#utility.yul\":936:988   */\n    tag_103:\n        /* \"#utility.yul\":1007:1030   */\n      dup4\n      calldataload\n      swap3\n      pop\n        /* \"#utility.yul\":1099:1101   */\n      0x20\n        /* \"#utility.yul\":1084:1102   */\n      dup5\n      add\n        /* \"#utility.yul\":1071:1103   */\n      calldataload\n      swap2\n      pop\n        /* \"#utility.yul\":1146:1184   */\n      tag_104\n        /* \"#utility.yul\":1180:1182   */\n      0x40\n        /* \"#utility.yul\":1165:1183   */\n      dup6\n      add\n        /* \"#utility.yul\":1146:1184   */\n      tag_92\n      jump\t// in\n    tag_104:\n        /* \"#utility.yul\":1136:1184   */\n      swap1\n      pop\n        /* \"#utility.yul\":822:1190   */\n      swap3\n      pop\n      swap3\n      pop\n      swap3\n      jump\t// out\n\n    auxdata: 0xa26469706673582212207c1b473940862bc67c5ae0b215bec3aa2a9013b12a655520cdf2848c4774557964736f6c634300081c0033\n}\n",
				"bytecode": {
					"linkReferences": {},
					"object": "60a060405234801561000f575f5ffd5b5060405161077a38038061077a83398101604081905261002e9161016f565b816001600160a01b03811661005c57604051631e4fbdf760e01b81525f600482015260240160405180910390fd5b61006581610105565b506001600160a01b03831661008d5760405163325c055b60e21b815260040160405180910390fd5b6001600160a01b0382166100b45760405163016ed19f60e21b815260040160405180910390fd5b6001600160a01b0381166100db5760405163074f166b60e31b815260040160405180910390fd5b6001600160a01b03928316608052600280546001600160a01b0319169190931617909155506101af565b5f80546001600160a01b038381166001600160a01b0319831681178455604051919092169283917f8be0079c531659141344cd1fd0a4f28419497f9722a3daafe3b4186f6b6457e09190a35050565b80516001600160a01b038116811461016a575f5ffd5b919050565b5f5f5f60608486031215610181575f5ffd5b61018a84610154565b925061019860208501610154565b91506101a660408501610154565b90509250925092565b6080516105ad6101cd5f395f818160fd015261026901526105ad5ff3fe608060405234801561000f575f5ffd5b5060043610610085575f3560e01c80638da5cb5b116100585780638da5cb5b146100e85780639c8d69c5146100f8578063d86f77fc1461011f578063f2fde38b14610132575f5ffd5b80631de933c714610089578063335b7fa21461009e5780635af82abf146100cd578063715018a6146100e0575b5f5ffd5b61009c61009736600461050e565b610145565b005b6100b16100ac36600461052e565b610196565b6040516001600160a01b03909116815260200160405180910390f35b6002546100b1906001600160a01b031681565b61009c6101be565b5f546001600160a01b03166100b1565b6100b17f000000000000000000000000000000000000000000000000000000000000000081565b6100b161012d366004610545565b6101d1565b61009c61014036600461050e565b610391565b61014d6103d3565b6001600160a01b0381166101745760405163074f166b60e31b815260040160405180910390fd5b600280546001600160a01b0319166001600160a01b0392909216919091179055565b600181815481106101a5575f80fd5b5f918252602090912001546001600160a01b0316905081565b6101c66103d3565b6101cf5f6103ff565b565b6002545f906001600160a01b031633146101fe57604051635c378d3160e11b815260040160405180910390fd5b5f831161021e576040516310e4157360e21b815260040160405180910390fd5b6001600160a01b0382166102455760405163e358806360e01b815260040160405180910390fd5b8361026357604051639dd854d360e01b815260040160405180910390fd5b5f6102967f00000000000000000000000000000000000000000000000000000000000000006001600160a01b031661044e565b600254604051635f76167560e01b81526001600160a01b03918216600482015260248101879052858216604482015260648101889052919250821690635f761675906084015f604051808303815f87803b1580156102f2575f5ffd5b505af1158015610304573d5f5f3e3d5ffd5b50506001805480820182555f919091527fb10e2d527612073b26eecdfd717e6a320cf44b4afac2b0732d9fcbe2b7fa0cf60180546001600160a01b0319166001600160a01b0385169081179091556040518781529092507fa99c90577b80d735a56496629133b35ecc581a0e5d29b949147bbca7730e6d5a915060200160405180910390a2949350505050565b6103996103d3565b6001600160a01b0381166103c757604051631e4fbdf760e01b81525f60048201526024015b60405180910390fd5b6103d0816103ff565b50565b5f546001600160a01b031633146101cf5760405163118cdaa760e01b81523360048201526024016103be565b5f80546001600160a01b038381166001600160a01b0319831681178455604051919092169283917f8be0079c531659141344cd1fd0a4f28419497f9722a3daafe3b4186f6b6457e09190a35050565b5f610459825f61045f565b92915050565b5f8147101561048a5760405163cf47918160e01b8152476004820152602481018390526044016103be565b763d602d80600a3d3981f3363d3d373d3d3d363d730000008360601b60e81c175f526e5af43d82803e903d91602b57fd5bf38360781b176020526037600983f090506001600160a01b0381166104595760405163b06ebf3d60e01b815260040160405180910390fd5b80356001600160a01b0381168114610509575f5ffd5b919050565b5f6020828403121561051e575f5ffd5b610527826104f3565b9392505050565b5f6020828403121561053e575f5ffd5b5035919050565b5f5f5f60608486031215610557575f5ffd5b833592506020840135915061056e604085016104f3565b9050925092509256fea26469706673582212207c1b473940862bc67c5ae0b215bec3aa2a9013b12a655520cdf2848c4774557964736f6c634300081c0033",
					"opcodes": "PUSH1 0xA0 PUSH1 0x40 MSTORE CALLVALUE DUP1 ISZERO PUSH2 0xF JUMPI PUSH0 PUSH0 REVERT JUMPDEST POP PUSH1 0x40 MLOAD PUSH2 0x77A CODESIZE SUB DUP1 PUSH2 0x77A DUP4 CODECOPY DUP2 ADD PUSH1 0x40 DUP2 SWAP1 MSTORE PUSH2 0x2E SWAP2 PUSH2 0x16F JUMP JUMPDEST DUP2 PUSH1 0x1 PUSH1 0x1 PUSH1 0xA0 SHL SUB DUP2 AND PUSH2 0x5C JUMPI PUSH1 0x40 MLOAD PUSH4 0x1E4FBDF7 PUSH1 0xE0 SHL DUP2 MSTORE PUSH0 PUSH1 0x4 DUP3 ADD MSTORE PUSH1 0x24 ADD PUSH1 0x40 MLOAD DUP1 SWAP2 SUB SWAP1 REVERT JUMPDEST PUSH2 0x65 DUP2 PUSH2 0x105 JUMP JUMPDEST POP PUSH1 0x1 PUSH1 0x1 PUSH1 0xA0 SHL SUB DUP4 AND PUSH2 0x8D JUMPI PUSH1 0x40 MLOAD PUSH4 0x325C055B PUSH1 0xE2 SHL DUP2 MSTORE PUSH1 0x4 ADD PUSH1 0x40 MLOAD DUP1 SWAP2 SUB SWAP1 REVERT JUMPDEST PUSH1 0x1 PUSH1 0x1 PUSH1 0xA0 SHL SUB DUP3 AND PUSH2 0xB4 JUMPI PUSH1 0x40 MLOAD PUSH4 0x16ED19F PUSH1 0xE2 SHL DUP2 MSTORE PUSH1 0x4 ADD PUSH1 0x40 MLOAD DUP1 SWAP2 SUB SWAP1 REVERT JUMPDEST PUSH1 0x1 PUSH1 0x1 PUSH1 0xA0 SHL SUB DUP2 AND PUSH2 0xDB JUMPI PUSH1 0x40 MLOAD PUSH4 0x74F166B PUSH1 0xE3 SHL DUP2 MSTORE PUSH1 0x4 ADD PUSH1 0x40 MLOAD DUP1 SWAP2 SUB SWAP1 REVERT JUMPDEST PUSH1 0x1 PUSH1 0x1 PUSH1 0xA0 SHL SUB SWAP3 DUP4 AND PUSH1 0x80 MSTORE PUSH1 0x2 DUP1 SLOAD PUSH1 0x1 PUSH1 0x1 PUSH1 0xA0 SHL SUB NOT AND SWAP2 SWAP1 SWAP4 AND OR SWAP1 SWAP2 SSTORE POP PUSH2 0x1AF JUMP JUMPDEST PUSH0 DUP1 SLOAD PUSH1 0x1 PUSH1 0x1 PUSH1 0xA0 SHL SUB DUP4 DUP2 AND PUSH1 0x1 PUSH1 0x1 PUSH1 0xA0 SHL SUB NOT DUP4 AND DUP2 OR DUP5 SSTORE PUSH1 0x40 MLOAD SWAP2 SWAP1 SWAP3 AND SWAP3 DUP4 SWAP2 PUSH32 0x8BE0079C531659141344CD1FD0A4F28419497F9722A3DAAFE3B4186F6B6457E0 SWAP2 SWAP1 LOG3 POP POP JUMP JUMPDEST DUP1 MLOAD PUSH1 0x1 PUSH1 0x1 PUSH1 0xA0 SHL SUB DUP2 AND DUP2 EQ PUSH2 0x16A JUMPI PUSH0 PUSH0 REVERT JUMPDEST SWAP2 SWAP1 POP JUMP JUMPDEST PUSH0 PUSH0 PUSH0 PUSH1 0x60 DUP5 DUP7 SUB SLT ISZERO PUSH2 0x181 JUMPI PUSH0 PUSH0 REVERT JUMPDEST PUSH2 0x18A DUP5 PUSH2 0x154 JUMP JUMPDEST SWAP3 POP PUSH2 0x198 PUSH1 0x20 DUP6 ADD PUSH2 0x154 JUMP JUMPDEST SWAP2 POP PUSH2 0x1A6 PUSH1 0x40 DUP6 ADD PUSH2 0x154 JUMP JUMPDEST SWAP1 POP SWAP3 POP SWAP3 POP SWAP3 JUMP JUMPDEST PUSH1 0x80 MLOAD PUSH2 0x5AD PUSH2 0x1CD PUSH0 CODECOPY PUSH0 DUP2 DUP2 PUSH1 0xFD ADD MSTORE PUSH2 0x269 ADD MSTORE PUSH2 0x5AD PUSH0 RETURN INVALID PUSH1 0x80 PUSH1 0x40 MSTORE CALLVALUE DUP1 ISZERO PUSH2 0xF JUMPI PUSH0 PUSH0 REVERT JUMPDEST POP PUSH1 0x4 CALLDATASIZE LT PUSH2 0x85 JUMPI PUSH0 CALLDATALOAD PUSH1 0xE0 SHR DUP1 PUSH4 0x8DA5CB5B GT PUSH2 0x58 JUMPI DUP1 PUSH4 0x8DA5CB5B EQ PUSH2 0xE8 JUMPI DUP1 PUSH4 0x9C8D69C5 EQ PUSH2 0xF8 JUMPI DUP1 PUSH4 0xD86F77FC EQ PUSH2 0x11F JUMPI DUP1 PUSH4 0xF2FDE38B EQ PUSH2 0x132 JUMPI PUSH0 PUSH0 REVERT JUMPDEST DUP1 PUSH4 0x1DE933C7 EQ PUSH2 0x89 JUMPI DUP1 PUSH4 0x335B7FA2 EQ PUSH2 0x9E JUMPI DUP1 PUSH4 0x5AF82ABF EQ PUSH2 0xCD JUMPI DUP1 PUSH4 0x715018A6 EQ PUSH2 0xE0 JUMPI JUMPDEST PUSH0 PUSH0 REVERT JUMPDEST PUSH2 0x9C PUSH2 0x97 CALLDATASIZE PUSH1 0x4 PUSH2 0x50E JUMP JUMPDEST PUSH2 0x145 JUMP JUMPDEST STOP JUMPDEST PUSH2 0xB1 PUSH2 0xAC CALLDATASIZE PUSH1 0x4 PUSH2 0x52E JUMP JUMPDEST PUSH2 0x196 JUMP JUMPDEST PUSH1 0x40 MLOAD PUSH1 0x1 PUSH1 0x1 PUSH1 0xA0 SHL SUB SWAP1 SWAP2 AND DUP2 MSTORE PUSH1 0x20 ADD PUSH1 0x40 MLOAD DUP1 SWAP2 SUB SWAP1 RETURN JUMPDEST PUSH1 0x2 SLOAD PUSH2 0xB1 SWAP1 PUSH1 0x1 PUSH1 0x1 PUSH1 0xA0 SHL SUB AND DUP2 JUMP JUMPDEST PUSH2 0x9C PUSH2 0x1BE JUMP JUMPDEST PUSH0 SLOAD PUSH1 0x1 PUSH1 0x1 PUSH1 0xA0 SHL SUB AND PUSH2 0xB1 JUMP JUMPDEST PUSH2 0xB1 PUSH32 0x0 DUP2 JUMP JUMPDEST PUSH2 0xB1 PUSH2 0x12D CALLDATASIZE PUSH1 0x4 PUSH2 0x545 JUMP JUMPDEST PUSH2 0x1D1 JUMP JUMPDEST PUSH2 0x9C PUSH2 0x140 CALLDATASIZE PUSH1 0x4 PUSH2 0x50E JUMP JUMPDEST PUSH2 0x391 JUMP JUMPDEST PUSH2 0x14D PUSH2 0x3D3 JUMP JUMPDEST PUSH1 0x1 PUSH1 0x1 PUSH1 0xA0 SHL SUB DUP2 AND PUSH2 0x174 JUMPI PUSH1 0x40 MLOAD PUSH4 0x74F166B PUSH1 0xE3 SHL DUP2 MSTORE PUSH1 0x4 ADD PUSH1 0x40 MLOAD DUP1 SWAP2 SUB SWAP1 REVERT JUMPDEST PUSH1 0x2 DUP1 SLOAD PUSH1 0x1 PUSH1 0x1 PUSH1 0xA0 SHL SUB NOT AND PUSH1 0x1 PUSH1 0x1 PUSH1 0xA0 SHL SUB SWAP3 SWAP1 SWAP3 AND SWAP2 SWAP1 SWAP2 OR SWAP1 SSTORE JUMP JUMPDEST PUSH1 0x1 DUP2 DUP2 SLOAD DUP2 LT PUSH2 0x1A5 JUMPI PUSH0 DUP1 REVERT JUMPDEST PUSH0 SWAP2 DUP3 MSTORE PUSH1 0x20 SWAP1 SWAP2 KECCAK256 ADD SLOAD PUSH1 0x1 PUSH1 0x1 PUSH1 0xA0 SHL SUB AND SWAP1 POP DUP2 JUMP JUMPDEST PUSH2 0x1C6 PUSH2 0x3D3 JUMP JUMPDEST PUSH2 0x1CF PUSH0 PUSH2 0x3FF JUMP JUMPDEST JUMP JUMPDEST PUSH1 0x2 SLOAD PUSH0 SWAP1 PUSH1 0x1 PUSH1 0x1 PUSH1 0xA0 SHL SUB AND CALLER EQ PUSH2 0x1FE JUMPI PUSH1 0x40 MLOAD PUSH4 0x5C378D31 PUSH1 0xE1 SHL DUP2 MSTORE PUSH1 0x4 ADD PUSH1 0x40 MLOAD DUP1 SWAP2 SUB SWAP1 REVERT JUMPDEST PUSH0 DUP4 GT PUSH2 0x21E JUMPI PUSH1 0x40 MLOAD PUSH4 0x10E41573 PUSH1 0xE2 SHL DUP2 MSTORE PUSH1 0x4 ADD PUSH1 0x40 MLOAD DUP1 SWAP2 SUB SWAP1 REVERT JUMPDEST PUSH1 0x1 PUSH1 0x1 PUSH1 0xA0 SHL SUB DUP3 AND PUSH2 0x245 JUMPI PUSH1 0x40 MLOAD PUSH4 0xE3588063 PUSH1 0xE0 SHL DUP2 MSTORE PUSH1 0x4 ADD PUSH1 0x40 MLOAD DUP1 SWAP2 SUB SWAP1 REVERT JUMPDEST DUP4 PUSH2 0x263 JUMPI PUSH1 0x40 MLOAD PUSH4 0x9DD854D3 PUSH1 0xE0 SHL DUP2 MSTORE PUSH1 0x4 ADD PUSH1 0x40 MLOAD DUP1 SWAP2 SUB SWAP1 REVERT JUMPDEST PUSH0 PUSH2 0x296 PUSH32 0x0 PUSH1 0x1 PUSH1 0x1 PUSH1 0xA0 SHL SUB AND PUSH2 0x44E JUMP JUMPDEST PUSH1 0x2 SLOAD PUSH1 0x40 MLOAD PUSH4 0x5F761675 PUSH1 0xE0 SHL DUP2 MSTORE PUSH1 0x1 PUSH1 0x1 PUSH1 0xA0 SHL SUB SWAP2 DUP3 AND PUSH1 0x4 DUP3 ADD MSTORE PUSH1 0x24 DUP2 ADD DUP8 SWAP1 MSTORE DUP6 DUP3 AND PUSH1 0x44 DUP3 ADD MSTORE PUSH1 0x64 DUP2 ADD DUP9 SWAP1 MSTORE SWAP2 SWAP3 POP DUP3 AND SWAP1 PUSH4 0x5F761675 SWAP1 PUSH1 0x84 ADD PUSH0 PUSH1 0x40 MLOAD DUP1 DUP4 SUB DUP2 PUSH0 DUP8 DUP1 EXTCODESIZE ISZERO DUP1 ISZERO PUSH2 0x2F2 JUMPI PUSH0 PUSH0 REVERT JUMPDEST POP GAS CALL ISZERO DUP1 ISZERO PUSH2 0x304 JUMPI RETURNDATASIZE PUSH0 PUSH0 RETURNDATACOPY RETURNDATASIZE PUSH0 REVERT JUMPDEST POP POP PUSH1 0x1 DUP1 SLOAD DUP1 DUP3 ADD DUP3 SSTORE PUSH0 SWAP2 SWAP1 SWAP2 MSTORE PUSH32 0xB10E2D527612073B26EECDFD717E6A320CF44B4AFAC2B0732D9FCBE2B7FA0CF6 ADD DUP1 SLOAD PUSH1 0x1 PUSH1 0x1 PUSH1 0xA0 SHL SUB NOT AND PUSH1 0x1 PUSH1 0x1 PUSH1 0xA0 SHL SUB DUP6 AND SWAP1 DUP2 OR SWAP1 SWAP2 SSTORE PUSH1 0x40 MLOAD DUP8 DUP2 MSTORE SWAP1 SWAP3 POP PUSH32 0xA99C90577B80D735A56496629133B35ECC581A0E5D29B949147BBCA7730E6D5A SWAP2 POP PUSH1 0x20 ADD PUSH1 0x40 MLOAD DUP1 SWAP2 SUB SWAP1 LOG2 SWAP5 SWAP4 POP POP POP POP JUMP JUMPDEST PUSH2 0x399 PUSH2 0x3D3 JUMP JUMPDEST PUSH1 0x1 PUSH1 0x1 PUSH1 0xA0 SHL SUB DUP2 AND PUSH2 0x3C7 JUMPI PUSH1 0x40 MLOAD PUSH4 0x1E4FBDF7 PUSH1 0xE0 SHL DUP2 MSTORE PUSH0 PUSH1 0x4 DUP3 ADD MSTORE PUSH1 0x24 ADD JUMPDEST PUSH1 0x40 MLOAD DUP1 SWAP2 SUB SWAP1 REVERT JUMPDEST PUSH2 0x3D0 DUP2 PUSH2 0x3FF JUMP JUMPDEST POP JUMP JUMPDEST PUSH0 SLOAD PUSH1 0x1 PUSH1 0x1 PUSH1 0xA0 SHL SUB AND CALLER EQ PUSH2 0x1CF JUMPI PUSH1 0x40 MLOAD PUSH4 0x118CDAA7 PUSH1 0xE0 SHL DUP2 MSTORE CALLER PUSH1 0x4 DUP3 ADD MSTORE PUSH1 0x24 ADD PUSH2 0x3BE JUMP JUMPDEST PUSH0 DUP1 SLOAD PUSH1 0x1 PUSH1 0x1 PUSH1 0xA0 SHL SUB DUP4 DUP2 AND PUSH1 0x1 PUSH1 0x1 PUSH1 0xA0 SHL SUB NOT DUP4 AND DUP2 OR DUP5 SSTORE PUSH1 0x40 MLOAD SWAP2 SWAP1 SWAP3 AND SWAP3 DUP4 SWAP2 PUSH32 0x8BE0079C531659141344CD1FD0A4F28419497F9722A3DAAFE3B4186F6B6457E0 SWAP2 SWAP1 LOG3 POP POP JUMP JUMPDEST PUSH0 PUSH2 0x459 DUP3 PUSH0 PUSH2 0x45F JUMP JUMPDEST SWAP3 SWAP2 POP POP JUMP JUMPDEST PUSH0 DUP2 SELFBALANCE LT ISZERO PUSH2 0x48A JUMPI PUSH1 0x40 MLOAD PUSH4 0xCF479181 PUSH1 0xE0 SHL DUP2 MSTORE SELFBALANCE PUSH1 0x4 DUP3 ADD MSTORE PUSH1 0x24 DUP2 ADD DUP4 SWAP1 MSTORE PUSH1 0x44 ADD PUSH2 0x3BE JUMP JUMPDEST PUSH23 0x3D602D80600A3D3981F3363D3D373D3D3D363D73000000 DUP4 PUSH1 0x60 SHL PUSH1 0xE8 SHR OR PUSH0 MSTORE PUSH15 0x5AF43D82803E903D91602B57FD5BF3 DUP4 PUSH1 0x78 SHL OR PUSH1 0x20 MSTORE PUSH1 0x37 PUSH1 0x9 DUP4 CREATE SWAP1 POP PUSH1 0x1 PUSH1 0x1 PUSH1 0xA0 SHL SUB DUP2 AND PUSH2 0x459 JUMPI PUSH1 0x40 MLOAD PUSH4 0xB06EBF3D PUSH1 0xE0 SHL DUP2 MSTORE PUSH1 0x4 ADD PUSH1 0x40 MLOAD DUP1 SWAP2 SUB SWAP1 REVERT JUMPDEST DUP1 CALLDATALOAD PUSH1 0x1 PUSH1 0x1 PUSH1 0xA0 SHL SUB DUP2 AND DUP2 EQ PUSH2 0x509 JUMPI PUSH0 PUSH0 REVERT JUMPDEST SWAP2 SWAP1 POP JUMP JUMPDEST PUSH0 PUSH1 0x20 DUP3 DUP5 SUB SLT ISZERO PUSH2 0x51E JUMPI PUSH0 PUSH0 REVERT JUMPDEST PUSH2 0x527 DUP3 PUSH2 0x4F3 JUMP JUMPDEST SWAP4 SWAP3 POP POP POP JUMP JUMPDEST PUSH0 PUSH1 0x20 DUP3 DUP5 SUB SLT ISZERO PUSH2 0x53E JUMPI PUSH0 PUSH0 REVERT JUMPDEST POP CALLDATALOAD SWAP2 SWAP1 POP JUMP JUMPDEST PUSH0 PUSH0 PUSH0 PUSH1 0x60 DUP5 DUP7 SUB SLT ISZERO PUSH2 0x557 JUMPI PUSH0 PUSH0 REVERT JUMPDEST DUP4 CALLDATALOAD SWAP3 POP PUSH1 0x20 DUP5 ADD CALLDATALOAD SWAP2 POP PUSH2 0x56E PUSH1 0x40 DUP6 ADD PUSH2 0x4F3 JUMP JUMPDEST SWAP1 POP SWAP3 POP SWAP3 POP SWAP3 JUMP INVALID LOG2 PUSH5 0x6970667358 0x22 SLT KECCAK256 PUSH29 0x1B473940862BC67C5AE0B215BEC3AA2A9013B12A655520CDF2848C4774 SSTORE PUSH26 0x64736F6C634300081C0033000000000000000000000000000000 "
				},
				"gasEstimates": {
					"creation": {
						"codeDepositCost": "290600",
						"executionCost": "infinite",
						"totalCost": "infinite"
					},
					"external": {
						"createDispenser(bytes32,uint256,address)": "infinite",
						"director()": "2369",
						"dispenserImplementation()": "infinite",
						"dispensers(uint256)": "4622",
						"owner()": "2317",
						"renounceOwnership()": "infinite",
						"transferOwnership(address)": "28395",
						"updateDirector(address)": "26768"
					}
				},
				"methodIdentifiers": {
					"createDispenser(bytes32,uint256,address)": "d86f77fc",
					"director()": "5af82abf",
					"dispenserImplementation()": "9c8d69c5",
					"dispensers(uint256)": "335b7fa2",
					"owner()": "8da5cb5b",
					"renounceOwnership()": "715018a6",
					"transferOwnership(address)": "f2fde38b",
					"updateDirector(address)": "1de933c7"
				}
			},
			"storageLayout": {
				"storage": [
					{
						"astId": 563,
						"contract": "src/ScholarshipFactory.sol:ScholarshipFactory",
						"label": "_owner",
						"offset": 0,
						"slot": "0",
						"type": "t_address"
					},
					{
						"astId": 2704,
						"contract": "src/ScholarshipFactory.sol:ScholarshipFactory",
						"label": "dispensers",
						"offset": 0,
						"slot": "1",
						"type": "t_array(t_address)dyn_storage"
					},
					{
						"astId": 2706,
						"contract": "src/ScholarshipFactory.sol:ScholarshipFactory",
						"label": "director",
						"offset": 0,
						"slot": "2",
						"type": "t_address"
					}
				],
				"types": {
					"t_address": {
						"encoding": "inplace",
						"label": "address",
						"numberOfBytes": "20"
					},
					"t_array(t_address)dyn_storage": {
						"base": "t_address",
						"encoding": "dynamic_array",
						"label": "address[]",
						"numberOfBytes": "32"
					}
				}
			},
			"userdoc": {
				"kind": "user",
				"methods": {
					"createDispenser(bytes32,uint256,address)": {
						"notice": "Director creates a new ScholarshipDispenser clone with the specified parameters"
					},
					"updateDirector(address)": {
						"notice": "Only the admin can update the director address"
					}
				},
				"version": 1
			}
		}
	}
}