{
	"src/ScholarshipDispenser.sol": {
		"ScholarshipDispenser": {
			"abi": [
				{
					"inputs": [],
					"stateMutability": "nonpayable",
					"type": "constructor"
				},
				{
					"inputs": [],
					"name": "ETHTransferFailed",
					"type": "error"
				},
				{
					"inputs": [],
					"name": "InsufficientContractBalance",
					"type": "error"
				},
				{
					"inputs": [],
					"name": "InvalidDirectorAddress",
					"type": "error"
				},
				{
					"inputs": [],
					"name": "InvalidInitialization",
					"type": "error"
				},
				{
					"inputs": [],
					"name": "InvalidMerkleProof",
					"type": "error"
				},
				{
					"inputs": [],
					"name": "InvalidMerkleRoot",
					"type": "error"
				},
				{
					"inputs": [],
					"name": "InvalidPriceFeedAddress",
					"type": "error"
				},
				{
					"inputs": [],
					"name": "InvalidPriceFeedData",
					"type": "error"
				},
				{
					"inputs": [],
					"name": "NotInitializing",
					"type": "error"
				},
				{
					"inputs": [
						{
							"internalType": "address",
							"name": "owner",
							"type": "address"
						}
					],
					"name": "OwnableInvalidOwner",
					"type": "error"
				},
				{
					"inputs": [
						{
							"internalType": "address",
							"name": "account",
							"type": "address"
						}
					],
					"name": "OwnableUnauthorizedAccount",
					"type": "error"
				},
				{
					"inputs": [],
					"name": "StipendAlreadyClaimed",
					"type": "error"
				},
				{
					"inputs": [],
					"name": "StipendAmountMustBeGreaterThanZero",
					"type": "error"
				},
				{
					"anonymous": false,
					"inputs": [
						{
							"indexed": true,
							"internalType": "address",
							"name": "director",
							"type": "address"
						},
						{
							"indexed": false,
							"internalType": "uint256",
							"name": "amount",
							"type": "uint256"
						}
					],
					"name": "DirectorFundedStipendPayouts",
					"type": "event"
				},
				{
					"anonymous": false,
					"inputs": [
						{
							"indexed": false,
							"internalType": "uint64",
							"name": "version",
							"type": "uint64"
						}
					],
					"name": "Initialized",
					"type": "event"
				},
				{
					"anonymous": false,
					"inputs": [
						{
							"indexed": true,
							"internalType": "address",
							"name": "previousOwner",
							"type": "address"
						},
						{
							"indexed": true,
							"internalType": "address",
							"name": "newOwner",
							"type": "address"
						}
					],
					"name": "OwnershipTransferred",
					"type": "event"
				},
				{
					"anonymous": false,
					"inputs": [
						{
							"indexed": true,
							"internalType": "address",
							"name": "student",
							"type": "address"
						},
						{
							"indexed": false,
							"internalType": "uint256",
							"name": "usdAmount",
							"type": "uint256"
						},
						{
							"indexed": false,
							"internalType": "uint256",
							"name": "ethAmount",
							"type": "uint256"
						}
					],
					"name": "StipendClaimed",
					"type": "event"
				},
				{
					"anonymous": false,
					"inputs": [
						{
							"indexed": true,
							"internalType": "address",
							"name": "director",
							"type": "address"
						},
						{
							"indexed": false,
							"internalType": "uint256",
							"name": "amount",
							"type": "uint256"
						}
					],
					"name": "Withdrawn",
					"type": "event"
				},
				{
					"inputs": [
						{
							"internalType": "bytes32[]",
							"name": "merkleProof",
							"type": "bytes32[]"
						}
					],
					"name": "claimStipend",
					"outputs": [],
					"stateMutability": "nonpayable",
					"type": "function"
				},
				{
					"inputs": [
						{
							"internalType": "address",
							"name": "",
							"type": "address"
						}
					],
					"name": "claimedStipends",
					"outputs": [
						{
							"internalType": "bool",
							"name": "",
							"type": "bool"
						}
					],
					"stateMutability": "view",
					"type": "function"
				},
				{
					"inputs": [
						{
							"internalType": "address",
							"name": "_director",
							"type": "address"
						},
						{
							"internalType": "uint256",
							"name": "_usdStipendAmount",
							"type": "uint256"
						},
						{
							"internalType": "address",
							"name": "_priceFeed",
							"type": "address"
						},
						{
							"internalType": "bytes32",
							"name": "_merkleRoot",
							"type": "bytes32"
						}
					],
					"name": "initialize",
					"outputs": [],
					"stateMutability": "nonpayable",
					"type": "function"
				},
				{
					"inputs": [],
					"name": "merkleRoot",
					"outputs": [
						{
							"internalType": "bytes32",
							"name": "",
							"type": "bytes32"
						}
					],
					"stateMutability": "view",
					"type": "function"
				},
				{
					"inputs": [],
					"name": "owner",
					"outputs": [
						{
							"internalType": "address",
							"name": "",
							"type": "address"
						}
					],
					"stateMutability": "view",
					"type": "function"
				},
				{
					"inputs": [],
					"name": "priceFeed",
					"outputs": [
						{
							"internalType": "contract AggregatorV3Interface",
							"name": "",
							"type": "address"
						}
					],
					"stateMutability": "view",
					"type": "function"
				},
				{
					"inputs": [],
					"name": "renounceOwnership",
					"outputs": [],
					"stateMutability": "nonpayable",
					"type": "function"
				},
				{
					"inputs": [
						{
							"internalType": "address",
							"name": "newOwner",
							"type": "address"
						}
					],
					"name": "transferOwnership",
					"outputs": [],
					"stateMutability": "nonpayable",
					"type": "function"
				},
				{
					"inputs": [],
					"name": "usdStipendAmount",
					"outputs": [
						{
							"internalType": "uint256",
							"name": "",
							"type": "uint256"
						}
					],
					"stateMutability": "view",
					"type": "function"
				},
				{
					"inputs": [],
					"name": "withdraw",
					"outputs": [],
					"stateMutability": "nonpayable",
					"type": "function"
				},
				{
					"stateMutability": "payable",
					"type": "receive"
				}
			],
			"devdoc": {
				"errors": {
					"InvalidInitialization()": [
						{
							"details": "The contract is already initialized."
						}
					],
					"NotInitializing()": [
						{
							"details": "The contract is not initializing."
						}
					],
					"OwnableInvalidOwner(address)": [
						{
							"details": "The owner is not a valid owner account. (eg. `address(0)`)"
						}
					],
					"OwnableUnauthorizedAccount(address)": [
						{
							"details": "The caller account is not authorized to perform an operation."
						}
					]
				},
				"events": {
					"Initialized(uint64)": {
						"details": "Triggered when the contract has been initialized or reinitialized."
					}
				},
				"kind": "dev",
				"methods": {
					"claimStipend(bytes32[])": {
						"params": {
							"merkleProof": "The Merkle proof that verifies the student's eligibility"
						}
					},
					"constructor": {
						"custom:oz-upgrades-unsafe-allow": "constructor"
					},
					"initialize(address,uint256,address,bytes32)": {
						"custom:oz-upgrades-validate-as-initializer": ""
					},
					"owner()": {
						"details": "Returns the address of the current owner."
					},
					"renounceOwnership()": {
						"details": "Leaves the contract without owner. It will not be possible to call `onlyOwner` functions. Can only be called by the current owner. NOTE: Renouncing ownership will leave the contract without an owner, thereby disabling any functionality that is only available to the owner."
					},
					"transferOwnership(address)": {
						"details": "Transfers ownership of the contract to a new account (`newOwner`). Can only be called by the current owner."
					}
				},
				"version": 1
			},
			"evm": {
				"assembly": "    /* \"src/ScholarshipDispenser.sol\":368:4192  contract ScholarshipDispenser is OwnableUpgradeable {... */\n  mstore(0x40, 0x80)\n    /* \"src/ScholarshipDispenser.sol\":1292:1345  constructor() {... */\n  callvalue\n  dup1\n  iszero\n  tag_1\n  jumpi\n  revert(0x00, 0x00)\ntag_1:\n  pop\n    /* \"src/ScholarshipDispenser.sol\":1316:1338  _disableInitializers() */\n  tag_4\n    /* \"src/ScholarshipDispenser.sol\":1316:1336  _disableInitializers */\n  tag_5\n    /* \"src/ScholarshipDispenser.sol\":1316:1338  _disableInitializers() */\n  jump\t// in\ntag_4:\n    /* \"src/ScholarshipDispenser.sol\":368:4192  contract ScholarshipDispenser is OwnableUpgradeable {... */\n  jump(tag_18)\n    /* \"lib/openzeppelin-contracts-upgradeable/contracts/proxy/utils/Initializable.sol\":7709:8131  function _disableInitializers() internal virtual {... */\ntag_5:\n    /* \"lib/openzeppelin-contracts-upgradeable/contracts/proxy/utils/Initializable.sol\":3147:3213  0xf0c57e16840df040f15088dc2f81fe391c3923bec73e23a9662efc9c229c6a00 */\n  0xf0c57e16840df040f15088dc2f81fe391c3923bec73e23a9662efc9c229c6a00\n    /* \"lib/openzeppelin-contracts-upgradeable/contracts/proxy/utils/Initializable.sol\":7898:7913  $._initializing */\n  dup1\n  sload\n  0x010000000000000000\n  swap1\n  div\n  0xff\n  and\n    /* \"lib/openzeppelin-contracts-upgradeable/contracts/proxy/utils/Initializable.sol\":7894:7970  if ($._initializing) {... */\n  iszero\n  tag_10\n  jumpi\n    /* \"lib/openzeppelin-contracts-upgradeable/contracts/proxy/utils/Initializable.sol\":7936:7959  InvalidInitialization() */\n  mload(0x40)\n  shl(0xe0, 0xf92ee8a9)\n  dup2\n  mstore\n  0x04\n  add\n  mload(0x40)\n  dup1\n  swap2\n  sub\n  swap1\n  revert\n    /* \"lib/openzeppelin-contracts-upgradeable/contracts/proxy/utils/Initializable.sol\":7894:7970  if ($._initializing) {... */\ntag_10:\n    /* \"lib/openzeppelin-contracts-upgradeable/contracts/proxy/utils/Initializable.sol\":7983:7997  $._initialized */\n  dup1\n  sload\n  sub(shl(0x40, 0x01), 0x01)\n  swap1\n  dup2\n  and\n    /* \"lib/openzeppelin-contracts-upgradeable/contracts/proxy/utils/Initializable.sol\":7983:8017  $._initialized != type(uint64).max */\n  eq\n    /* \"lib/openzeppelin-contracts-upgradeable/contracts/proxy/utils/Initializable.sol\":7979:8125  if ($._initialized != type(uint64).max) {... */\n  tag_11\n  jumpi\n    /* \"lib/openzeppelin-contracts-upgradeable/contracts/proxy/utils/Initializable.sol\":8033:8066  $._initialized = type(uint64).max */\n  dup1\n  sload\n  not(sub(shl(0x40, 0x01), 0x01))\n  and\n  sub(shl(0x40, 0x01), 0x01)\n  swap1\n  dup2\n  or\n  dup3\n  sstore\n    /* \"lib/openzeppelin-contracts-upgradeable/contracts/proxy/utils/Initializable.sol\":8085:8114  Initialized(type(uint64).max) */\n  mload(0x40)\n    /* \"#utility.yul\":158:208   */\n  swap1\n  dup2\n  mstore\n    /* \"lib/openzeppelin-contracts-upgradeable/contracts/proxy/utils/Initializable.sol\":8085:8114  Initialized(type(uint64).max) */\n  0xc7f505b2f371ae2175ee4913f4499e1f2633a7b5936321eed1cdaeb6115181d2\n  swap1\n    /* \"#utility.yul\":146:148   */\n  0x20\n    /* \"#utility.yul\":131:149   */\n  add\n    /* \"lib/openzeppelin-contracts-upgradeable/contracts/proxy/utils/Initializable.sol\":8085:8114  Initialized(type(uint64).max) */\n  mload(0x40)\n  dup1\n  swap2\n  sub\n  swap1\n  log1\n    /* \"lib/openzeppelin-contracts-upgradeable/contracts/proxy/utils/Initializable.sol\":7979:8125  if ($._initialized != type(uint64).max) {... */\ntag_11:\n    /* \"lib/openzeppelin-contracts-upgradeable/contracts/proxy/utils/Initializable.sol\":7758:8131  {... */\n  pop\n    /* \"lib/openzeppelin-contracts-upgradeable/contracts/proxy/utils/Initializable.sol\":7709:8131  function _disableInitializers() internal virtual {... */\n  jump\t// out\n    /* \"#utility.yul\":14:214   */\ntag_18:\n    /* \"src/ScholarshipDispenser.sol\":368:4192  contract ScholarshipDispenser is OwnableUpgradeable {... */\n  dataSize(sub_0)\n  dup1\n  dataOffset(sub_0)\n  0x00\n  codecopy\n  0x00\n  return\nstop\n\nsub_0: assembly {\n        /* \"src/ScholarshipDispenser.sol\":368:4192  contract ScholarshipDispenser is OwnableUpgradeable {... */\n      mstore(0x40, 0x80)\n      jumpi(tag_1, lt(calldatasize, 0x04))\n      shr(0xe0, calldataload(0x00))\n      dup1\n      0x741bef1a\n      gt\n      tag_13\n      jumpi\n      dup1\n      0x741bef1a\n      eq\n      tag_8\n      jumpi\n      dup1\n      0x8da5cb5b\n      eq\n      tag_9\n      jumpi\n      dup1\n      0xe65bf545\n      eq\n      tag_10\n      jumpi\n      dup1\n      0xf2fde38b\n      eq\n      tag_11\n      jumpi\n      dup1\n      0xf32ae7dd\n      eq\n      tag_12\n      jumpi\n      revert(0x00, 0x00)\n    tag_13:\n      dup1\n      0x26317008\n      eq\n      tag_3\n      jumpi\n      dup1\n      0x2eb4a7ab\n      eq\n      tag_4\n      jumpi\n      dup1\n      0x3ccfd60b\n      eq\n      tag_5\n      jumpi\n      dup1\n      0x5f761675\n      eq\n      tag_6\n      jumpi\n      dup1\n      0x715018a6\n      eq\n      tag_7\n      jumpi\n      revert(0x00, 0x00)\n    tag_1:\n      jumpi(tag_2, calldatasize)\n        /* \"lib/openzeppelin-contracts-upgradeable/contracts/access/OwnableUpgradeable.sol\":2334:2347  _checkOwner() */\n      tag_16\n        /* \"lib/openzeppelin-contracts-upgradeable/contracts/access/OwnableUpgradeable.sol\":2334:2345  _checkOwner */\n      tag_17\n        /* \"lib/openzeppelin-contracts-upgradeable/contracts/access/OwnableUpgradeable.sol\":2334:2347  _checkOwner() */\n      jump\t// in\n    tag_16:\n        /* \"src/ScholarshipDispenser.sol\":3795:3846  DirectorFundedStipendPayouts(msg.sender, msg.value) */\n      mload(0x40)\n        /* \"src/ScholarshipDispenser.sol\":3836:3845  msg.value */\n      callvalue\n        /* \"#utility.yul\":160:185   */\n      dup2\n      mstore\n        /* \"src/ScholarshipDispenser.sol\":3824:3834  msg.sender */\n      caller\n      swap1\n        /* \"src/ScholarshipDispenser.sol\":3795:3846  DirectorFundedStipendPayouts(msg.sender, msg.value) */\n      0x9b4c4e3e326e807d75390cdfe8bcb2a5d0d15150dee428b4880742c26d28b842\n      swap1\n        /* \"#utility.yul\":148:150   */\n      0x20\n        /* \"#utility.yul\":133:151   */\n      add\n        /* \"src/ScholarshipDispenser.sol\":3795:3846  DirectorFundedStipendPayouts(msg.sender, msg.value) */\n      mload(0x40)\n      dup1\n      swap2\n      sub\n      swap1\n      log2\n        /* \"src/ScholarshipDispenser.sol\":368:4192  contract ScholarshipDispenser is OwnableUpgradeable {... */\n      stop\n    tag_2:\n      revert(0x00, 0x00)\n        /* \"src/ScholarshipDispenser.sol\":572:619  mapping(address => bool) public claimedStipends */\n    tag_3:\n      callvalue\n      dup1\n      iszero\n      tag_21\n      jumpi\n      revert(0x00, 0x00)\n    tag_21:\n      pop\n      tag_22\n      tag_23\n      calldatasize\n      0x04\n      tag_24\n      jump\t// in\n    tag_23:\n      mstore(0x20, 0x03)\n      0x00\n      swap1\n      dup2\n      mstore\n      0x40\n      swap1\n      keccak256\n      sload\n      0xff\n      and\n      dup2\n      jump\n    tag_22:\n      mload(0x40)\n        /* \"#utility.yul\":730:744   */\n      swap1\n      iszero\n        /* \"#utility.yul\":723:745   */\n      iszero\n        /* \"#utility.yul\":705:746   */\n      dup2\n      mstore\n        /* \"#utility.yul\":693:695   */\n      0x20\n        /* \"#utility.yul\":678:696   */\n      add\n        /* \"src/ScholarshipDispenser.sol\":572:619  mapping(address => bool) public claimedStipends */\n    tag_26:\n      mload(0x40)\n      dup1\n      swap2\n      sub\n      swap1\n      return\n        /* \"src/ScholarshipDispenser.sol\":541:566  bytes32 public merkleRoot */\n    tag_4:\n      callvalue\n      dup1\n      iszero\n      tag_28\n      jumpi\n      revert(0x00, 0x00)\n    tag_28:\n      pop\n      tag_29\n      sload(0x02)\n      dup2\n      jump\n    tag_29:\n      mload(0x40)\n        /* \"#utility.yul\":160:185   */\n      swap1\n      dup2\n      mstore\n        /* \"#utility.yul\":148:150   */\n      0x20\n        /* \"#utility.yul\":133:151   */\n      add\n        /* \"src/ScholarshipDispenser.sol\":541:566  bytes32 public merkleRoot */\n      tag_26\n        /* \"#utility.yul\":14:191   */\n      jump\n        /* \"src/ScholarshipDispenser.sol\":3914:4190  function withdraw() external onlyOwner {... */\n    tag_5:\n      callvalue\n      dup1\n      iszero\n      tag_33\n      jumpi\n      revert(0x00, 0x00)\n    tag_33:\n      pop\n      tag_34\n      tag_35\n      jump\t// in\n    tag_34:\n      stop\n        /* \"src/ScholarshipDispenser.sol\":1403:2027  function initialize(... */\n    tag_6:\n      callvalue\n      dup1\n      iszero\n      tag_36\n      jumpi\n      revert(0x00, 0x00)\n    tag_36:\n      pop\n      tag_34\n      tag_38\n      calldatasize\n      0x04\n      tag_39\n      jump\t// in\n    tag_38:\n      tag_40\n      jump\t// in\n        /* \"lib/openzeppelin-contracts-upgradeable/contracts/access/OwnableUpgradeable.sol\":3155:3256  function renounceOwnership() public virtual onlyOwner {... */\n    tag_7:\n      callvalue\n      dup1\n      iszero\n      tag_41\n      jumpi\n      revert(0x00, 0x00)\n    tag_41:\n      pop\n      tag_34\n      tag_43\n      jump\t// in\n        /* \"src/ScholarshipDispenser.sol\":497:535  AggregatorV3Interface public priceFeed */\n    tag_8:\n      callvalue\n      dup1\n      iszero\n      tag_44\n      jumpi\n      revert(0x00, 0x00)\n    tag_44:\n      pop\n      sload(0x01)\n      tag_45\n      swap1\n      sub(shl(0xa0, 0x01), 0x01)\n      and\n      dup2\n      jump\n    tag_45:\n      mload(0x40)\n      sub(shl(0xa0, 0x01), 0x01)\n        /* \"#utility.yul\":1533:1565   */\n      swap1\n      swap2\n      and\n        /* \"#utility.yul\":1515:1566   */\n      dup2\n      mstore\n        /* \"#utility.yul\":1503:1505   */\n      0x20\n        /* \"#utility.yul\":1488:1506   */\n      add\n        /* \"src/ScholarshipDispenser.sol\":497:535  AggregatorV3Interface public priceFeed */\n      tag_26\n        /* \"#utility.yul\":1341:1572   */\n      jump\n        /* \"lib/openzeppelin-contracts-upgradeable/contracts/access/OwnableUpgradeable.sol\":2441:2585  function owner() public view virtual returns (address) {... */\n    tag_9:\n      callvalue\n      dup1\n      iszero\n      tag_49\n      jumpi\n      revert(0x00, 0x00)\n    tag_49:\n      pop\n        /* \"lib/openzeppelin-contracts-upgradeable/contracts/access/OwnableUpgradeable.sol\":1313:1335  OwnableStorageLocation */\n      0x9016d09d72d40fdae2fd8ceac6b6234c7706214fd39c1cd1e609a0528c199300\n        /* \"lib/openzeppelin-contracts-upgradeable/contracts/access/OwnableUpgradeable.sol\":2570:2578  $._owner */\n      sload\n      sub(shl(0xa0, 0x01), 0x01)\n      and\n        /* \"lib/openzeppelin-contracts-upgradeable/contracts/access/OwnableUpgradeable.sol\":2441:2585  function owner() public view virtual returns (address) {... */\n      jump(tag_45)\n        /* \"src/ScholarshipDispenser.sol\":426:457  uint256 public usdStipendAmount */\n    tag_10:\n      callvalue\n      dup1\n      iszero\n      tag_54\n      jumpi\n      revert(0x00, 0x00)\n    tag_54:\n      pop\n      tag_29\n      sload(0x00)\n      dup2\n      jump\n        /* \"lib/openzeppelin-contracts-upgradeable/contracts/access/OwnableUpgradeable.sol\":3405:3620  function transferOwnership(address newOwner) public virtual onlyOwner {... */\n    tag_11:\n      callvalue\n      dup1\n      iszero\n      tag_58\n      jumpi\n      revert(0x00, 0x00)\n    tag_58:\n      pop\n      tag_34\n      tag_60\n      calldatasize\n      0x04\n      tag_24\n      jump\t// in\n    tag_60:\n      tag_61\n      jump\t// in\n        /* \"src/ScholarshipDispenser.sol\":2240:3252  function claimStipend(bytes32[] calldata merkleProof) external {... */\n    tag_12:\n      callvalue\n      dup1\n      iszero\n      tag_62\n      jumpi\n      revert(0x00, 0x00)\n    tag_62:\n      pop\n      tag_34\n      tag_64\n      calldatasize\n      0x04\n      tag_65\n      jump\t// in\n    tag_64:\n      tag_66\n      jump\t// in\n        /* \"lib/openzeppelin-contracts-upgradeable/contracts/access/OwnableUpgradeable.sol\":2658:2820  function _checkOwner() internal view virtual {... */\n    tag_17:\n        /* \"lib/openzeppelin-contracts-upgradeable/contracts/utils/ContextUpgradeable.sol\":966:976  msg.sender */\n      caller\n        /* \"lib/openzeppelin-contracts-upgradeable/contracts/access/OwnableUpgradeable.sol\":2717:2724  owner() */\n      tag_70\n        /* \"lib/openzeppelin-contracts-upgradeable/contracts/access/OwnableUpgradeable.sol\":1313:1335  OwnableStorageLocation */\n      0x9016d09d72d40fdae2fd8ceac6b6234c7706214fd39c1cd1e609a0528c199300\n        /* \"lib/openzeppelin-contracts-upgradeable/contracts/access/OwnableUpgradeable.sol\":2570:2578  $._owner */\n      sload\n      sub(shl(0xa0, 0x01), 0x01)\n      and\n      swap1\n        /* \"lib/openzeppelin-contracts-upgradeable/contracts/access/OwnableUpgradeable.sol\":2441:2585  function owner() public view virtual returns (address) {... */\n      jump\n        /* \"lib/openzeppelin-contracts-upgradeable/contracts/access/OwnableUpgradeable.sol\":2717:2724  owner() */\n    tag_70:\n      sub(shl(0xa0, 0x01), 0x01)\n        /* \"lib/openzeppelin-contracts-upgradeable/contracts/access/OwnableUpgradeable.sol\":2717:2740  owner() != _msgSender() */\n      and\n      eq\n        /* \"lib/openzeppelin-contracts-upgradeable/contracts/access/OwnableUpgradeable.sol\":2713:2814  if (owner() != _msgSender()) {... */\n      tag_71\n      jumpi\n        /* \"lib/openzeppelin-contracts-upgradeable/contracts/access/OwnableUpgradeable.sol\":2763:2803  OwnableUnauthorizedAccount(_msgSender()) */\n      mload(0x40)\n      shl(0xe0, 0x118cdaa7)\n      dup2\n      mstore\n        /* \"lib/openzeppelin-contracts-upgradeable/contracts/utils/ContextUpgradeable.sol\":966:976  msg.sender */\n      caller\n        /* \"lib/openzeppelin-contracts-upgradeable/contracts/access/OwnableUpgradeable.sol\":2763:2803  OwnableUnauthorizedAccount(_msgSender()) */\n      0x04\n      dup3\n      add\n        /* \"#utility.yul\":1515:1566   */\n      mstore\n        /* \"#utility.yul\":1488:1506   */\n      0x24\n      add\n        /* \"lib/openzeppelin-contracts-upgradeable/contracts/access/OwnableUpgradeable.sol\":2763:2803  OwnableUnauthorizedAccount(_msgSender()) */\n    tag_73:\n      mload(0x40)\n      dup1\n      swap2\n      sub\n      swap1\n      revert\n        /* \"lib/openzeppelin-contracts-upgradeable/contracts/access/OwnableUpgradeable.sol\":2713:2814  if (owner() != _msgSender()) {... */\n    tag_71:\n        /* \"lib/openzeppelin-contracts-upgradeable/contracts/access/OwnableUpgradeable.sol\":2658:2820  function _checkOwner() internal view virtual {... */\n      jump\t// out\n        /* \"src/ScholarshipDispenser.sol\":3914:4190  function withdraw() external onlyOwner {... */\n    tag_35:\n        /* \"lib/openzeppelin-contracts-upgradeable/contracts/access/OwnableUpgradeable.sol\":2334:2347  _checkOwner() */\n      tag_75\n        /* \"lib/openzeppelin-contracts-upgradeable/contracts/access/OwnableUpgradeable.sol\":2334:2345  _checkOwner */\n      tag_17\n        /* \"lib/openzeppelin-contracts-upgradeable/contracts/access/OwnableUpgradeable.sol\":2334:2347  _checkOwner() */\n      jump\t// in\n    tag_75:\n        /* \"src/ScholarshipDispenser.sol\":4039:4082  msg.sender.call{value: contractBalance}(\"\") */\n      mload(0x40)\n        /* \"src/ScholarshipDispenser.sol\":3989:4010  address(this).balance */\n      selfbalance\n      swap1\n        /* \"src/ScholarshipDispenser.sol\":3963:3986  uint256 contractBalance */\n      0x00\n      swap1\n        /* \"src/ScholarshipDispenser.sol\":4039:4049  msg.sender */\n      caller\n      swap1\n        /* \"src/ScholarshipDispenser.sol\":3989:4010  address(this).balance */\n      dup4\n      swap1\n        /* \"src/ScholarshipDispenser.sol\":3963:3986  uint256 contractBalance */\n      dup4\n        /* \"src/ScholarshipDispenser.sol\":4039:4082  msg.sender.call{value: contractBalance}(\"\") */\n      dup2\n        /* \"src/ScholarshipDispenser.sol\":3963:3986  uint256 contractBalance */\n      dup2\n        /* \"src/ScholarshipDispenser.sol\":4039:4082  msg.sender.call{value: contractBalance}(\"\") */\n      dup2\n        /* \"src/ScholarshipDispenser.sol\":3989:4010  address(this).balance */\n      dup6\n        /* \"src/ScholarshipDispenser.sol\":4039:4049  msg.sender */\n      dup8\n        /* \"src/ScholarshipDispenser.sol\":4039:4082  msg.sender.call{value: contractBalance}(\"\") */\n      gas\n      call\n      swap3\n      pop\n      pop\n      pop\n      returndatasize\n      dup1\n      0x00\n      dup2\n      eq\n      tag_81\n      jumpi\n      mload(0x40)\n      swap2\n      pop\n      and(add(returndatasize, 0x3f), not(0x1f))\n      dup3\n      add\n      0x40\n      mstore\n      returndatasize\n      dup3\n      mstore\n      returndatasize\n      0x00\n      0x20\n      dup5\n      add\n      returndatacopy\n      jump(tag_80)\n    tag_81:\n      0x60\n      swap2\n      pop\n    tag_80:\n      pop\n        /* \"src/ScholarshipDispenser.sol\":4020:4082  (bool success, ) = msg.sender.call{value: contractBalance}(\"\") */\n      pop\n      swap1\n      pop\n        /* \"src/ScholarshipDispenser.sol\":4100:4107  success */\n      dup1\n        /* \"src/ScholarshipDispenser.sol\":4092:4129  require(success, ETHTransferFailed()) */\n      tag_82\n      jumpi\n      mload(0x40)\n      shl(0xe0, 0xb12d13eb)\n      dup2\n      mstore\n      0x04\n      add\n      mload(0x40)\n      dup1\n      swap2\n      sub\n      swap1\n      revert\n    tag_82:\n        /* \"src/ScholarshipDispenser.sol\":4145:4183  Withdrawn(msg.sender, contractBalance) */\n      mload(0x40)\n        /* \"#utility.yul\":160:185   */\n      dup3\n      dup2\n      mstore\n        /* \"src/ScholarshipDispenser.sol\":4155:4165  msg.sender */\n      caller\n      swap1\n        /* \"src/ScholarshipDispenser.sol\":4145:4183  Withdrawn(msg.sender, contractBalance) */\n      0x7084f5476618d8e60b11ef0d7d3f06914655adb8793e28ff7f018d4c76d505d5\n      swap1\n        /* \"#utility.yul\":148:150   */\n      0x20\n        /* \"#utility.yul\":133:151   */\n      add\n        /* \"src/ScholarshipDispenser.sol\":4145:4183  Withdrawn(msg.sender, contractBalance) */\n      mload(0x40)\n      dup1\n      swap2\n      sub\n      swap1\n      log2\n        /* \"src/ScholarshipDispenser.sol\":3953:4190  {... */\n      pop\n      pop\n        /* \"src/ScholarshipDispenser.sol\":3914:4190  function withdraw() external onlyOwner {... */\n      jump\t// out\n        /* \"src/ScholarshipDispenser.sol\":1403:2027  function initialize(... */\n    tag_40:\n        /* \"lib/openzeppelin-contracts-upgradeable/contracts/proxy/utils/Initializable.sol\":4158:4188  InitializableStorage storage $ */\n      0x00\n        /* \"lib/openzeppelin-contracts-upgradeable/contracts/proxy/utils/Initializable.sol\":4191:4217  _getInitializableStorage() */\n      tag_85\n        /* \"lib/openzeppelin-contracts-upgradeable/contracts/proxy/utils/Initializable.sol\":4191:4215  _getInitializableStorage */\n      tag_86\n        /* \"lib/openzeppelin-contracts-upgradeable/contracts/proxy/utils/Initializable.sol\":4191:4217  _getInitializableStorage() */\n      jump\t// in\n    tag_85:\n        /* \"lib/openzeppelin-contracts-upgradeable/contracts/proxy/utils/Initializable.sol\":4302:4317  $._initializing */\n      dup1\n      sload\n        /* \"lib/openzeppelin-contracts-upgradeable/contracts/proxy/utils/Initializable.sol\":4158:4217  InitializableStorage storage $ = _getInitializableStorage() */\n      swap1\n      swap2\n      pop\n        /* \"lib/openzeppelin-contracts-upgradeable/contracts/proxy/utils/Initializable.sol\":4302:4317  $._initializing */\n      0xff\n      shl(0x40, 0x01)\n      dup3\n      div\n      and\n        /* \"lib/openzeppelin-contracts-upgradeable/contracts/proxy/utils/Initializable.sol\":4301:4317  !$._initializing */\n      iszero\n      swap1\n        /* \"lib/openzeppelin-contracts-upgradeable/contracts/proxy/utils/Initializable.sol\":4348:4362  $._initialized */\n      0xffffffffffffffff\n      and\n        /* \"lib/openzeppelin-contracts-upgradeable/contracts/proxy/utils/Initializable.sol\":4279:4298  bool isTopLevelCall */\n      0x00\n        /* \"lib/openzeppelin-contracts-upgradeable/contracts/proxy/utils/Initializable.sol\":4724:4740  initialized == 0 */\n      dup2\n      iszero\n        /* \"lib/openzeppelin-contracts-upgradeable/contracts/proxy/utils/Initializable.sol\":4724:4758  initialized == 0 && isTopLevelCall */\n      dup1\n      iszero\n      tag_87\n      jumpi\n      pop\n        /* \"lib/openzeppelin-contracts-upgradeable/contracts/proxy/utils/Initializable.sol\":4744:4758  isTopLevelCall */\n      dup3\n        /* \"lib/openzeppelin-contracts-upgradeable/contracts/proxy/utils/Initializable.sol\":4724:4758  initialized == 0 && isTopLevelCall */\n    tag_87:\n        /* \"lib/openzeppelin-contracts-upgradeable/contracts/proxy/utils/Initializable.sol\":4704:4758  bool initialSetup = initialized == 0 && isTopLevelCall */\n      swap1\n      pop\n        /* \"lib/openzeppelin-contracts-upgradeable/contracts/proxy/utils/Initializable.sol\":4768:4785  bool construction */\n      0x00\n        /* \"lib/openzeppelin-contracts-upgradeable/contracts/proxy/utils/Initializable.sol\":4788:4799  initialized */\n      dup3\n        /* \"lib/openzeppelin-contracts-upgradeable/contracts/proxy/utils/Initializable.sol\":4788:4804  initialized == 1 */\n      0xffffffffffffffff\n      and\n        /* \"lib/openzeppelin-contracts-upgradeable/contracts/proxy/utils/Initializable.sol\":4803:4804  1 */\n      0x01\n        /* \"lib/openzeppelin-contracts-upgradeable/contracts/proxy/utils/Initializable.sol\":4788:4804  initialized == 1 */\n      eq\n        /* \"lib/openzeppelin-contracts-upgradeable/contracts/proxy/utils/Initializable.sol\":4788:4838  initialized == 1 && address(this).code.length == 0 */\n      dup1\n      iszero\n      tag_88\n      jumpi\n      pop\n        /* \"lib/openzeppelin-contracts-upgradeable/contracts/proxy/utils/Initializable.sol\":4816:4820  this */\n      address\n        /* \"lib/openzeppelin-contracts-upgradeable/contracts/proxy/utils/Initializable.sol\":4808:4833  address(this).code.length */\n      extcodesize\n        /* \"lib/openzeppelin-contracts-upgradeable/contracts/proxy/utils/Initializable.sol\":4808:4838  address(this).code.length == 0 */\n      iszero\n        /* \"lib/openzeppelin-contracts-upgradeable/contracts/proxy/utils/Initializable.sol\":4788:4838  initialized == 1 && address(this).code.length == 0 */\n    tag_88:\n        /* \"lib/openzeppelin-contracts-upgradeable/contracts/proxy/utils/Initializable.sol\":4768:4838  bool construction = initialized == 1 && address(this).code.length == 0 */\n      swap1\n      pop\n        /* \"lib/openzeppelin-contracts-upgradeable/contracts/proxy/utils/Initializable.sol\":4854:4866  initialSetup */\n      dup2\n        /* \"lib/openzeppelin-contracts-upgradeable/contracts/proxy/utils/Initializable.sol\":4853:4866  !initialSetup */\n      iszero\n        /* \"lib/openzeppelin-contracts-upgradeable/contracts/proxy/utils/Initializable.sol\":4853:4883  !initialSetup && !construction */\n      dup1\n      iszero\n      tag_89\n      jumpi\n      pop\n        /* \"lib/openzeppelin-contracts-upgradeable/contracts/proxy/utils/Initializable.sol\":4871:4883  construction */\n      dup1\n        /* \"lib/openzeppelin-contracts-upgradeable/contracts/proxy/utils/Initializable.sol\":4870:4883  !construction */\n      iszero\n        /* \"lib/openzeppelin-contracts-upgradeable/contracts/proxy/utils/Initializable.sol\":4853:4883  !initialSetup && !construction */\n    tag_89:\n        /* \"lib/openzeppelin-contracts-upgradeable/contracts/proxy/utils/Initializable.sol\":4849:4940  if (!initialSetup && !construction) {... */\n      iszero\n      tag_90\n      jumpi\n        /* \"lib/openzeppelin-contracts-upgradeable/contracts/proxy/utils/Initializable.sol\":4906:4929  InvalidInitialization() */\n      mload(0x40)\n      shl(0xe0, 0xf92ee8a9)\n      dup2\n      mstore\n      0x04\n      add\n      mload(0x40)\n      dup1\n      swap2\n      sub\n      swap1\n      revert\n        /* \"lib/openzeppelin-contracts-upgradeable/contracts/proxy/utils/Initializable.sol\":4849:4940  if (!initialSetup && !construction) {... */\n    tag_90:\n        /* \"lib/openzeppelin-contracts-upgradeable/contracts/proxy/utils/Initializable.sol\":4949:4967  $._initialized = 1 */\n      dup5\n      sload\n      not(0xffffffffffffffff)\n      and\n        /* \"lib/openzeppelin-contracts-upgradeable/contracts/proxy/utils/Initializable.sol\":4966:4967  1 */\n      0x01\n        /* \"lib/openzeppelin-contracts-upgradeable/contracts/proxy/utils/Initializable.sol\":4949:4967  $._initialized = 1 */\n      or\n      dup6\n      sstore\n        /* \"lib/openzeppelin-contracts-upgradeable/contracts/proxy/utils/Initializable.sol\":4977:5044  if (isTopLevelCall) {... */\n      dup4\n      iszero\n      tag_91\n      jumpi\n        /* \"lib/openzeppelin-contracts-upgradeable/contracts/proxy/utils/Initializable.sol\":5011:5033  $._initializing = true */\n      dup5\n      sload\n      not(shl(0x40, 0xff))\n      and\n      shl(0x40, 0x01)\n      or\n      dup6\n      sstore\n        /* \"lib/openzeppelin-contracts-upgradeable/contracts/proxy/utils/Initializable.sol\":4977:5044  if (isTopLevelCall) {... */\n    tag_91:\n      sub(shl(0xa0, 0x01), 0x01)\n        /* \"src/ScholarshipDispenser.sol\":1585:1608  _director != address(0) */\n      dup10\n      and\n        /* \"src/ScholarshipDispenser.sol\":1577:1635  require(_director != address(0), InvalidDirectorAddress()) */\n      tag_93\n      jumpi\n      mload(0x40)\n      shl(0xe3, 0x074f166b)\n      dup2\n      mstore\n      0x04\n      add\n      mload(0x40)\n      dup1\n      swap2\n      sub\n      swap1\n      revert\n    tag_93:\n        /* \"src/ScholarshipDispenser.sol\":1673:1674  0 */\n      0x00\n        /* \"src/ScholarshipDispenser.sol\":1653:1670  _usdStipendAmount */\n      dup9\n        /* \"src/ScholarshipDispenser.sol\":1653:1674  _usdStipendAmount > 0 */\n      gt\n        /* \"src/ScholarshipDispenser.sol\":1645:1713  require(_usdStipendAmount > 0, StipendAmountMustBeGreaterThanZero()) */\n      tag_94\n      jumpi\n      mload(0x40)\n      shl(0xe2, 0x10e41573)\n      dup2\n      mstore\n      0x04\n      add\n      mload(0x40)\n      dup1\n      swap2\n      sub\n      swap1\n      revert\n    tag_94:\n      sub(shl(0xa0, 0x01), 0x01)\n        /* \"src/ScholarshipDispenser.sol\":1731:1755  _priceFeed != address(0) */\n      dup8\n      and\n        /* \"src/ScholarshipDispenser.sol\":1723:1783  require(_priceFeed != address(0), InvalidPriceFeedAddress()) */\n      tag_95\n      jumpi\n      mload(0x40)\n      shl(0xe0, 0xe3588063)\n      dup2\n      mstore\n      0x04\n      add\n      mload(0x40)\n      dup1\n      swap2\n      sub\n      swap1\n      revert\n    tag_95:\n        /* \"src/ScholarshipDispenser.sol\":1801:1812  _merkleRoot */\n      dup6\n        /* \"src/ScholarshipDispenser.sol\":1793:1848  require(_merkleRoot != bytes32(0), InvalidMerkleRoot()) */\n      tag_96\n      jumpi\n      mload(0x40)\n      shl(0xe0, 0x9dd854d3)\n      dup2\n      mstore\n      0x04\n      add\n      mload(0x40)\n      dup1\n      swap2\n      sub\n      swap1\n      revert\n    tag_96:\n        /* \"src/ScholarshipDispenser.sol\":1859:1884  __Ownable_init(_director) */\n      tag_97\n        /* \"src/ScholarshipDispenser.sol\":1874:1883  _director */\n      dup10\n        /* \"src/ScholarshipDispenser.sol\":1859:1873  __Ownable_init */\n      tag_98\n        /* \"src/ScholarshipDispenser.sol\":1859:1884  __Ownable_init(_director) */\n      jump\t// in\n    tag_97:\n        /* \"src/ScholarshipDispenser.sol\":1895:1911  usdStipendAmount */\n      0x00\n        /* \"src/ScholarshipDispenser.sol\":1895:1931  usdStipendAmount = _usdStipendAmount */\n      dup9\n      swap1\n      sstore\n        /* \"src/ScholarshipDispenser.sol\":1941:1950  priceFeed */\n      0x01\n        /* \"src/ScholarshipDispenser.sol\":1941:1986  priceFeed = AggregatorV3Interface(_priceFeed) */\n      dup1\n      sload\n      not(sub(shl(0xa0, 0x01), 0x01))\n      and\n      sub(shl(0xa0, 0x01), 0x01)\n      dup10\n      and\n      or\n      swap1\n      sstore\n        /* \"src/ScholarshipDispenser.sol\":1996:2006  merkleRoot */\n      0x02\n        /* \"src/ScholarshipDispenser.sol\":1996:2020  merkleRoot = _merkleRoot */\n      dup7\n      swap1\n      sstore\n        /* \"lib/openzeppelin-contracts-upgradeable/contracts/proxy/utils/Initializable.sol\":5064:5165  if (isTopLevelCall) {... */\n      dup4\n      iszero\n      tag_99\n      jumpi\n        /* \"lib/openzeppelin-contracts-upgradeable/contracts/proxy/utils/Initializable.sol\":5098:5121  $._initializing = false */\n      dup5\n      sload\n      not(shl(0x40, 0xff))\n      and\n      dup6\n      sstore\n        /* \"lib/openzeppelin-contracts-upgradeable/contracts/proxy/utils/Initializable.sol\":5140:5154  Initialized(1) */\n      mload(0x40)\n      0x01\n        /* \"#utility.yul\":2763:2813   */\n      dup2\n      mstore\n        /* \"lib/openzeppelin-contracts-upgradeable/contracts/proxy/utils/Initializable.sol\":5140:5154  Initialized(1) */\n      0xc7f505b2f371ae2175ee4913f4499e1f2633a7b5936321eed1cdaeb6115181d2\n      swap1\n        /* \"#utility.yul\":2751:2753   */\n      0x20\n        /* \"#utility.yul\":2736:2754   */\n      add\n        /* \"lib/openzeppelin-contracts-upgradeable/contracts/proxy/utils/Initializable.sol\":5140:5154  Initialized(1) */\n      mload(0x40)\n      dup1\n      swap2\n      sub\n      swap1\n      log1\n        /* \"lib/openzeppelin-contracts-upgradeable/contracts/proxy/utils/Initializable.sol\":5064:5165  if (isTopLevelCall) {... */\n    tag_99:\n        /* \"lib/openzeppelin-contracts-upgradeable/contracts/proxy/utils/Initializable.sol\":4092:5171  {... */\n      pop\n      pop\n      pop\n      pop\n      pop\n        /* \"src/ScholarshipDispenser.sol\":1403:2027  function initialize(... */\n      pop\n      pop\n      pop\n      pop\n      jump\t// out\n        /* \"lib/openzeppelin-contracts-upgradeable/contracts/access/OwnableUpgradeable.sol\":3155:3256  function renounceOwnership() public virtual onlyOwner {... */\n    tag_43:\n        /* \"lib/openzeppelin-contracts-upgradeable/contracts/access/OwnableUpgradeable.sol\":2334:2347  _checkOwner() */\n      tag_103\n        /* \"lib/openzeppelin-contracts-upgradeable/contracts/access/OwnableUpgradeable.sol\":2334:2345  _checkOwner */\n      tag_17\n        /* \"lib/openzeppelin-contracts-upgradeable/contracts/access/OwnableUpgradeable.sol\":2334:2347  _checkOwner() */\n      jump\t// in\n    tag_103:\n        /* \"lib/openzeppelin-contracts-upgradeable/contracts/access/OwnableUpgradeable.sol\":3219:3249  _transferOwnership(address(0)) */\n      tag_71\n        /* \"lib/openzeppelin-contracts-upgradeable/contracts/access/OwnableUpgradeable.sol\":3246:3247  0 */\n      0x00\n        /* \"lib/openzeppelin-contracts-upgradeable/contracts/access/OwnableUpgradeable.sol\":3219:3237  _transferOwnership */\n      tag_106\n        /* \"lib/openzeppelin-contracts-upgradeable/contracts/access/OwnableUpgradeable.sol\":3219:3249  _transferOwnership(address(0)) */\n      jump\t// in\n        /* \"lib/openzeppelin-contracts-upgradeable/contracts/access/OwnableUpgradeable.sol\":3405:3620  function transferOwnership(address newOwner) public virtual onlyOwner {... */\n    tag_61:\n        /* \"lib/openzeppelin-contracts-upgradeable/contracts/access/OwnableUpgradeable.sol\":2334:2347  _checkOwner() */\n      tag_111\n        /* \"lib/openzeppelin-contracts-upgradeable/contracts/access/OwnableUpgradeable.sol\":2334:2345  _checkOwner */\n      tag_17\n        /* \"lib/openzeppelin-contracts-upgradeable/contracts/access/OwnableUpgradeable.sol\":2334:2347  _checkOwner() */\n      jump\t// in\n    tag_111:\n      sub(shl(0xa0, 0x01), 0x01)\n        /* \"lib/openzeppelin-contracts-upgradeable/contracts/access/OwnableUpgradeable.sol\":3489:3511  newOwner == address(0) */\n      dup2\n      and\n        /* \"lib/openzeppelin-contracts-upgradeable/contracts/access/OwnableUpgradeable.sol\":3485:3576  if (newOwner == address(0)) {... */\n      tag_113\n      jumpi\n        /* \"lib/openzeppelin-contracts-upgradeable/contracts/access/OwnableUpgradeable.sol\":3534:3565  OwnableInvalidOwner(address(0)) */\n      mload(0x40)\n      shl(0xe0, 0x1e4fbdf7)\n      dup2\n      mstore\n        /* \"lib/openzeppelin-contracts-upgradeable/contracts/access/OwnableUpgradeable.sol\":3562:3563  0 */\n      0x00\n        /* \"lib/openzeppelin-contracts-upgradeable/contracts/access/OwnableUpgradeable.sol\":3534:3565  OwnableInvalidOwner(address(0)) */\n      0x04\n      dup3\n      add\n        /* \"#utility.yul\":1515:1566   */\n      mstore\n        /* \"#utility.yul\":1488:1506   */\n      0x24\n      add\n        /* \"lib/openzeppelin-contracts-upgradeable/contracts/access/OwnableUpgradeable.sol\":3534:3565  OwnableInvalidOwner(address(0)) */\n      tag_73\n        /* \"#utility.yul\":1341:1572   */\n      jump\n        /* \"lib/openzeppelin-contracts-upgradeable/contracts/access/OwnableUpgradeable.sol\":3485:3576  if (newOwner == address(0)) {... */\n    tag_113:\n        /* \"lib/openzeppelin-contracts-upgradeable/contracts/access/OwnableUpgradeable.sol\":3585:3613  _transferOwnership(newOwner) */\n      tag_115\n        /* \"lib/openzeppelin-contracts-upgradeable/contracts/access/OwnableUpgradeable.sol\":3604:3612  newOwner */\n      dup2\n        /* \"lib/openzeppelin-contracts-upgradeable/contracts/access/OwnableUpgradeable.sol\":3585:3603  _transferOwnership */\n      tag_106\n        /* \"lib/openzeppelin-contracts-upgradeable/contracts/access/OwnableUpgradeable.sol\":3585:3613  _transferOwnership(newOwner) */\n      jump\t// in\n    tag_115:\n        /* \"lib/openzeppelin-contracts-upgradeable/contracts/access/OwnableUpgradeable.sol\":3405:3620  function transferOwnership(address newOwner) public virtual onlyOwner {... */\n      pop\n      jump\t// out\n        /* \"src/ScholarshipDispenser.sol\":2240:3252  function claimStipend(bytes32[] calldata merkleProof) external {... */\n    tag_66:\n        /* \"src/ScholarshipDispenser.sol\":2331:2341  msg.sender */\n      caller\n        /* \"src/ScholarshipDispenser.sol\":2313:2328  address student */\n      0x00\n        /* \"src/ScholarshipDispenser.sol\":2360:2384  claimedStipends[student] */\n      dup2\n      dup2\n      mstore\n        /* \"src/ScholarshipDispenser.sol\":2360:2375  claimedStipends */\n      0x03\n        /* \"src/ScholarshipDispenser.sol\":2360:2384  claimedStipends[student] */\n      0x20\n      mstore\n      0x40\n      swap1\n      keccak256\n      sload\n      0xff\n      and\n        /* \"src/ScholarshipDispenser.sol\":2359:2384  !claimedStipends[student] */\n      iszero\n        /* \"src/ScholarshipDispenser.sol\":2351:2410  require(!claimedStipends[student], StipendAlreadyClaimed()) */\n      tag_117\n      jumpi\n      mload(0x40)\n      shl(0xe0, 0x93f5a1)\n      dup2\n      mstore\n      0x04\n      add\n      mload(0x40)\n      dup1\n      swap2\n      sub\n      swap1\n      revert\n    tag_117:\n        /* \"src/ScholarshipDispenser.sol\":2421:2433  bytes32 leaf */\n      0x00\n        /* \"src/ScholarshipDispenser.sol\":2466:2482  usdStipendAmount */\n      dup1\n      sload\n        /* \"src/ScholarshipDispenser.sol\":2446:2483  abi.encode(student, usdStipendAmount) */\n      0x40\n      dup1\n      mload\n      sub(shl(0xa0, 0x01), 0x01)\n        /* \"#utility.yul\":3016:3048   */\n      dup6\n      and\n        /* \"src/ScholarshipDispenser.sol\":2446:2483  abi.encode(student, usdStipendAmount) */\n      0x20\n      dup3\n      add\n        /* \"#utility.yul\":2998:3049   */\n      mstore\n        /* \"#utility.yul\":3065:3083   */\n      swap1\n      dup2\n      add\n        /* \"#utility.yul\":3058:3092   */\n      swap2\n      swap1\n      swap2\n      mstore\n        /* \"#utility.yul\":2971:2989   */\n      0x60\n      add\n        /* \"src/ScholarshipDispenser.sol\":2446:2483  abi.encode(student, usdStipendAmount) */\n      mload(0x40)\n      0x20\n      dup2\n      dup4\n      sub\n      sub\n      dup2\n      mstore\n      swap1\n      0x40\n      mstore\n        /* \"src/ScholarshipDispenser.sol\":2436:2484  keccak256(abi.encode(student, usdStipendAmount)) */\n      dup1\n      mload\n      swap1\n      0x20\n      add\n      keccak256\n        /* \"src/ScholarshipDispenser.sol\":2421:2484  bytes32 leaf = keccak256(abi.encode(student, usdStipendAmount)) */\n      swap1\n      pop\n        /* \"src/ScholarshipDispenser.sol\":2515:2655  MerkleProof.verify(... */\n      tag_120\n        /* \"src/ScholarshipDispenser.sol\":2551:2562  merkleProof */\n      dup5\n      dup5\n        /* \"src/ScholarshipDispenser.sol\":2515:2655  MerkleProof.verify(... */\n      dup1\n      dup1\n      0x20\n      mul\n      0x20\n      add\n      mload(0x40)\n      swap1\n      dup2\n      add\n      0x40\n      mstore\n      dup1\n      swap4\n      swap3\n      swap2\n      swap1\n      dup2\n      dup2\n      mstore\n      0x20\n      add\n      dup4\n      dup4\n      0x20\n      mul\n      dup1\n      dup3\n      dup5\n      calldatacopy\n      0x00\n      swap3\n      add\n      swap2\n      swap1\n      swap2\n      mstore\n      pop\n      pop\n        /* \"src/ScholarshipDispenser.sol\":2580:2590  merkleRoot */\n      sload(0x02)\n        /* \"src/ScholarshipDispenser.sol\":2618:2640  abi.encodePacked(leaf) */\n      0x40\n      dup1\n      mload\n      0x20\n      dup2\n      add\n        /* \"#utility.yul\":3232:3251   */\n      dup9\n      swap1\n      mstore\n        /* \"src/ScholarshipDispenser.sol\":2580:2590  merkleRoot */\n      swap2\n      swap4\n      pop\n        /* \"#utility.yul\":3267:3279   */\n      add\n      swap1\n      pop\n        /* \"src/ScholarshipDispenser.sol\":2618:2640  abi.encodePacked(leaf) */\n      mload(0x40)\n      0x20\n      dup2\n      dup4\n      sub\n      sub\n      dup2\n      mstore\n      swap1\n      0x40\n      mstore\n        /* \"src/ScholarshipDispenser.sol\":2608:2641  keccak256(abi.encodePacked(leaf)) */\n      dup1\n      mload\n      swap1\n      0x20\n      add\n      keccak256\n        /* \"src/ScholarshipDispenser.sol\":2515:2533  MerkleProof.verify */\n      tag_123\n        /* \"src/ScholarshipDispenser.sol\":2515:2655  MerkleProof.verify(... */\n      jump\t// in\n    tag_120:\n        /* \"src/ScholarshipDispenser.sol\":2494:2699  require(... */\n      tag_124\n      jumpi\n      mload(0x40)\n      shl(0xe1, 0x582f497d)\n      dup2\n      mstore\n      0x04\n      add\n      mload(0x40)\n      dup1\n      swap2\n      sub\n      swap1\n      revert\n    tag_124:\n        /* \"src/ScholarshipDispenser.sol\":2710:2727  uint256 ethAmount */\n      0x00\n        /* \"src/ScholarshipDispenser.sol\":2730:2763  convertUsdToEth(usdStipendAmount) */\n      tag_125\n        /* \"src/ScholarshipDispenser.sol\":2746:2762  usdStipendAmount */\n      sload(0x00)\n        /* \"src/ScholarshipDispenser.sol\":2730:2745  convertUsdToEth */\n      tag_126\n        /* \"src/ScholarshipDispenser.sol\":2730:2763  convertUsdToEth(usdStipendAmount) */\n      jump\t// in\n    tag_125:\n        /* \"src/ScholarshipDispenser.sol\":2710:2763  uint256 ethAmount = convertUsdToEth(usdStipendAmount) */\n      swap1\n      pop\n        /* \"src/ScholarshipDispenser.sol\":2819:2828  ethAmount */\n      dup1\n        /* \"src/ScholarshipDispenser.sol\":2794:2815  address(this).balance */\n      selfbalance\n        /* \"src/ScholarshipDispenser.sol\":2794:2828  address(this).balance >= ethAmount */\n      lt\n      iszero\n        /* \"src/ScholarshipDispenser.sol\":2773:2881  require(... */\n      tag_127\n      jumpi\n      mload(0x40)\n      shl(0xe0, 0x786e0a99)\n      dup2\n      mstore\n      0x04\n      add\n      mload(0x40)\n      dup1\n      swap2\n      sub\n      swap1\n      revert\n    tag_127:\n      sub(shl(0xa0, 0x01), 0x01)\n        /* \"src/ScholarshipDispenser.sol\":3035:3059  claimedStipends[student] */\n      dup4\n      and\n      0x00\n      dup2\n      dup2\n      mstore\n        /* \"src/ScholarshipDispenser.sol\":3035:3050  claimedStipends */\n      0x03\n        /* \"src/ScholarshipDispenser.sol\":3035:3059  claimedStipends[student] */\n      0x20\n      mstore\n      0x40\n      dup1\n      dup3\n      keccak256\n        /* \"src/ScholarshipDispenser.sol\":3035:3066  claimedStipends[student] = true */\n      dup1\n      sload\n      not(0xff)\n      and\n        /* \"src/ScholarshipDispenser.sol\":3062:3066  true */\n      0x01\n        /* \"src/ScholarshipDispenser.sol\":3035:3066  claimedStipends[student] = true */\n      or\n      swap1\n      sstore\n        /* \"src/ScholarshipDispenser.sol\":3096:3130  student.call{value: ethAmount}(\"\") */\n      mload\n        /* \"src/ScholarshipDispenser.sol\":3035:3059  claimedStipends[student] */\n      swap1\n      swap2\n      swap1\n        /* \"src/ScholarshipDispenser.sol\":3116:3125  ethAmount */\n      dup4\n      swap1\n        /* \"src/ScholarshipDispenser.sol\":3035:3059  claimedStipends[student] */\n      dup4\n        /* \"src/ScholarshipDispenser.sol\":3096:3130  student.call{value: ethAmount}(\"\") */\n      dup2\n        /* \"src/ScholarshipDispenser.sol\":3035:3059  claimedStipends[student] */\n      dup2\n        /* \"src/ScholarshipDispenser.sol\":3096:3130  student.call{value: ethAmount}(\"\") */\n      dup2\n        /* \"src/ScholarshipDispenser.sol\":3116:3125  ethAmount */\n      dup6\n        /* \"src/ScholarshipDispenser.sol\":3035:3059  claimedStipends[student] */\n      dup8\n        /* \"src/ScholarshipDispenser.sol\":3096:3130  student.call{value: ethAmount}(\"\") */\n      gas\n      call\n      swap3\n      pop\n      pop\n      pop\n      returndatasize\n      dup1\n      0x00\n      dup2\n      eq\n      tag_131\n      jumpi\n      mload(0x40)\n      swap2\n      pop\n      and(add(returndatasize, 0x3f), not(0x1f))\n      dup3\n      add\n      0x40\n      mstore\n      returndatasize\n      dup3\n      mstore\n      returndatasize\n      0x00\n      0x20\n      dup5\n      add\n      returndatacopy\n      jump(tag_130)\n    tag_131:\n      0x60\n      swap2\n      pop\n    tag_130:\n      pop\n        /* \"src/ScholarshipDispenser.sol\":3077:3130  (bool success, ) = student.call{value: ethAmount}(\"\") */\n      pop\n      swap1\n      pop\n        /* \"src/ScholarshipDispenser.sol\":3148:3155  success */\n      dup1\n        /* \"src/ScholarshipDispenser.sol\":3140:3177  require(success, ETHTransferFailed()) */\n      tag_132\n      jumpi\n      mload(0x40)\n      shl(0xe0, 0xb12d13eb)\n      dup2\n      mstore\n      0x04\n      add\n      mload(0x40)\n      dup1\n      swap2\n      sub\n      swap1\n      revert\n    tag_132:\n        /* \"src/ScholarshipDispenser.sol\":3217:3233  usdStipendAmount */\n      sload(0x00)\n        /* \"src/ScholarshipDispenser.sol\":3193:3245  StipendClaimed(student, usdStipendAmount, ethAmount) */\n      0x40\n      dup1\n      mload\n        /* \"#utility.yul\":3464:3489   */\n      swap2\n      dup3\n      mstore\n        /* \"#utility.yul\":3520:3522   */\n      0x20\n        /* \"#utility.yul\":3505:3523   */\n      dup3\n      add\n        /* \"#utility.yul\":3498:3532   */\n      dup5\n      swap1\n      mstore\n      sub(shl(0xa0, 0x01), 0x01)\n        /* \"src/ScholarshipDispenser.sol\":3193:3245  StipendClaimed(student, usdStipendAmount, ethAmount) */\n      dup7\n      and\n      swap2\n      0x4c153bd30bda7744842de8420e57ce83f3c500342b5e0363a5dad7a9132b864a\n      swap2\n        /* \"#utility.yul\":3437:3455   */\n      add\n        /* \"src/ScholarshipDispenser.sol\":3193:3245  StipendClaimed(student, usdStipendAmount, ethAmount) */\n      mload(0x40)\n      dup1\n      swap2\n      sub\n      swap1\n      log2\n        /* \"src/ScholarshipDispenser.sol\":2303:3252  {... */\n      pop\n      pop\n      pop\n      pop\n        /* \"src/ScholarshipDispenser.sol\":2240:3252  function claimStipend(bytes32[] calldata merkleProof) external {... */\n      pop\n      pop\n      jump\t// out\n        /* \"lib/openzeppelin-contracts-upgradeable/contracts/proxy/utils/Initializable.sol\":9071:9276  function _getInitializableStorage() private pure returns (InitializableStorage storage $) {... */\n    tag_86:\n        /* \"lib/openzeppelin-contracts-upgradeable/contracts/proxy/utils/Initializable.sol\":9129:9159  InitializableStorage storage $ */\n      0x00\n      dup1\n        /* \"lib/openzeppelin-contracts-upgradeable/contracts/proxy/utils/Initializable.sol\":3147:3213  0xf0c57e16840df040f15088dc2f81fe391c3923bec73e23a9662efc9c229c6a00 */\n      0xf0c57e16840df040f15088dc2f81fe391c3923bec73e23a9662efc9c229c6a00\n        /* \"lib/openzeppelin-contracts-upgradeable/contracts/proxy/utils/Initializable.sol\":9186:9213  _initializableStorageSlot() */\n    tag_137:\n        /* \"lib/openzeppelin-contracts-upgradeable/contracts/proxy/utils/Initializable.sol\":9171:9213  bytes32 slot = _initializableStorageSlot() */\n      swap3\n        /* \"lib/openzeppelin-contracts-upgradeable/contracts/proxy/utils/Initializable.sol\":9071:9276  function _getInitializableStorage() private pure returns (InitializableStorage storage $) {... */\n      swap2\n      pop\n      pop\n      jump\t// out\n        /* \"lib/openzeppelin-contracts-upgradeable/contracts/access/OwnableUpgradeable.sol\":1847:1974  function __Ownable_init(address initialOwner) internal onlyInitializing {... */\n    tag_98:\n        /* \"lib/openzeppelin-contracts-upgradeable/contracts/proxy/utils/Initializable.sol\":6929:6949  _checkInitializing() */\n      tag_140\n        /* \"lib/openzeppelin-contracts-upgradeable/contracts/proxy/utils/Initializable.sol\":6929:6947  _checkInitializing */\n      tag_141\n        /* \"lib/openzeppelin-contracts-upgradeable/contracts/proxy/utils/Initializable.sol\":6929:6949  _checkInitializing() */\n      jump\t// in\n    tag_140:\n        /* \"lib/openzeppelin-contracts-upgradeable/contracts/access/OwnableUpgradeable.sol\":1929:1967  __Ownable_init_unchained(initialOwner) */\n      tag_115\n        /* \"lib/openzeppelin-contracts-upgradeable/contracts/access/OwnableUpgradeable.sol\":1954:1966  initialOwner */\n      dup2\n        /* \"lib/openzeppelin-contracts-upgradeable/contracts/access/OwnableUpgradeable.sol\":1929:1953  __Ownable_init_unchained */\n      tag_144\n        /* \"lib/openzeppelin-contracts-upgradeable/contracts/access/OwnableUpgradeable.sol\":1929:1967  __Ownable_init_unchained(initialOwner) */\n      jump\t// in\n        /* \"lib/openzeppelin-contracts-upgradeable/contracts/access/OwnableUpgradeable.sol\":3774:4022  function _transferOwnership(address newOwner) internal virtual {... */\n    tag_106:\n        /* \"lib/openzeppelin-contracts-upgradeable/contracts/access/OwnableUpgradeable.sol\":1313:1335  OwnableStorageLocation */\n      0x9016d09d72d40fdae2fd8ceac6b6234c7706214fd39c1cd1e609a0528c199300\n        /* \"lib/openzeppelin-contracts-upgradeable/contracts/access/OwnableUpgradeable.sol\":3923:3931  $._owner */\n      dup1\n      sload\n      not(sub(shl(0xa0, 0x01), 0x01))\n        /* \"lib/openzeppelin-contracts-upgradeable/contracts/access/OwnableUpgradeable.sol\":3941:3960  $._owner = newOwner */\n      dup2\n      and\n      sub(shl(0xa0, 0x01), 0x01)\n      dup5\n      dup2\n      and\n      swap2\n      dup3\n      or\n      dup5\n      sstore\n        /* \"lib/openzeppelin-contracts-upgradeable/contracts/access/OwnableUpgradeable.sol\":3975:4015  OwnershipTransferred(oldOwner, newOwner) */\n      mload(0x40)\n        /* \"lib/openzeppelin-contracts-upgradeable/contracts/access/OwnableUpgradeable.sol\":3923:3931  $._owner */\n      swap3\n      and\n      swap2\n      dup3\n      swap1\n        /* \"lib/openzeppelin-contracts-upgradeable/contracts/access/OwnableUpgradeable.sol\":3975:4015  OwnershipTransferred(oldOwner, newOwner) */\n      0x8be0079c531659141344cd1fd0a4f28419497f9722a3daafe3b4186f6b6457e0\n      swap1\n        /* \"lib/openzeppelin-contracts-upgradeable/contracts/access/OwnableUpgradeable.sol\":3847:3871  OwnableStorage storage $ */\n      0x00\n      swap1\n        /* \"lib/openzeppelin-contracts-upgradeable/contracts/access/OwnableUpgradeable.sol\":3975:4015  OwnershipTransferred(oldOwner, newOwner) */\n      log3\n        /* \"lib/openzeppelin-contracts-upgradeable/contracts/access/OwnableUpgradeable.sol\":3837:4022  {... */\n      pop\n      pop\n        /* \"lib/openzeppelin-contracts-upgradeable/contracts/access/OwnableUpgradeable.sol\":3774:4022  function _transferOwnership(address newOwner) internal virtual {... */\n      pop\n      jump\t// out\n        /* \"lib/openzeppelin-contracts-upgradeable/lib/openzeppelin-contracts/contracts/utils/cryptography/MerkleProof.sol\":1902:2056  function verify(bytes32[] memory proof, bytes32 root, bytes32 leaf) internal pure returns (bool) {... */\n    tag_123:\n        /* \"lib/openzeppelin-contracts-upgradeable/lib/openzeppelin-contracts/contracts/utils/cryptography/MerkleProof.sol\":1993:1997  bool */\n      0x00\n        /* \"lib/openzeppelin-contracts-upgradeable/lib/openzeppelin-contracts/contracts/utils/cryptography/MerkleProof.sol\":2045:2049  root */\n      dup3\n        /* \"lib/openzeppelin-contracts-upgradeable/lib/openzeppelin-contracts/contracts/utils/cryptography/MerkleProof.sol\":2016:2041  processProof(proof, leaf) */\n      tag_149\n        /* \"lib/openzeppelin-contracts-upgradeable/lib/openzeppelin-contracts/contracts/utils/cryptography/MerkleProof.sol\":2029:2034  proof */\n      dup6\n        /* \"lib/openzeppelin-contracts-upgradeable/lib/openzeppelin-contracts/contracts/utils/cryptography/MerkleProof.sol\":2036:2040  leaf */\n      dup5\n        /* \"lib/openzeppelin-contracts-upgradeable/lib/openzeppelin-contracts/contracts/utils/cryptography/MerkleProof.sol\":2016:2028  processProof */\n      tag_150\n        /* \"lib/openzeppelin-contracts-upgradeable/lib/openzeppelin-contracts/contracts/utils/cryptography/MerkleProof.sol\":2016:2041  processProof(proof, leaf) */\n      jump\t// in\n    tag_149:\n        /* \"lib/openzeppelin-contracts-upgradeable/lib/openzeppelin-contracts/contracts/utils/cryptography/MerkleProof.sol\":2016:2049  processProof(proof, leaf) == root */\n      eq\n      swap5\n        /* \"lib/openzeppelin-contracts-upgradeable/lib/openzeppelin-contracts/contracts/utils/cryptography/MerkleProof.sol\":1902:2056  function verify(bytes32[] memory proof, bytes32 root, bytes32 leaf) internal pure returns (bool) {... */\n      swap4\n      pop\n      pop\n      pop\n      pop\n      jump\t// out\n        /* \"src/ScholarshipDispenser.sol\":3258:3618  function convertUsdToEth(... */\n    tag_126:\n        /* \"src/ScholarshipDispenser.sol\":3346:3353  uint256 */\n      0x00\n        /* \"src/ScholarshipDispenser.sol\":3368:3380  int256 price */\n      0x00\n        /* \"src/ScholarshipDispenser.sol\":3390:3399  priceFeed */\n      0x01\n      0x00\n      swap1\n      sload\n      swap1\n      0x0100\n      exp\n      swap1\n      div\n      sub(shl(0xa0, 0x01), 0x01)\n      and\n      sub(shl(0xa0, 0x01), 0x01)\n        /* \"src/ScholarshipDispenser.sol\":3390:3415  priceFeed.latestRoundData */\n      and\n      0xfeaf968c\n        /* \"src/ScholarshipDispenser.sol\":3390:3417  priceFeed.latestRoundData() */\n      mload(0x40)\n      dup2\n      0xffffffff\n      and\n      0xe0\n      shl\n      dup2\n      mstore\n      0x04\n      add\n      0xa0\n      mload(0x40)\n      dup1\n      dup4\n      sub\n      dup2\n      dup7\n      gas\n      staticcall\n      iszero\n      dup1\n      iszero\n      tag_153\n      jumpi\n      returndatacopy(0x00, 0x00, returndatasize)\n      revert(0x00, returndatasize)\n    tag_153:\n      pop\n      pop\n      pop\n      pop\n      mload(0x40)\n      returndatasize\n      not(0x1f)\n      0x1f\n      dup3\n      add\n      and\n      dup3\n      add\n      dup1\n      0x40\n      mstore\n      pop\n      dup2\n      add\n      swap1\n      tag_154\n      swap2\n      swap1\n      tag_155\n      jump\t// in\n    tag_154:\n        /* \"src/ScholarshipDispenser.sol\":3365:3417  (, int256 price, , , ) = priceFeed.latestRoundData() */\n      pop\n      pop\n      pop\n      swap2\n      pop\n      pop\n        /* \"src/ScholarshipDispenser.sol\":3443:3444  0 */\n      0x00\n        /* \"src/ScholarshipDispenser.sol\":3435:3440  price */\n      dup2\n        /* \"src/ScholarshipDispenser.sol\":3435:3444  price > 0 */\n      sgt\n        /* \"src/ScholarshipDispenser.sol\":3427:3469  require(price > 0, InvalidPriceFeedData()) */\n      tag_156\n      jumpi\n      mload(0x40)\n      shl(0xe0, 0x96187bd5)\n      dup2\n      mstore\n      0x04\n      add\n      mload(0x40)\n      dup1\n      swap2\n      sub\n      swap1\n      revert\n    tag_156:\n        /* \"src/ScholarshipDispenser.sol\":3605:3610  price */\n      dup1\n        /* \"src/ScholarshipDispenser.sol\":3566:3592  usdAmountInCents * 10 ** 6 */\n      tag_157\n        /* \"src/ScholarshipDispenser.sol\":3566:3582  usdAmountInCents */\n      dup5\n        /* \"src/ScholarshipDispenser.sol\":3585:3592  10 ** 6 */\n      0x0f4240\n        /* \"src/ScholarshipDispenser.sol\":3566:3592  usdAmountInCents * 10 ** 6 */\n      tag_158\n      jump\t// in\n    tag_157:\n        /* \"src/ScholarshipDispenser.sol\":3555:3593  1 ether * (usdAmountInCents * 10 ** 6) */\n      tag_159\n      swap1\n        /* \"src/ScholarshipDispenser.sol\":3555:3562  1 ether */\n      0x0de0b6b3a7640000\n        /* \"src/ScholarshipDispenser.sol\":3555:3593  1 ether * (usdAmountInCents * 10 ** 6) */\n      tag_158\n      jump\t// in\n    tag_159:\n        /* \"src/ScholarshipDispenser.sol\":3554:3611  (1 ether * (usdAmountInCents * 10 ** 6)) / uint256(price) */\n      tag_160\n      swap2\n      swap1\n      tag_161\n      jump\t// in\n    tag_160:\n        /* \"src/ScholarshipDispenser.sol\":3547:3611  return (1 ether * (usdAmountInCents * 10 ** 6)) / uint256(price) */\n      swap4\n        /* \"src/ScholarshipDispenser.sol\":3258:3618  function convertUsdToEth(... */\n      swap3\n      pop\n      pop\n      pop\n      jump\t// out\n        /* \"lib/openzeppelin-contracts-upgradeable/contracts/proxy/utils/Initializable.sol\":7082:7223  function _checkInitializing() internal view virtual {... */\n    tag_141:\n        /* \"lib/openzeppelin-contracts-upgradeable/contracts/proxy/utils/Initializable.sol\":7149:7166  _isInitializing() */\n      tag_164\n        /* \"lib/openzeppelin-contracts-upgradeable/contracts/proxy/utils/Initializable.sol\":7149:7164  _isInitializing */\n      tag_165\n        /* \"lib/openzeppelin-contracts-upgradeable/contracts/proxy/utils/Initializable.sol\":7149:7166  _isInitializing() */\n      jump\t// in\n    tag_164:\n        /* \"lib/openzeppelin-contracts-upgradeable/contracts/proxy/utils/Initializable.sol\":7144:7217  if (!_isInitializing()) {... */\n      tag_71\n      jumpi\n        /* \"lib/openzeppelin-contracts-upgradeable/contracts/proxy/utils/Initializable.sol\":7189:7206  NotInitializing() */\n      mload(0x40)\n      shl(0xe3, 0x1afcd79f)\n      dup2\n      mstore\n      0x04\n      add\n      mload(0x40)\n      dup1\n      swap2\n      sub\n      swap1\n      revert\n        /* \"lib/openzeppelin-contracts-upgradeable/contracts/access/OwnableUpgradeable.sol\":1980:2215  function __Ownable_init_unchained(address initialOwner) internal onlyInitializing {... */\n    tag_144:\n        /* \"lib/openzeppelin-contracts-upgradeable/contracts/proxy/utils/Initializable.sol\":6929:6949  _checkInitializing() */\n      tag_111\n        /* \"lib/openzeppelin-contracts-upgradeable/contracts/proxy/utils/Initializable.sol\":6929:6947  _checkInitializing */\n      tag_141\n        /* \"lib/openzeppelin-contracts-upgradeable/contracts/proxy/utils/Initializable.sol\":6929:6949  _checkInitializing() */\n      jump\t// in\n        /* \"lib/openzeppelin-contracts-upgradeable/lib/openzeppelin-contracts/contracts/utils/cryptography/MerkleProof.sol\":2457:2765  function processProof(bytes32[] memory proof, bytes32 leaf) internal pure returns (bytes32) {... */\n    tag_150:\n        /* \"lib/openzeppelin-contracts-upgradeable/lib/openzeppelin-contracts/contracts/utils/cryptography/MerkleProof.sol\":2540:2547  bytes32 */\n      0x00\n        /* \"lib/openzeppelin-contracts-upgradeable/lib/openzeppelin-contracts/contracts/utils/cryptography/MerkleProof.sol\":2582:2586  leaf */\n      dup2\n        /* \"lib/openzeppelin-contracts-upgradeable/lib/openzeppelin-contracts/contracts/utils/cryptography/MerkleProof.sol\":2540:2547  bytes32 */\n      dup2\n        /* \"lib/openzeppelin-contracts-upgradeable/lib/openzeppelin-contracts/contracts/utils/cryptography/MerkleProof.sol\":2596:2730  for (uint256 i = 0; i < proof.length; i++) {... */\n    tag_174:\n        /* \"lib/openzeppelin-contracts-upgradeable/lib/openzeppelin-contracts/contracts/utils/cryptography/MerkleProof.sol\":2620:2625  proof */\n      dup5\n        /* \"lib/openzeppelin-contracts-upgradeable/lib/openzeppelin-contracts/contracts/utils/cryptography/MerkleProof.sol\":2620:2632  proof.length */\n      mload\n        /* \"lib/openzeppelin-contracts-upgradeable/lib/openzeppelin-contracts/contracts/utils/cryptography/MerkleProof.sol\":2616:2617  i */\n      dup2\n        /* \"lib/openzeppelin-contracts-upgradeable/lib/openzeppelin-contracts/contracts/utils/cryptography/MerkleProof.sol\":2616:2632  i < proof.length */\n      lt\n        /* \"lib/openzeppelin-contracts-upgradeable/lib/openzeppelin-contracts/contracts/utils/cryptography/MerkleProof.sol\":2596:2730  for (uint256 i = 0; i < proof.length; i++) {... */\n      iszero\n      tag_175\n      jumpi\n        /* \"lib/openzeppelin-contracts-upgradeable/lib/openzeppelin-contracts/contracts/utils/cryptography/MerkleProof.sol\":2668:2719  Hashes.commutativeKeccak256(computedHash, proof[i]) */\n      tag_177\n        /* \"lib/openzeppelin-contracts-upgradeable/lib/openzeppelin-contracts/contracts/utils/cryptography/MerkleProof.sol\":2696:2708  computedHash */\n      dup3\n        /* \"lib/openzeppelin-contracts-upgradeable/lib/openzeppelin-contracts/contracts/utils/cryptography/MerkleProof.sol\":2710:2715  proof */\n      dup7\n        /* \"lib/openzeppelin-contracts-upgradeable/lib/openzeppelin-contracts/contracts/utils/cryptography/MerkleProof.sol\":2716:2717  i */\n      dup4\n        /* \"lib/openzeppelin-contracts-upgradeable/lib/openzeppelin-contracts/contracts/utils/cryptography/MerkleProof.sol\":2710:2718  proof[i] */\n      dup2\n      mload\n      dup2\n      lt\n      tag_179\n      jumpi\n      tag_179\n      tag_180\n      jump\t// in\n    tag_179:\n      0x20\n      mul\n      0x20\n      add\n      add\n      mload\n        /* \"lib/openzeppelin-contracts-upgradeable/lib/openzeppelin-contracts/contracts/utils/cryptography/MerkleProof.sol\":2668:2695  Hashes.commutativeKeccak256 */\n      tag_181\n        /* \"lib/openzeppelin-contracts-upgradeable/lib/openzeppelin-contracts/contracts/utils/cryptography/MerkleProof.sol\":2668:2719  Hashes.commutativeKeccak256(computedHash, proof[i]) */\n      jump\t// in\n    tag_177:\n        /* \"lib/openzeppelin-contracts-upgradeable/lib/openzeppelin-contracts/contracts/utils/cryptography/MerkleProof.sol\":2653:2719  computedHash = Hashes.commutativeKeccak256(computedHash, proof[i]) */\n      swap2\n      pop\n        /* \"lib/openzeppelin-contracts-upgradeable/lib/openzeppelin-contracts/contracts/utils/cryptography/MerkleProof.sol\":2634:2637  i++ */\n      0x01\n      add\n        /* \"lib/openzeppelin-contracts-upgradeable/lib/openzeppelin-contracts/contracts/utils/cryptography/MerkleProof.sol\":2596:2730  for (uint256 i = 0; i < proof.length; i++) {... */\n      jump(tag_174)\n    tag_175:\n      pop\n        /* \"lib/openzeppelin-contracts-upgradeable/lib/openzeppelin-contracts/contracts/utils/cryptography/MerkleProof.sol\":2746:2758  computedHash */\n      swap4\n        /* \"lib/openzeppelin-contracts-upgradeable/lib/openzeppelin-contracts/contracts/utils/cryptography/MerkleProof.sol\":2457:2765  function processProof(bytes32[] memory proof, bytes32 leaf) internal pure returns (bytes32) {... */\n      swap3\n      pop\n      pop\n      pop\n      jump\t// out\n        /* \"lib/openzeppelin-contracts-upgradeable/contracts/proxy/utils/Initializable.sol\":8485:8605  function _isInitializing() internal view returns (bool) {... */\n    tag_165:\n        /* \"lib/openzeppelin-contracts-upgradeable/contracts/proxy/utils/Initializable.sol\":8535:8539  bool */\n      0x00\n        /* \"lib/openzeppelin-contracts-upgradeable/contracts/proxy/utils/Initializable.sol\":8558:8584  _getInitializableStorage() */\n      tag_183\n        /* \"lib/openzeppelin-contracts-upgradeable/contracts/proxy/utils/Initializable.sol\":8558:8582  _getInitializableStorage */\n      tag_86\n        /* \"lib/openzeppelin-contracts-upgradeable/contracts/proxy/utils/Initializable.sol\":8558:8584  _getInitializableStorage() */\n      jump\t// in\n    tag_183:\n        /* \"lib/openzeppelin-contracts-upgradeable/contracts/proxy/utils/Initializable.sol\":8558:8598  _getInitializableStorage()._initializing */\n      sload\n      shl(0x40, 0x01)\n      swap1\n      div\n      0xff\n      and\n      swap2\n      swap1\n      pop\n        /* \"lib/openzeppelin-contracts-upgradeable/contracts/proxy/utils/Initializable.sol\":8485:8605  function _isInitializing() internal view returns (bool) {... */\n      jump\t// out\n        /* \"lib/openzeppelin-contracts-upgradeable/lib/openzeppelin-contracts/contracts/utils/cryptography/Hashes.sol\":504:671  function commutativeKeccak256(bytes32 a, bytes32 b) internal pure returns (bytes32) {... */\n    tag_181:\n        /* \"lib/openzeppelin-contracts-upgradeable/lib/openzeppelin-contracts/contracts/utils/cryptography/Hashes.sol\":579:586  bytes32 */\n      0x00\n        /* \"lib/openzeppelin-contracts-upgradeable/lib/openzeppelin-contracts/contracts/utils/cryptography/Hashes.sol\":609:610  b */\n      dup2\n        /* \"lib/openzeppelin-contracts-upgradeable/lib/openzeppelin-contracts/contracts/utils/cryptography/Hashes.sol\":605:606  a */\n      dup4\n        /* \"lib/openzeppelin-contracts-upgradeable/lib/openzeppelin-contracts/contracts/utils/cryptography/Hashes.sol\":605:610  a < b */\n      lt\n        /* \"lib/openzeppelin-contracts-upgradeable/lib/openzeppelin-contracts/contracts/utils/cryptography/Hashes.sol\":605:664  a < b ? efficientKeccak256(a, b) : efficientKeccak256(b, a) */\n      tag_185\n      jumpi\n        /* \"lib/openzeppelin-contracts-upgradeable/lib/openzeppelin-contracts/contracts/utils/cryptography/Hashes.sol\":864:877  bytes32 value */\n      0x00\n        /* \"lib/openzeppelin-contracts-upgradeable/lib/openzeppelin-contracts/contracts/utils/cryptography/Hashes.sol\":928:943  mstore(0x00, a) */\n      dup3\n      dup2\n      mstore\n        /* \"lib/openzeppelin-contracts-upgradeable/lib/openzeppelin-contracts/contracts/utils/cryptography/Hashes.sol\":963:967  0x20 */\n      0x20\n        /* \"lib/openzeppelin-contracts-upgradeable/lib/openzeppelin-contracts/contracts/utils/cryptography/Hashes.sol\":956:971  mstore(0x20, b) */\n      dup5\n      swap1\n      mstore\n        /* \"lib/openzeppelin-contracts-upgradeable/lib/openzeppelin-contracts/contracts/utils/cryptography/Hashes.sol\":1009:1013  0x40 */\n      0x40\n        /* \"lib/openzeppelin-contracts-upgradeable/lib/openzeppelin-contracts/contracts/utils/cryptography/Hashes.sol\":993:1014  keccak256(0x00, 0x40) */\n      swap1\n      keccak256\n        /* \"lib/openzeppelin-contracts-upgradeable/lib/openzeppelin-contracts/contracts/utils/cryptography/Hashes.sol\":605:664  a < b ? efficientKeccak256(a, b) : efficientKeccak256(b, a) */\n      jump(tag_160)\n    tag_185:\n      pop\n        /* \"lib/openzeppelin-contracts-upgradeable/lib/openzeppelin-contracts/contracts/utils/cryptography/Hashes.sol\":864:877  bytes32 value */\n      0x00\n        /* \"lib/openzeppelin-contracts-upgradeable/lib/openzeppelin-contracts/contracts/utils/cryptography/Hashes.sol\":928:943  mstore(0x00, a) */\n      swap2\n      dup3\n      mstore\n        /* \"lib/openzeppelin-contracts-upgradeable/lib/openzeppelin-contracts/contracts/utils/cryptography/Hashes.sol\":963:967  0x20 */\n      0x20\n        /* \"lib/openzeppelin-contracts-upgradeable/lib/openzeppelin-contracts/contracts/utils/cryptography/Hashes.sol\":956:971  mstore(0x20, b) */\n      mstore\n        /* \"lib/openzeppelin-contracts-upgradeable/lib/openzeppelin-contracts/contracts/utils/cryptography/Hashes.sol\":1009:1013  0x40 */\n      0x40\n        /* \"lib/openzeppelin-contracts-upgradeable/lib/openzeppelin-contracts/contracts/utils/cryptography/Hashes.sol\":993:1014  keccak256(0x00, 0x40) */\n      swap1\n      keccak256\n      swap1\n        /* \"lib/openzeppelin-contracts-upgradeable/lib/openzeppelin-contracts/contracts/utils/cryptography/Hashes.sol\":504:671  function commutativeKeccak256(bytes32 a, bytes32 b) internal pure returns (bytes32) {... */\n      jump\t// out\n        /* \"#utility.yul\":196:369   */\n    tag_191:\n        /* \"#utility.yul\":264:284   */\n      dup1\n      calldataload\n      sub(shl(0xa0, 0x01), 0x01)\n        /* \"#utility.yul\":313:344   */\n      dup2\n      and\n        /* \"#utility.yul\":303:345   */\n      dup2\n      eq\n        /* \"#utility.yul\":293:363   */\n      tag_196\n      jumpi\n        /* \"#utility.yul\":359:360   */\n      0x00\n        /* \"#utility.yul\":356:357   */\n      0x00\n        /* \"#utility.yul\":349:361   */\n      revert\n        /* \"#utility.yul\":293:363   */\n    tag_196:\n        /* \"#utility.yul\":196:369   */\n      swap2\n      swap1\n      pop\n      jump\t// out\n        /* \"#utility.yul\":374:560   */\n    tag_24:\n        /* \"#utility.yul\":433:439   */\n      0x00\n        /* \"#utility.yul\":486:488   */\n      0x20\n        /* \"#utility.yul\":474:483   */\n      dup3\n        /* \"#utility.yul\":465:472   */\n      dup5\n        /* \"#utility.yul\":461:484   */\n      sub\n        /* \"#utility.yul\":457:489   */\n      slt\n        /* \"#utility.yul\":454:506   */\n      iszero\n      tag_198\n      jumpi\n        /* \"#utility.yul\":502:503   */\n      0x00\n        /* \"#utility.yul\":499:500   */\n      0x00\n        /* \"#utility.yul\":492:504   */\n      revert\n        /* \"#utility.yul\":454:506   */\n    tag_198:\n        /* \"#utility.yul\":525:554   */\n      tag_160\n        /* \"#utility.yul\":544:553   */\n      dup3\n        /* \"#utility.yul\":525:554   */\n      tag_191\n      jump\t// in\n        /* \"#utility.yul\":939:1336   */\n    tag_39:\n        /* \"#utility.yul\":1025:1031   */\n      0x00\n        /* \"#utility.yul\":1033:1039   */\n      0x00\n        /* \"#utility.yul\":1041:1047   */\n      0x00\n        /* \"#utility.yul\":1049:1055   */\n      0x00\n        /* \"#utility.yul\":1102:1105   */\n      0x80\n        /* \"#utility.yul\":1090:1099   */\n      dup6\n        /* \"#utility.yul\":1081:1088   */\n      dup8\n        /* \"#utility.yul\":1077:1100   */\n      sub\n        /* \"#utility.yul\":1073:1106   */\n      slt\n        /* \"#utility.yul\":1070:1123   */\n      iszero\n      tag_203\n      jumpi\n        /* \"#utility.yul\":1119:1120   */\n      0x00\n        /* \"#utility.yul\":1116:1117   */\n      0x00\n        /* \"#utility.yul\":1109:1121   */\n      revert\n        /* \"#utility.yul\":1070:1123   */\n    tag_203:\n        /* \"#utility.yul\":1142:1171   */\n      tag_204\n        /* \"#utility.yul\":1161:1170   */\n      dup6\n        /* \"#utility.yul\":1142:1171   */\n      tag_191\n      jump\t// in\n    tag_204:\n        /* \"#utility.yul\":1132:1171   */\n      swap4\n      pop\n        /* \"#utility.yul\":1218:1220   */\n      0x20\n        /* \"#utility.yul\":1207:1216   */\n      dup6\n        /* \"#utility.yul\":1203:1221   */\n      add\n        /* \"#utility.yul\":1190:1222   */\n      calldataload\n        /* \"#utility.yul\":1180:1222   */\n      swap3\n      pop\n        /* \"#utility.yul\":1241:1279   */\n      tag_205\n        /* \"#utility.yul\":1275:1277   */\n      0x40\n        /* \"#utility.yul\":1264:1273   */\n      dup7\n        /* \"#utility.yul\":1260:1278   */\n      add\n        /* \"#utility.yul\":1241:1279   */\n      tag_191\n      jump\t// in\n    tag_205:\n        /* \"#utility.yul\":939:1336   */\n      swap4\n      swap7\n      swap3\n      swap6\n      pop\n        /* \"#utility.yul\":1231:1279   */\n      swap3\n      swap4\n        /* \"#utility.yul\":1326:1328   */\n      0x60\n        /* \"#utility.yul\":1311:1329   */\n      add\n        /* \"#utility.yul\":1298:1330   */\n      calldataload\n      swap3\n      pop\n      pop\n        /* \"#utility.yul\":939:1336   */\n      jump\t// out\n        /* \"#utility.yul\":1785:2395   */\n    tag_65:\n        /* \"#utility.yul\":1871:1877   */\n      0x00\n        /* \"#utility.yul\":1879:1885   */\n      0x00\n        /* \"#utility.yul\":1932:1934   */\n      0x20\n        /* \"#utility.yul\":1920:1929   */\n      dup4\n        /* \"#utility.yul\":1911:1918   */\n      dup6\n        /* \"#utility.yul\":1907:1930   */\n      sub\n        /* \"#utility.yul\":1903:1935   */\n      slt\n        /* \"#utility.yul\":1900:1952   */\n      iszero\n      tag_209\n      jumpi\n        /* \"#utility.yul\":1948:1949   */\n      0x00\n        /* \"#utility.yul\":1945:1946   */\n      0x00\n        /* \"#utility.yul\":1938:1950   */\n      revert\n        /* \"#utility.yul\":1900:1952   */\n    tag_209:\n        /* \"#utility.yul\":1988:1997   */\n      dup3\n        /* \"#utility.yul\":1975:1998   */\n      calldataload\n        /* \"#utility.yul\":2021:2039   */\n      0xffffffffffffffff\n        /* \"#utility.yul\":2013:2019   */\n      dup2\n        /* \"#utility.yul\":2010:2040   */\n      gt\n        /* \"#utility.yul\":2007:2057   */\n      iszero\n      tag_210\n      jumpi\n        /* \"#utility.yul\":2053:2054   */\n      0x00\n        /* \"#utility.yul\":2050:2051   */\n      0x00\n        /* \"#utility.yul\":2043:2055   */\n      revert\n        /* \"#utility.yul\":2007:2057   */\n    tag_210:\n        /* \"#utility.yul\":2076:2098   */\n      dup4\n      add\n        /* \"#utility.yul\":2129:2133   */\n      0x1f\n        /* \"#utility.yul\":2121:2134   */\n      dup2\n      add\n        /* \"#utility.yul\":2117:2144   */\n      dup6\n      sgt\n        /* \"#utility.yul\":2107:2162   */\n      tag_211\n      jumpi\n        /* \"#utility.yul\":2158:2159   */\n      0x00\n        /* \"#utility.yul\":2155:2156   */\n      0x00\n        /* \"#utility.yul\":2148:2160   */\n      revert\n        /* \"#utility.yul\":2107:2162   */\n    tag_211:\n        /* \"#utility.yul\":2198:2200   */\n      dup1\n        /* \"#utility.yul\":2185:2201   */\n      calldataload\n        /* \"#utility.yul\":2224:2242   */\n      0xffffffffffffffff\n        /* \"#utility.yul\":2216:2222   */\n      dup2\n        /* \"#utility.yul\":2213:2243   */\n      gt\n        /* \"#utility.yul\":2210:2260   */\n      iszero\n      tag_212\n      jumpi\n        /* \"#utility.yul\":2256:2257   */\n      0x00\n        /* \"#utility.yul\":2253:2254   */\n      0x00\n        /* \"#utility.yul\":2246:2258   */\n      revert\n        /* \"#utility.yul\":2210:2260   */\n    tag_212:\n        /* \"#utility.yul\":2309:2316   */\n      dup6\n        /* \"#utility.yul\":2304:2306   */\n      0x20\n        /* \"#utility.yul\":2294:2300   */\n      dup3\n        /* \"#utility.yul\":2291:2292   */\n      0x05\n        /* \"#utility.yul\":2287:2301   */\n      shl\n        /* \"#utility.yul\":2283:2285   */\n      dup5\n        /* \"#utility.yul\":2279:2302   */\n      add\n        /* \"#utility.yul\":2275:2307   */\n      add\n        /* \"#utility.yul\":2272:2317   */\n      gt\n        /* \"#utility.yul\":2269:2334   */\n      iszero\n      tag_213\n      jumpi\n        /* \"#utility.yul\":2330:2331   */\n      0x00\n        /* \"#utility.yul\":2327:2328   */\n      0x00\n        /* \"#utility.yul\":2320:2332   */\n      revert\n        /* \"#utility.yul\":2269:2334   */\n    tag_213:\n        /* \"#utility.yul\":2361:2363   */\n      0x20\n        /* \"#utility.yul\":2353:2364   */\n      swap2\n      swap1\n      swap2\n      add\n      swap6\n        /* \"#utility.yul\":2383:2389   */\n      swap1\n      swap5\n      pop\n        /* \"#utility.yul\":1785:2395   */\n      swap3\n      pop\n      pop\n      pop\n      jump\t// out\n        /* \"#utility.yul\":3543:3722   */\n    tag_192:\n        /* \"#utility.yul\":3621:3634   */\n      dup1\n      mload\n        /* \"#utility.yul\":3674:3696   */\n      0xffffffffffffffffffff\n        /* \"#utility.yul\":3663:3697   */\n      dup2\n      and\n        /* \"#utility.yul\":3653:3698   */\n      dup2\n      eq\n        /* \"#utility.yul\":3643:3716   */\n      tag_196\n      jumpi\n        /* \"#utility.yul\":3712:3713   */\n      0x00\n        /* \"#utility.yul\":3709:3710   */\n      0x00\n        /* \"#utility.yul\":3702:3714   */\n      revert\n        /* \"#utility.yul\":3727:4298   */\n    tag_155:\n        /* \"#utility.yul\":3830:3836   */\n      0x00\n        /* \"#utility.yul\":3838:3844   */\n      0x00\n        /* \"#utility.yul\":3846:3852   */\n      0x00\n        /* \"#utility.yul\":3854:3860   */\n      0x00\n        /* \"#utility.yul\":3862:3868   */\n      0x00\n        /* \"#utility.yul\":3915:3918   */\n      0xa0\n        /* \"#utility.yul\":3903:3912   */\n      dup7\n        /* \"#utility.yul\":3894:3901   */\n      dup9\n        /* \"#utility.yul\":3890:3913   */\n      sub\n        /* \"#utility.yul\":3886:3919   */\n      slt\n        /* \"#utility.yul\":3883:3936   */\n      iszero\n      tag_222\n      jumpi\n        /* \"#utility.yul\":3932:3933   */\n      0x00\n        /* \"#utility.yul\":3929:3930   */\n      0x00\n        /* \"#utility.yul\":3922:3934   */\n      revert\n        /* \"#utility.yul\":3883:3936   */\n    tag_222:\n        /* \"#utility.yul\":3955:3994   */\n      tag_223\n        /* \"#utility.yul\":3984:3993   */\n      dup7\n        /* \"#utility.yul\":3955:3994   */\n      tag_192\n      jump\t// in\n    tag_223:\n        /* \"#utility.yul\":4034:4036   */\n      0x20\n        /* \"#utility.yul\":4019:4037   */\n      dup8\n      add\n        /* \"#utility.yul\":4013:4038   */\n      mload\n        /* \"#utility.yul\":4100:4102   */\n      0x40\n        /* \"#utility.yul\":4085:4103   */\n      dup9\n      add\n        /* \"#utility.yul\":4079:4104   */\n      mload\n        /* \"#utility.yul\":4194:4196   */\n      0x60\n        /* \"#utility.yul\":4179:4197   */\n      dup10\n      add\n        /* \"#utility.yul\":4173:4198   */\n      mload\n        /* \"#utility.yul\":3945:3994   */\n      swap3\n      swap8\n      pop\n        /* \"#utility.yul\":4013:4038   */\n      swap1\n      swap6\n      pop\n        /* \"#utility.yul\":4079:4104   */\n      swap4\n      pop\n        /* \"#utility.yul\":4173:4198   */\n      swap2\n      pop\n        /* \"#utility.yul\":4243:4292   */\n      tag_224\n        /* \"#utility.yul\":4287:4290   */\n      0x80\n        /* \"#utility.yul\":4272:4291   */\n      dup8\n      add\n        /* \"#utility.yul\":4243:4292   */\n      tag_192\n      jump\t// in\n    tag_224:\n        /* \"#utility.yul\":4233:4292   */\n      swap1\n      pop\n        /* \"#utility.yul\":3727:4298   */\n      swap3\n      swap6\n      pop\n      swap3\n      swap6\n      swap1\n      swap4\n      pop\n      jump\t// out\n        /* \"#utility.yul\":4303:4568   */\n    tag_158:\n        /* \"#utility.yul\":4376:4385   */\n      dup1\n      dup3\n      mul\n        /* \"#utility.yul\":4407:4416   */\n      dup2\n      iszero\n        /* \"#utility.yul\":4424:4439   */\n      dup3\n      dup3\n      div\n        /* \"#utility.yul\":4418:4440   */\n      dup5\n      eq\n        /* \"#utility.yul\":4404:4441   */\n      or\n        /* \"#utility.yul\":4394:4562   */\n      tag_137\n      jumpi\n        /* \"#utility.yul\":4484:4494   */\n      0x4e487b71\n        /* \"#utility.yul\":4479:4482   */\n      0xe0\n        /* \"#utility.yul\":4475:4495   */\n      shl\n        /* \"#utility.yul\":4472:4473   */\n      0x00\n        /* \"#utility.yul\":4465:4496   */\n      mstore\n        /* \"#utility.yul\":4519:4523   */\n      0x11\n        /* \"#utility.yul\":4516:4517   */\n      0x04\n        /* \"#utility.yul\":4509:4524   */\n      mstore\n        /* \"#utility.yul\":4547:4551   */\n      0x24\n        /* \"#utility.yul\":4544:4545   */\n      0x00\n        /* \"#utility.yul\":4537:4552   */\n      revert\n        /* \"#utility.yul\":4573:4790   */\n    tag_161:\n        /* \"#utility.yul\":4613:4614   */\n      0x00\n        /* \"#utility.yul\":4639:4640   */\n      dup3\n        /* \"#utility.yul\":4629:4761   */\n      tag_228\n      jumpi\n        /* \"#utility.yul\":4683:4693   */\n      0x4e487b71\n        /* \"#utility.yul\":4678:4681   */\n      0xe0\n        /* \"#utility.yul\":4674:4694   */\n      shl\n        /* \"#utility.yul\":4671:4672   */\n      0x00\n        /* \"#utility.yul\":4664:4695   */\n      mstore\n        /* \"#utility.yul\":4718:4722   */\n      0x12\n        /* \"#utility.yul\":4715:4716   */\n      0x04\n        /* \"#utility.yul\":4708:4723   */\n      mstore\n        /* \"#utility.yul\":4746:4750   */\n      0x24\n        /* \"#utility.yul\":4743:4744   */\n      0x00\n        /* \"#utility.yul\":4736:4751   */\n      revert\n        /* \"#utility.yul\":4629:4761   */\n    tag_228:\n      pop\n        /* \"#utility.yul\":4775:4784   */\n      div\n      swap1\n        /* \"#utility.yul\":4573:4790   */\n      jump\t// out\n        /* \"#utility.yul\":4795:4922   */\n    tag_180:\n        /* \"#utility.yul\":4856:4866   */\n      0x4e487b71\n        /* \"#utility.yul\":4851:4854   */\n      0xe0\n        /* \"#utility.yul\":4847:4867   */\n      shl\n        /* \"#utility.yul\":4844:4845   */\n      0x00\n        /* \"#utility.yul\":4837:4868   */\n      mstore\n        /* \"#utility.yul\":4887:4891   */\n      0x32\n        /* \"#utility.yul\":4884:4885   */\n      0x04\n        /* \"#utility.yul\":4877:4892   */\n      mstore\n        /* \"#utility.yul\":4911:4915   */\n      0x24\n        /* \"#utility.yul\":4908:4909   */\n      0x00\n        /* \"#utility.yul\":4901:4916   */\n      revert\n\n    auxdata: 0xa26469706673582212203ef0aff726233f8665610cb414e40943fb435c556ee5b979a0af1864612c80a864736f6c634300081c0033\n}\n",
				"bytecode": {
					"linkReferences": {},
					"object": "6080604052348015600e575f5ffd5b5060156019565b60c9565b7ff0c57e16840df040f15088dc2f81fe391c3923bec73e23a9662efc9c229c6a00805468010000000000000000900460ff161560685760405163f92ee8a960e01b815260040160405180910390fd5b80546001600160401b039081161460c65780546001600160401b0319166001600160401b0390811782556040519081527fc7f505b2f371ae2175ee4913f4499e1f2633a7b5936321eed1cdaeb6115181d29060200160405180910390a15b50565b610b52806100d65f395ff3fe608060405260043610610092575f3560e01c8063741bef1a11610057578063741bef1a146101895780638da5cb5b146101c0578063e65bf545146101fc578063f2fde38b14610210578063f32ae7dd1461022f575f5ffd5b806326317008146100da5780632eb4a7ab1461011d5780633ccfd60b146101405780635f76167514610156578063715018a614610175575f5ffd5b366100d65761009f61024e565b60405134815233907f9b4c4e3e326e807d75390cdfe8bcb2a5d0d15150dee428b4880742c26d28b8429060200160405180910390a2005b5f5ffd5b3480156100e5575f5ffd5b506101086100f4366004610994565b60036020525f908152604090205460ff1681565b60405190151581526020015b60405180910390f35b348015610128575f5ffd5b5061013260025481565b604051908152602001610114565b34801561014b575f5ffd5b506101546102b0565b005b348015610161575f5ffd5b506101546101703660046109ad565b610359565b348015610180575f5ffd5b50610154610505565b348015610194575f5ffd5b506001546101a8906001600160a01b031681565b6040516001600160a01b039091168152602001610114565b3480156101cb575f5ffd5b507f9016d09d72d40fdae2fd8ceac6b6234c7706214fd39c1cd1e609a0528c199300546001600160a01b03166101a8565b348015610207575f5ffd5b506101325f5481565b34801561021b575f5ffd5b5061015461022a366004610994565b610516565b34801561023a575f5ffd5b506101546102493660046109ee565b610553565b336102807f9016d09d72d40fdae2fd8ceac6b6234c7706214fd39c1cd1e609a0528c199300546001600160a01b031690565b6001600160a01b0316146102ae5760405163118cdaa760e01b81523360048201526024015b60405180910390fd5b565b6102b861024e565b60405147905f90339083908381818185875af1925050503d805f81146102f9576040519150601f19603f3d011682016040523d82523d5f602084013e6102fe565b606091505b50509050806103205760405163b12d13eb60e01b815260040160405180910390fd5b60405182815233907f7084f5476618d8e60b11ef0d7d3f06914655adb8793e28ff7f018d4c76d505d59060200160405180910390a25050565b5f61036261073b565b805490915060ff600160401b820416159067ffffffffffffffff165f811580156103895750825b90505f8267ffffffffffffffff1660011480156103a55750303b155b9050811580156103b3575080155b156103d15760405163f92ee8a960e01b815260040160405180910390fd5b845467ffffffffffffffff1916600117855583156103fb57845460ff60401b1916600160401b1785555b6001600160a01b0389166104225760405163074f166b60e31b815260040160405180910390fd5b5f8811610442576040516310e4157360e21b815260040160405180910390fd5b6001600160a01b0387166104695760405163e358806360e01b815260040160405180910390fd5b8561048757604051639dd854d360e01b815260040160405180910390fd5b61049089610765565b5f889055600180546001600160a01b0319166001600160a01b038916179055600286905583156104fa57845460ff60401b19168555604051600181527fc7f505b2f371ae2175ee4913f4499e1f2633a7b5936321eed1cdaeb6115181d29060200160405180910390a15b505050505050505050565b61050d61024e565b6102ae5f610776565b61051e61024e565b6001600160a01b03811661054757604051631e4fbdf760e01b81525f60048201526024016102a5565b61055081610776565b50565b335f8181526003602052604090205460ff1615610582576040516293f5a160e01b815260040160405180910390fd5b5f8054604080516001600160a01b03851660208201529081019190915260600160405160208183030381529060405280519060200120905061061c8484808060200260200160405190810160405280939291908181526020018383602002808284375f92019190915250506002546040805160208101889052919350019050604051602081830303815290604052805190602001206107e6565b6106395760405163582f497d60e11b815260040160405180910390fd5b5f6106445f546107fb565b9050804710156106675760405163786e0a9960e01b815260040160405180910390fd5b6001600160a01b0383165f81815260036020526040808220805460ff191660011790555190919083908381818185875af1925050503d805f81146106c6576040519150601f19603f3d011682016040523d82523d5f602084013e6106cb565b606091505b50509050806106ed5760405163b12d13eb60e01b815260040160405180910390fd5b5f5460408051918252602082018490526001600160a01b038616917f4c153bd30bda7744842de8420e57ce83f3c500342b5e0363a5dad7a9132b864a910160405180910390a2505050505050565b5f807ff0c57e16840df040f15088dc2f81fe391c3923bec73e23a9662efc9c229c6a005b92915050565b61076d6108c8565b610550816108ed565b7f9016d09d72d40fdae2fd8ceac6b6234c7706214fd39c1cd1e609a0528c19930080546001600160a01b031981166001600160a01b03848116918217845560405192169182907f8be0079c531659141344cd1fd0a4f28419497f9722a3daafe3b4186f6b6457e0905f90a3505050565b5f826107f285846108f5565b14949350505050565b5f5f60015f9054906101000a90046001600160a01b03166001600160a01b031663feaf968c6040518163ffffffff1660e01b815260040160a060405180830381865afa15801561084d573d5f5f3e3d5ffd5b505050506040513d601f19601f820116820180604052508101906108719190610a78565b5050509150505f8113610897576040516396187bd560e01b815260040160405180910390fd5b806108a584620f4240610ac6565b6108b790670de0b6b3a7640000610ac6565b6108c19190610ae9565b9392505050565b6108d0610937565b6102ae57604051631afcd79f60e31b815260040160405180910390fd5b61051e6108c8565b5f81815b845181101561092f576109258286838151811061091857610918610b08565b6020026020010151610950565b91506001016108f9565b509392505050565b5f61094061073b565b54600160401b900460ff16919050565b5f81831061096a575f8281526020849052604090206108c1565b505f9182526020526040902090565b80356001600160a01b038116811461098f575f5ffd5b919050565b5f602082840312156109a4575f5ffd5b6108c182610979565b5f5f5f5f608085870312156109c0575f5ffd5b6109c985610979565b9350602085013592506109de60408601610979565b9396929550929360600135925050565b5f5f602083850312156109ff575f5ffd5b823567ffffffffffffffff811115610a15575f5ffd5b8301601f81018513610a25575f5ffd5b803567ffffffffffffffff811115610a3b575f5ffd5b8560208260051b8401011115610a4f575f5ffd5b6020919091019590945092505050565b805169ffffffffffffffffffff8116811461098f575f5ffd5b5f5f5f5f5f60a08688031215610a8c575f5ffd5b610a9586610a5f565b60208701516040880151606089015192975090955093509150610aba60808701610a5f565b90509295509295909350565b808202811582820484141761075f57634e487b7160e01b5f52601160045260245ffd5b5f82610b0357634e487b7160e01b5f52601260045260245ffd5b500490565b634e487b7160e01b5f52603260045260245ffdfea26469706673582212203ef0aff726233f8665610cb414e40943fb435c556ee5b979a0af1864612c80a864736f6c634300081c0033",
					"opcodes": "PUSH1 0x80 PUSH1 0x40 MSTORE CALLVALUE DUP1 ISZERO PUSH1 0xE JUMPI PUSH0 PUSH0 REVERT JUMPDEST POP PUSH1 0x15 PUSH1 0x19 JUMP JUMPDEST PUSH1 0xC9 JUMP JUMPDEST PUSH32 0xF0C57E16840DF040F15088DC2F81FE391C3923BEC73E23A9662EFC9C229C6A00 DUP1 SLOAD PUSH9 0x10000000000000000 SWAP1 DIV PUSH1 0xFF AND ISZERO PUSH1 0x68 JUMPI PUSH1 0x40 MLOAD PUSH4 0xF92EE8A9 PUSH1 0xE0 SHL DUP2 MSTORE PUSH1 0x4 ADD PUSH1 0x40 MLOAD DUP1 SWAP2 SUB SWAP1 REVERT JUMPDEST DUP1 SLOAD PUSH1 0x1 PUSH1 0x1 PUSH1 0x40 SHL SUB SWAP1 DUP2 AND EQ PUSH1 0xC6 JUMPI DUP1 SLOAD PUSH1 0x1 PUSH1 0x1 PUSH1 0x40 SHL SUB NOT AND PUSH1 0x1 PUSH1 0x1 PUSH1 0x40 SHL SUB SWAP1 DUP2 OR DUP3 SSTORE PUSH1 0x40 MLOAD SWAP1 DUP2 MSTORE PUSH32 0xC7F505B2F371AE2175EE4913F4499E1F2633A7B5936321EED1CDAEB6115181D2 SWAP1 PUSH1 0x20 ADD PUSH1 0x40 MLOAD DUP1 SWAP2 SUB SWAP1 LOG1 JUMPDEST POP JUMP JUMPDEST PUSH2 0xB52 DUP1 PUSH2 0xD6 PUSH0 CODECOPY PUSH0 RETURN INVALID PUSH1 0x80 PUSH1 0x40 MSTORE PUSH1 0x4 CALLDATASIZE LT PUSH2 0x92 JUMPI PUSH0 CALLDATALOAD PUSH1 0xE0 SHR DUP1 PUSH4 0x741BEF1A GT PUSH2 0x57 JUMPI DUP1 PUSH4 0x741BEF1A EQ PUSH2 0x189 JUMPI DUP1 PUSH4 0x8DA5CB5B EQ PUSH2 0x1C0 JUMPI DUP1 PUSH4 0xE65BF545 EQ PUSH2 0x1FC JUMPI DUP1 PUSH4 0xF2FDE38B EQ PUSH2 0x210 JUMPI DUP1 PUSH4 0xF32AE7DD EQ PUSH2 0x22F JUMPI PUSH0 PUSH0 REVERT JUMPDEST DUP1 PUSH4 0x26317008 EQ PUSH2 0xDA JUMPI DUP1 PUSH4 0x2EB4A7AB EQ PUSH2 0x11D JUMPI DUP1 PUSH4 0x3CCFD60B EQ PUSH2 0x140 JUMPI DUP1 PUSH4 0x5F761675 EQ PUSH2 0x156 JUMPI DUP1 PUSH4 0x715018A6 EQ PUSH2 0x175 JUMPI PUSH0 PUSH0 REVERT JUMPDEST CALLDATASIZE PUSH2 0xD6 JUMPI PUSH2 0x9F PUSH2 0x24E JUMP JUMPDEST PUSH1 0x40 MLOAD CALLVALUE DUP2 MSTORE CALLER SWAP1 PUSH32 0x9B4C4E3E326E807D75390CDFE8BCB2A5D0D15150DEE428B4880742C26D28B842 SWAP1 PUSH1 0x20 ADD PUSH1 0x40 MLOAD DUP1 SWAP2 SUB SWAP1 LOG2 STOP JUMPDEST PUSH0 PUSH0 REVERT JUMPDEST CALLVALUE DUP1 ISZERO PUSH2 0xE5 JUMPI PUSH0 PUSH0 REVERT JUMPDEST POP PUSH2 0x108 PUSH2 0xF4 CALLDATASIZE PUSH1 0x4 PUSH2 0x994 JUMP JUMPDEST PUSH1 0x3 PUSH1 0x20 MSTORE PUSH0 SWAP1 DUP2 MSTORE PUSH1 0x40 SWAP1 KECCAK256 SLOAD PUSH1 0xFF AND DUP2 JUMP JUMPDEST PUSH1 0x40 MLOAD SWAP1 ISZERO ISZERO DUP2 MSTORE PUSH1 0x20 ADD JUMPDEST PUSH1 0x40 MLOAD DUP1 SWAP2 SUB SWAP1 RETURN JUMPDEST CALLVALUE DUP1 ISZERO PUSH2 0x128 JUMPI PUSH0 PUSH0 REVERT JUMPDEST POP PUSH2 0x132 PUSH1 0x2 SLOAD DUP2 JUMP JUMPDEST PUSH1 0x40 MLOAD SWAP1 DUP2 MSTORE PUSH1 0x20 ADD PUSH2 0x114 JUMP JUMPDEST CALLVALUE DUP1 ISZERO PUSH2 0x14B JUMPI PUSH0 PUSH0 REVERT JUMPDEST POP PUSH2 0x154 PUSH2 0x2B0 JUMP JUMPDEST STOP JUMPDEST CALLVALUE DUP1 ISZERO PUSH2 0x161 JUMPI PUSH0 PUSH0 REVERT JUMPDEST POP PUSH2 0x154 PUSH2 0x170 CALLDATASIZE PUSH1 0x4 PUSH2 0x9AD JUMP JUMPDEST PUSH2 0x359 JUMP JUMPDEST CALLVALUE DUP1 ISZERO PUSH2 0x180 JUMPI PUSH0 PUSH0 REVERT JUMPDEST POP PUSH2 0x154 PUSH2 0x505 JUMP JUMPDEST CALLVALUE DUP1 ISZERO PUSH2 0x194 JUMPI PUSH0 PUSH0 REVERT JUMPDEST POP PUSH1 0x1 SLOAD PUSH2 0x1A8 SWAP1 PUSH1 0x1 PUSH1 0x1 PUSH1 0xA0 SHL SUB AND DUP2 JUMP JUMPDEST PUSH1 0x40 MLOAD PUSH1 0x1 PUSH1 0x1 PUSH1 0xA0 SHL SUB SWAP1 SWAP2 AND DUP2 MSTORE PUSH1 0x20 ADD PUSH2 0x114 JUMP JUMPDEST CALLVALUE DUP1 ISZERO PUSH2 0x1CB JUMPI PUSH0 PUSH0 REVERT JUMPDEST POP PUSH32 0x9016D09D72D40FDAE2FD8CEAC6B6234C7706214FD39C1CD1E609A0528C199300 SLOAD PUSH1 0x1 PUSH1 0x1 PUSH1 0xA0 SHL SUB AND PUSH2 0x1A8 JUMP JUMPDEST CALLVALUE DUP1 ISZERO PUSH2 0x207 JUMPI PUSH0 PUSH0 REVERT JUMPDEST POP PUSH2 0x132 PUSH0 SLOAD DUP2 JUMP JUMPDEST CALLVALUE DUP1 ISZERO PUSH2 0x21B JUMPI PUSH0 PUSH0 REVERT JUMPDEST POP PUSH2 0x154 PUSH2 0x22A CALLDATASIZE PUSH1 0x4 PUSH2 0x994 JUMP JUMPDEST PUSH2 0x516 JUMP JUMPDEST CALLVALUE DUP1 ISZERO PUSH2 0x23A JUMPI PUSH0 PUSH0 REVERT JUMPDEST POP PUSH2 0x154 PUSH2 0x249 CALLDATASIZE PUSH1 0x4 PUSH2 0x9EE JUMP JUMPDEST PUSH2 0x553 JUMP JUMPDEST CALLER PUSH2 0x280 PUSH32 0x9016D09D72D40FDAE2FD8CEAC6B6234C7706214FD39C1CD1E609A0528C199300 SLOAD PUSH1 0x1 PUSH1 0x1 PUSH1 0xA0 SHL SUB AND SWAP1 JUMP JUMPDEST PUSH1 0x1 PUSH1 0x1 PUSH1 0xA0 SHL SUB AND EQ PUSH2 0x2AE JUMPI PUSH1 0x40 MLOAD PUSH4 0x118CDAA7 PUSH1 0xE0 SHL DUP2 MSTORE CALLER PUSH1 0x4 DUP3 ADD MSTORE PUSH1 0x24 ADD JUMPDEST PUSH1 0x40 MLOAD DUP1 SWAP2 SUB SWAP1 REVERT JUMPDEST JUMP JUMPDEST PUSH2 0x2B8 PUSH2 0x24E JUMP JUMPDEST PUSH1 0x40 MLOAD SELFBALANCE SWAP1 PUSH0 SWAP1 CALLER SWAP1 DUP4 SWAP1 DUP4 DUP2 DUP2 DUP2 DUP6 DUP8 GAS CALL SWAP3 POP POP POP RETURNDATASIZE DUP1 PUSH0 DUP2 EQ PUSH2 0x2F9 JUMPI PUSH1 0x40 MLOAD SWAP2 POP PUSH1 0x1F NOT PUSH1 0x3F RETURNDATASIZE ADD AND DUP3 ADD PUSH1 0x40 MSTORE RETURNDATASIZE DUP3 MSTORE RETURNDATASIZE PUSH0 PUSH1 0x20 DUP5 ADD RETURNDATACOPY PUSH2 0x2FE JUMP JUMPDEST PUSH1 0x60 SWAP2 POP JUMPDEST POP POP SWAP1 POP DUP1 PUSH2 0x320 JUMPI PUSH1 0x40 MLOAD PUSH4 0xB12D13EB PUSH1 0xE0 SHL DUP2 MSTORE PUSH1 0x4 ADD PUSH1 0x40 MLOAD DUP1 SWAP2 SUB SWAP1 REVERT JUMPDEST PUSH1 0x40 MLOAD DUP3 DUP2 MSTORE CALLER SWAP1 PUSH32 0x7084F5476618D8E60B11EF0D7D3F06914655ADB8793E28FF7F018D4C76D505D5 SWAP1 PUSH1 0x20 ADD PUSH1 0x40 MLOAD DUP1 SWAP2 SUB SWAP1 LOG2 POP POP JUMP JUMPDEST PUSH0 PUSH2 0x362 PUSH2 0x73B JUMP JUMPDEST DUP1 SLOAD SWAP1 SWAP2 POP PUSH1 0xFF PUSH1 0x1 PUSH1 0x40 SHL DUP3 DIV AND ISZERO SWAP1 PUSH8 0xFFFFFFFFFFFFFFFF AND PUSH0 DUP2 ISZERO DUP1 ISZERO PUSH2 0x389 JUMPI POP DUP3 JUMPDEST SWAP1 POP PUSH0 DUP3 PUSH8 0xFFFFFFFFFFFFFFFF AND PUSH1 0x1 EQ DUP1 ISZERO PUSH2 0x3A5 JUMPI POP ADDRESS EXTCODESIZE ISZERO JUMPDEST SWAP1 POP DUP2 ISZERO DUP1 ISZERO PUSH2 0x3B3 JUMPI POP DUP1 ISZERO JUMPDEST ISZERO PUSH2 0x3D1 JUMPI PUSH1 0x40 MLOAD PUSH4 0xF92EE8A9 PUSH1 0xE0 SHL DUP2 MSTORE PUSH1 0x4 ADD PUSH1 0x40 MLOAD DUP1 SWAP2 SUB SWAP1 REVERT JUMPDEST DUP5 SLOAD PUSH8 0xFFFFFFFFFFFFFFFF NOT AND PUSH1 0x1 OR DUP6 SSTORE DUP4 ISZERO PUSH2 0x3FB JUMPI DUP5 SLOAD PUSH1 0xFF PUSH1 0x40 SHL NOT AND PUSH1 0x1 PUSH1 0x40 SHL OR DUP6 SSTORE JUMPDEST PUSH1 0x1 PUSH1 0x1 PUSH1 0xA0 SHL SUB DUP10 AND PUSH2 0x422 JUMPI PUSH1 0x40 MLOAD PUSH4 0x74F166B PUSH1 0xE3 SHL DUP2 MSTORE PUSH1 0x4 ADD PUSH1 0x40 MLOAD DUP1 SWAP2 SUB SWAP1 REVERT JUMPDEST PUSH0 DUP9 GT PUSH2 0x442 JUMPI PUSH1 0x40 MLOAD PUSH4 0x10E41573 PUSH1 0xE2 SHL DUP2 MSTORE PUSH1 0x4 ADD PUSH1 0x40 MLOAD DUP1 SWAP2 SUB SWAP1 REVERT JUMPDEST PUSH1 0x1 PUSH1 0x1 PUSH1 0xA0 SHL SUB DUP8 AND PUSH2 0x469 JUMPI PUSH1 0x40 MLOAD PUSH4 0xE3588063 PUSH1 0xE0 SHL DUP2 MSTORE PUSH1 0x4 ADD PUSH1 0x40 MLOAD DUP1 SWAP2 SUB SWAP1 REVERT JUMPDEST DUP6 PUSH2 0x487 JUMPI PUSH1 0x40 MLOAD PUSH4 0x9DD854D3 PUSH1 0xE0 SHL DUP2 MSTORE PUSH1 0x4 ADD PUSH1 0x40 MLOAD DUP1 SWAP2 SUB SWAP1 REVERT JUMPDEST PUSH2 0x490 DUP10 PUSH2 0x765 JUMP JUMPDEST PUSH0 DUP9 SWAP1 SSTORE PUSH1 0x1 DUP1 SLOAD PUSH1 0x1 PUSH1 0x1 PUSH1 0xA0 SHL SUB NOT AND PUSH1 0x1 PUSH1 0x1 PUSH1 0xA0 SHL SUB DUP10 AND OR SWAP1 SSTORE PUSH1 0x2 DUP7 SWAP1 SSTORE DUP4 ISZERO PUSH2 0x4FA JUMPI DUP5 SLOAD PUSH1 0xFF PUSH1 0x40 SHL NOT AND DUP6 SSTORE PUSH1 0x40 MLOAD PUSH1 0x1 DUP2 MSTORE PUSH32 0xC7F505B2F371AE2175EE4913F4499E1F2633A7B5936321EED1CDAEB6115181D2 SWAP1 PUSH1 0x20 ADD PUSH1 0x40 MLOAD DUP1 SWAP2 SUB SWAP1 LOG1 JUMPDEST POP POP POP POP POP POP POP POP POP JUMP JUMPDEST PUSH2 0x50D PUSH2 0x24E JUMP JUMPDEST PUSH2 0x2AE PUSH0 PUSH2 0x776 JUMP JUMPDEST PUSH2 0x51E PUSH2 0x24E JUMP JUMPDEST PUSH1 0x1 PUSH1 0x1 PUSH1 0xA0 SHL SUB DUP2 AND PUSH2 0x547 JUMPI PUSH1 0x40 MLOAD PUSH4 0x1E4FBDF7 PUSH1 0xE0 SHL DUP2 MSTORE PUSH0 PUSH1 0x4 DUP3 ADD MSTORE PUSH1 0x24 ADD PUSH2 0x2A5 JUMP JUMPDEST PUSH2 0x550 DUP2 PUSH2 0x776 JUMP JUMPDEST POP JUMP JUMPDEST CALLER PUSH0 DUP2 DUP2 MSTORE PUSH1 0x3 PUSH1 0x20 MSTORE PUSH1 0x40 SWAP1 KECCAK256 SLOAD PUSH1 0xFF AND ISZERO PUSH2 0x582 JUMPI PUSH1 0x40 MLOAD PUSH3 0x93F5A1 PUSH1 0xE0 SHL DUP2 MSTORE PUSH1 0x4 ADD PUSH1 0x40 MLOAD DUP1 SWAP2 SUB SWAP1 REVERT JUMPDEST PUSH0 DUP1 SLOAD PUSH1 0x40 DUP1 MLOAD PUSH1 0x1 PUSH1 0x1 PUSH1 0xA0 SHL SUB DUP6 AND PUSH1 0x20 DUP3 ADD MSTORE SWAP1 DUP2 ADD SWAP2 SWAP1 SWAP2 MSTORE PUSH1 0x60 ADD PUSH1 0x40 MLOAD PUSH1 0x20 DUP2 DUP4 SUB SUB DUP2 MSTORE SWAP1 PUSH1 0x40 MSTORE DUP1 MLOAD SWAP1 PUSH1 0x20 ADD KECCAK256 SWAP1 POP PUSH2 0x61C DUP5 DUP5 DUP1 DUP1 PUSH1 0x20 MUL PUSH1 0x20 ADD PUSH1 0x40 MLOAD SWAP1 DUP2 ADD PUSH1 0x40 MSTORE DUP1 SWAP4 SWAP3 SWAP2 SWAP1 DUP2 DUP2 MSTORE PUSH1 0x20 ADD DUP4 DUP4 PUSH1 0x20 MUL DUP1 DUP3 DUP5 CALLDATACOPY PUSH0 SWAP3 ADD SWAP2 SWAP1 SWAP2 MSTORE POP POP PUSH1 0x2 SLOAD PUSH1 0x40 DUP1 MLOAD PUSH1 0x20 DUP2 ADD DUP9 SWAP1 MSTORE SWAP2 SWAP4 POP ADD SWAP1 POP PUSH1 0x40 MLOAD PUSH1 0x20 DUP2 DUP4 SUB SUB DUP2 MSTORE SWAP1 PUSH1 0x40 MSTORE DUP1 MLOAD SWAP1 PUSH1 0x20 ADD KECCAK256 PUSH2 0x7E6 JUMP JUMPDEST PUSH2 0x639 JUMPI PUSH1 0x40 MLOAD PUSH4 0x582F497D PUSH1 0xE1 SHL DUP2 MSTORE PUSH1 0x4 ADD PUSH1 0x40 MLOAD DUP1 SWAP2 SUB SWAP1 REVERT JUMPDEST PUSH0 PUSH2 0x644 PUSH0 SLOAD PUSH2 0x7FB JUMP JUMPDEST SWAP1 POP DUP1 SELFBALANCE LT ISZERO PUSH2 0x667 JUMPI PUSH1 0x40 MLOAD PUSH4 0x786E0A99 PUSH1 0xE0 SHL DUP2 MSTORE PUSH1 0x4 ADD PUSH1 0x40 MLOAD DUP1 SWAP2 SUB SWAP1 REVERT JUMPDEST PUSH1 0x1 PUSH1 0x1 PUSH1 0xA0 SHL SUB DUP4 AND PUSH0 DUP2 DUP2 MSTORE PUSH1 0x3 PUSH1 0x20 MSTORE PUSH1 0x40 DUP1 DUP3 KECCAK256 DUP1 SLOAD PUSH1 0xFF NOT AND PUSH1 0x1 OR SWAP1 SSTORE MLOAD SWAP1 SWAP2 SWAP1 DUP4 SWAP1 DUP4 DUP2 DUP2 DUP2 DUP6 DUP8 GAS CALL SWAP3 POP POP POP RETURNDATASIZE DUP1 PUSH0 DUP2 EQ PUSH2 0x6C6 JUMPI PUSH1 0x40 MLOAD SWAP2 POP PUSH1 0x1F NOT PUSH1 0x3F RETURNDATASIZE ADD AND DUP3 ADD PUSH1 0x40 MSTORE RETURNDATASIZE DUP3 MSTORE RETURNDATASIZE PUSH0 PUSH1 0x20 DUP5 ADD RETURNDATACOPY PUSH2 0x6CB JUMP JUMPDEST PUSH1 0x60 SWAP2 POP JUMPDEST POP POP SWAP1 POP DUP1 PUSH2 0x6ED JUMPI PUSH1 0x40 MLOAD PUSH4 0xB12D13EB PUSH1 0xE0 SHL DUP2 MSTORE PUSH1 0x4 ADD PUSH1 0x40 MLOAD DUP1 SWAP2 SUB SWAP1 REVERT JUMPDEST PUSH0 SLOAD PUSH1 0x40 DUP1 MLOAD SWAP2 DUP3 MSTORE PUSH1 0x20 DUP3 ADD DUP5 SWAP1 MSTORE PUSH1 0x1 PUSH1 0x1 PUSH1 0xA0 SHL SUB DUP7 AND SWAP2 PUSH32 0x4C153BD30BDA7744842DE8420E57CE83F3C500342B5E0363A5DAD7A9132B864A SWAP2 ADD PUSH1 0x40 MLOAD DUP1 SWAP2 SUB SWAP1 LOG2 POP POP POP POP POP POP JUMP JUMPDEST PUSH0 DUP1 PUSH32 0xF0C57E16840DF040F15088DC2F81FE391C3923BEC73E23A9662EFC9C229C6A00 JUMPDEST SWAP3 SWAP2 POP POP JUMP JUMPDEST PUSH2 0x76D PUSH2 0x8C8 JUMP JUMPDEST PUSH2 0x550 DUP2 PUSH2 0x8ED JUMP JUMPDEST PUSH32 0x9016D09D72D40FDAE2FD8CEAC6B6234C7706214FD39C1CD1E609A0528C199300 DUP1 SLOAD PUSH1 0x1 PUSH1 0x1 PUSH1 0xA0 SHL SUB NOT DUP2 AND PUSH1 0x1 PUSH1 0x1 PUSH1 0xA0 SHL SUB DUP5 DUP2 AND SWAP2 DUP3 OR DUP5 SSTORE PUSH1 0x40 MLOAD SWAP3 AND SWAP2 DUP3 SWAP1 PUSH32 0x8BE0079C531659141344CD1FD0A4F28419497F9722A3DAAFE3B4186F6B6457E0 SWAP1 PUSH0 SWAP1 LOG3 POP POP POP JUMP JUMPDEST PUSH0 DUP3 PUSH2 0x7F2 DUP6 DUP5 PUSH2 0x8F5 JUMP JUMPDEST EQ SWAP5 SWAP4 POP POP POP POP JUMP JUMPDEST PUSH0 PUSH0 PUSH1 0x1 PUSH0 SWAP1 SLOAD SWAP1 PUSH2 0x100 EXP SWAP1 DIV PUSH1 0x1 PUSH1 0x1 PUSH1 0xA0 SHL SUB AND PUSH1 0x1 PUSH1 0x1 PUSH1 0xA0 SHL SUB AND PUSH4 0xFEAF968C PUSH1 0x40 MLOAD DUP2 PUSH4 0xFFFFFFFF AND PUSH1 0xE0 SHL DUP2 MSTORE PUSH1 0x4 ADD PUSH1 0xA0 PUSH1 0x40 MLOAD DUP1 DUP4 SUB DUP2 DUP7 GAS STATICCALL ISZERO DUP1 ISZERO PUSH2 0x84D JUMPI RETURNDATASIZE PUSH0 PUSH0 RETURNDATACOPY RETURNDATASIZE PUSH0 REVERT JUMPDEST POP POP POP POP PUSH1 0x40 MLOAD RETURNDATASIZE PUSH1 0x1F NOT PUSH1 0x1F DUP3 ADD AND DUP3 ADD DUP1 PUSH1 0x40 MSTORE POP DUP2 ADD SWAP1 PUSH2 0x871 SWAP2 SWAP1 PUSH2 0xA78 JUMP JUMPDEST POP POP POP SWAP2 POP POP PUSH0 DUP2 SGT PUSH2 0x897 JUMPI PUSH1 0x40 MLOAD PUSH4 0x96187BD5 PUSH1 0xE0 SHL DUP2 MSTORE PUSH1 0x4 ADD PUSH1 0x40 MLOAD DUP1 SWAP2 SUB SWAP1 REVERT JUMPDEST DUP1 PUSH2 0x8A5 DUP5 PUSH3 0xF4240 PUSH2 0xAC6 JUMP JUMPDEST PUSH2 0x8B7 SWAP1 PUSH8 0xDE0B6B3A7640000 PUSH2 0xAC6 JUMP JUMPDEST PUSH2 0x8C1 SWAP2 SWAP1 PUSH2 0xAE9 JUMP JUMPDEST SWAP4 SWAP3 POP POP POP JUMP JUMPDEST PUSH2 0x8D0 PUSH2 0x937 JUMP JUMPDEST PUSH2 0x2AE JUMPI PUSH1 0x40 MLOAD PUSH4 0x1AFCD79F PUSH1 0xE3 SHL DUP2 MSTORE PUSH1 0x4 ADD PUSH1 0x40 MLOAD DUP1 SWAP2 SUB SWAP1 REVERT JUMPDEST PUSH2 0x51E PUSH2 0x8C8 JUMP JUMPDEST PUSH0 DUP2 DUP2 JUMPDEST DUP5 MLOAD DUP2 LT ISZERO PUSH2 0x92F JUMPI PUSH2 0x925 DUP3 DUP7 DUP4 DUP2 MLOAD DUP2 LT PUSH2 0x918 JUMPI PUSH2 0x918 PUSH2 0xB08 JUMP JUMPDEST PUSH1 0x20 MUL PUSH1 0x20 ADD ADD MLOAD PUSH2 0x950 JUMP JUMPDEST SWAP2 POP PUSH1 0x1 ADD PUSH2 0x8F9 JUMP JUMPDEST POP SWAP4 SWAP3 POP POP POP JUMP JUMPDEST PUSH0 PUSH2 0x940 PUSH2 0x73B JUMP JUMPDEST SLOAD PUSH1 0x1 PUSH1 0x40 SHL SWAP1 DIV PUSH1 0xFF AND SWAP2 SWAP1 POP JUMP JUMPDEST PUSH0 DUP2 DUP4 LT PUSH2 0x96A JUMPI PUSH0 DUP3 DUP2 MSTORE PUSH1 0x20 DUP5 SWAP1 MSTORE PUSH1 0x40 SWAP1 KECCAK256 PUSH2 0x8C1 JUMP JUMPDEST POP PUSH0 SWAP2 DUP3 MSTORE PUSH1 0x20 MSTORE PUSH1 0x40 SWAP1 KECCAK256 SWAP1 JUMP JUMPDEST DUP1 CALLDATALOAD PUSH1 0x1 PUSH1 0x1 PUSH1 0xA0 SHL SUB DUP2 AND DUP2 EQ PUSH2 0x98F JUMPI PUSH0 PUSH0 REVERT JUMPDEST SWAP2 SWAP1 POP JUMP JUMPDEST PUSH0 PUSH1 0x20 DUP3 DUP5 SUB SLT ISZERO PUSH2 0x9A4 JUMPI PUSH0 PUSH0 REVERT JUMPDEST PUSH2 0x8C1 DUP3 PUSH2 0x979 JUMP JUMPDEST PUSH0 PUSH0 PUSH0 PUSH0 PUSH1 0x80 DUP6 DUP8 SUB SLT ISZERO PUSH2 0x9C0 JUMPI PUSH0 PUSH0 REVERT JUMPDEST PUSH2 0x9C9 DUP6 PUSH2 0x979 JUMP JUMPDEST SWAP4 POP PUSH1 0x20 DUP6 ADD CALLDATALOAD SWAP3 POP PUSH2 0x9DE PUSH1 0x40 DUP7 ADD PUSH2 0x979 JUMP JUMPDEST SWAP4 SWAP7 SWAP3 SWAP6 POP SWAP3 SWAP4 PUSH1 0x60 ADD CALLDATALOAD SWAP3 POP POP JUMP JUMPDEST PUSH0 PUSH0 PUSH1 0x20 DUP4 DUP6 SUB SLT ISZERO PUSH2 0x9FF JUMPI PUSH0 PUSH0 REVERT JUMPDEST DUP3 CALLDATALOAD PUSH8 0xFFFFFFFFFFFFFFFF DUP2 GT ISZERO PUSH2 0xA15 JUMPI PUSH0 PUSH0 REVERT JUMPDEST DUP4 ADD PUSH1 0x1F DUP2 ADD DUP6 SGT PUSH2 0xA25 JUMPI PUSH0 PUSH0 REVERT JUMPDEST DUP1 CALLDATALOAD PUSH8 0xFFFFFFFFFFFFFFFF DUP2 GT ISZERO PUSH2 0xA3B JUMPI PUSH0 PUSH0 REVERT JUMPDEST DUP6 PUSH1 0x20 DUP3 PUSH1 0x5 SHL DUP5 ADD ADD GT ISZERO PUSH2 0xA4F JUMPI PUSH0 PUSH0 REVERT JUMPDEST PUSH1 0x20 SWAP2 SWAP1 SWAP2 ADD SWAP6 SWAP1 SWAP5 POP SWAP3 POP POP POP JUMP JUMPDEST DUP1 MLOAD PUSH10 0xFFFFFFFFFFFFFFFFFFFF DUP2 AND DUP2 EQ PUSH2 0x98F JUMPI PUSH0 PUSH0 REVERT JUMPDEST PUSH0 PUSH0 PUSH0 PUSH0 PUSH0 PUSH1 0xA0 DUP7 DUP9 SUB SLT ISZERO PUSH2 0xA8C JUMPI PUSH0 PUSH0 REVERT JUMPDEST PUSH2 0xA95 DUP7 PUSH2 0xA5F JUMP JUMPDEST PUSH1 0x20 DUP8 ADD MLOAD PUSH1 0x40 DUP9 ADD MLOAD PUSH1 0x60 DUP10 ADD MLOAD SWAP3 SWAP8 POP SWAP1 SWAP6 POP SWAP4 POP SWAP2 POP PUSH2 0xABA PUSH1 0x80 DUP8 ADD PUSH2 0xA5F JUMP JUMPDEST SWAP1 POP SWAP3 SWAP6 POP SWAP3 SWAP6 SWAP1 SWAP4 POP JUMP JUMPDEST DUP1 DUP3 MUL DUP2 ISZERO DUP3 DUP3 DIV DUP5 EQ OR PUSH2 0x75F JUMPI PUSH4 0x4E487B71 PUSH1 0xE0 SHL PUSH0 MSTORE PUSH1 0x11 PUSH1 0x4 MSTORE PUSH1 0x24 PUSH0 REVERT JUMPDEST PUSH0 DUP3 PUSH2 0xB03 JUMPI PUSH4 0x4E487B71 PUSH1 0xE0 SHL PUSH0 MSTORE PUSH1 0x12 PUSH1 0x4 MSTORE PUSH1 0x24 PUSH0 REVERT JUMPDEST POP DIV SWAP1 JUMP JUMPDEST PUSH4 0x4E487B71 PUSH1 0xE0 SHL PUSH0 MSTORE PUSH1 0x32 PUSH1 0x4 MSTORE PUSH1 0x24 PUSH0 REVERT INVALID LOG2 PUSH5 0x6970667358 0x22 SLT KECCAK256 RETURNDATACOPY CREATE 0xAF 0xF7 0x26 0x23 EXTCODEHASH DUP7 PUSH6 0x610CB414E409 NUMBER 0xFB NUMBER TLOAD SSTORE PUSH15 0xE5B979A0AF1864612C80A864736F6C PUSH4 0x4300081C STOP CALLER "
				},
				"gasEstimates": {
					"creation": {
						"codeDepositCost": "579600",
						"executionCost": "30235",
						"totalCost": "609835"
					},
					"external": {
						"claimStipend(bytes32[])": "infinite",
						"claimedStipends(address)": "2518",
						"initialize(address,uint256,address,bytes32)": "infinite",
						"merkleRoot()": "2317",
						"owner()": "2352",
						"priceFeed()": "2336",
						"renounceOwnership()": "infinite",
						"transferOwnership(address)": "28431",
						"usdStipendAmount()": "2337",
						"withdraw()": "infinite"
					},
					"internal": {
						"convertUsdToEth(uint256)": "infinite"
					}
				},
				"methodIdentifiers": {
					"claimStipend(bytes32[])": "f32ae7dd",
					"claimedStipends(address)": "26317008",
					"initialize(address,uint256,address,bytes32)": "5f761675",
					"merkleRoot()": "2eb4a7ab",
					"owner()": "8da5cb5b",
					"priceFeed()": "741bef1a",
					"renounceOwnership()": "715018a6",
					"transferOwnership(address)": "f2fde38b",
					"usdStipendAmount()": "e65bf545",
					"withdraw()": "3ccfd60b"
				}
			},
			"storageLayout": {
				"storage": [
					{
						"astId": 2377,
						"contract": "src/ScholarshipDispenser.sol:ScholarshipDispenser",
						"label": "usdStipendAmount",
						"offset": 0,
						"slot": "0",
						"type": "t_uint256"
					},
					{
						"astId": 2380,
						"contract": "src/ScholarshipDispenser.sol:ScholarshipDispenser",
						"label": "priceFeed",
						"offset": 0,
						"slot": "1",
						"type": "t_contract(AggregatorV3Interface)45"
					},
					{
						"astId": 2382,
						"contract": "src/ScholarshipDispenser.sol:ScholarshipDispenser",
						"label": "merkleRoot",
						"offset": 0,
						"slot": "2",
						"type": "t_bytes32"
					},
					{
						"astId": 2386,
						"contract": "src/ScholarshipDispenser.sol:ScholarshipDispenser",
						"label": "claimedStipends",
						"offset": 0,
						"slot": "3",
						"type": "t_mapping(t_address,t_bool)"
					}
				],
				"types": {
					"t_address": {
						"encoding": "inplace",
						"label": "address",
						"numberOfBytes": "20"
					},
					"t_bool": {
						"encoding": "inplace",
						"label": "bool",
						"numberOfBytes": "1"
					},
					"t_bytes32": {
						"encoding": "inplace",
						"label": "bytes32",
						"numberOfBytes": "32"
					},
					"t_contract(AggregatorV3Interface)45": {
						"encoding": "inplace",
						"label": "contract AggregatorV3Interface",
						"numberOfBytes": "20"
					},
					"t_mapping(t_address,t_bool)": {
						"encoding": "mapping",
						"key": "t_address",
						"label": "mapping(address => bool)",
						"numberOfBytes": "32",
						"value": "t_bool"
					},
					"t_uint256": {
						"encoding": "inplace",
						"label": "uint256",
						"numberOfBytes": "32"
					}
				}
			},
			"userdoc": {
				"kind": "user",
				"methods": {
					"claimStipend(bytes32[])": {
						"notice": "This function allows students to claim their stipend if they are included in the Merkle tree"
					}
				},
				"version": 1
			}
		}
	}
}