{
	"data": {
		"bytecode": {
			"linkReferences": {},
			"object": "60a060405234801561000f575f5ffd5b5060405161077a38038061077a83398101604081905261002e9161016f565b816001600160a01b03811661005c57604051631e4fbdf760e01b81525f600482015260240160405180910390fd5b61006581610105565b506001600160a01b03831661008d5760405163325c055b60e21b815260040160405180910390fd5b6001600160a01b0382166100b45760405163016ed19f60e21b815260040160405180910390fd5b6001600160a01b0381166100db5760405163074f166b60e31b815260040160405180910390fd5b6001600160a01b03928316608052600280546001600160a01b0319169190931617909155506101af565b5f80546001600160a01b038381166001600160a01b0319831681178455604051919092169283917f8be0079c531659141344cd1fd0a4f28419497f9722a3daafe3b4186f6b6457e09190a35050565b80516001600160a01b038116811461016a575f5ffd5b919050565b5f5f5f60608486031215610181575f5ffd5b61018a84610154565b925061019860208501610154565b91506101a660408501610154565b90509250925092565b6080516105ad6101cd5f395f818160fd015261026901526105ad5ff3fe608060405234801561000f575f5ffd5b5060043610610085575f3560e01c80638da5cb5b116100585780638da5cb5b146100e85780639c8d69c5146100f8578063d86f77fc1461011f578063f2fde38b14610132575f5ffd5b80631de933c714610089578063335b7fa21461009e5780635af82abf146100cd578063715018a6146100e0575b5f5ffd5b61009c61009736600461050e565b610145565b005b6100b16100ac36600461052e565b610196565b6040516001600160a01b03909116815260200160405180910390f35b6002546100b1906001600160a01b031681565b61009c6101be565b5f546001600160a01b03166100b1565b6100b17f000000000000000000000000000000000000000000000000000000000000000081565b6100b161012d366004610545565b6101d1565b61009c61014036600461050e565b610391565b61014d6103d3565b6001600160a01b0381166101745760405163074f166b60e31b815260040160405180910390fd5b600280546001600160a01b0319166001600160a01b0392909216919091179055565b600181815481106101a5575f80fd5b5f918252602090912001546001600160a01b0316905081565b6101c66103d3565b6101cf5f6103ff565b565b6002545f906001600160a01b031633146101fe57604051635c378d3160e11b815260040160405180910390fd5b5f831161021e576040516310e4157360e21b815260040160405180910390fd5b6001600160a01b0382166102455760405163e358806360e01b815260040160405180910390fd5b8361026357604051639dd854d360e01b815260040160405180910390fd5b5f6102967f00000000000000000000000000000000000000000000000000000000000000006001600160a01b031661044e565b600254604051635f76167560e01b81526001600160a01b03918216600482015260248101879052858216604482015260648101889052919250821690635f761675906084015f604051808303815f87803b1580156102f2575f5ffd5b505af1158015610304573d5f5f3e3d5ffd5b50506001805480820182555f919091527fb10e2d527612073b26eecdfd717e6a320cf44b4afac2b0732d9fcbe2b7fa0cf60180546001600160a01b0319166001600160a01b0385169081179091556040518781529092507fa99c90577b80d735a56496629133b35ecc581a0e5d29b949147bbca7730e6d5a915060200160405180910390a2949350505050565b6103996103d3565b6001600160a01b0381166103c757604051631e4fbdf760e01b81525f60048201526024015b60405180910390fd5b6103d0816103ff565b50565b5f546001600160a01b031633146101cf5760405163118cdaa760e01b81523360048201526024016103be565b5f80546001600160a01b038381166001600160a01b0319831681178455604051919092169283917f8be0079c531659141344cd1fd0a4f28419497f9722a3daafe3b4186f6b6457e09190a35050565b5f610459825f61045f565b92915050565b5f8147101561048a5760405163cf47918160e01b8152476004820152602481018390526044016103be565b763d602d80600a3d3981f3363d3d373d3d3d363d730000008360601b60e81c175f526e5af43d82803e903d91602b57fd5bf38360781b176020526037600983f090506001600160a01b0381166104595760405163b06ebf3d60e01b815260040160405180910390fd5b80356001600160a01b0381168114610509575f5ffd5b919050565b5f6020828403121561051e575f5ffd5b610527826104f3565b9392505050565b5f6020828403121561053e575f5ffd5b5035919050565b5f5f5f60608486031215610557575f5ffd5b833592506020840135915061056e604085016104f3565b9050925092509256fea26469706673582212207c1b473940862bc67c5ae0b215bec3aa2a9013b12a655520cdf2848c4774557964736f6c634300081c0033",
			"opcodes": "PUSH1 0xA0 PUSH1 0x40 MSTORE CALLVALUE DUP1 ISZERO PUSH2 0xF JUMPI PUSH0 PUSH0 REVERT JUMPDEST POP PUSH1 0x40 MLOAD PUSH2 0x77A CODESIZE SUB DUP1 PUSH2 0x77A DUP4 CODECOPY DUP2 ADD PUSH1 0x40 DUP2 SWAP1 MSTORE PUSH2 0x2E SWAP2 PUSH2 0x16F JUMP JUMPDEST DUP2 PUSH1 0x1 PUSH1 0x1 PUSH1 0xA0 SHL SUB DUP2 AND PUSH2 0x5C JUMPI PUSH1 0x40 MLOAD PUSH4 0x1E4FBDF7 PUSH1 0xE0 SHL DUP2 MSTORE PUSH0 PUSH1 0x4 DUP3 ADD MSTORE PUSH1 0x24 ADD PUSH1 0x40 MLOAD DUP1 SWAP2 SUB SWAP1 REVERT JUMPDEST PUSH2 0x65 DUP2 PUSH2 0x105 JUMP JUMPDEST POP PUSH1 0x1 PUSH1 0x1 PUSH1 0xA0 SHL SUB DUP4 AND PUSH2 0x8D JUMPI PUSH1 0x40 MLOAD PUSH4 0x325C055B PUSH1 0xE2 SHL DUP2 MSTORE PUSH1 0x4 ADD PUSH1 0x40 MLOAD DUP1 SWAP2 SUB SWAP1 REVERT JUMPDEST PUSH1 0x1 PUSH1 0x1 PUSH1 0xA0 SHL SUB DUP3 AND PUSH2 0xB4 JUMPI PUSH1 0x40 MLOAD PUSH4 0x16ED19F PUSH1 0xE2 SHL DUP2 MSTORE PUSH1 0x4 ADD PUSH1 0x40 MLOAD DUP1 SWAP2 SUB SWAP1 REVERT JUMPDEST PUSH1 0x1 PUSH1 0x1 PUSH1 0xA0 SHL SUB DUP2 AND PUSH2 0xDB JUMPI PUSH1 0x40 MLOAD PUSH4 0x74F166B PUSH1 0xE3 SHL DUP2 MSTORE PUSH1 0x4 ADD PUSH1 0x40 MLOAD DUP1 SWAP2 SUB SWAP1 REVERT JUMPDEST PUSH1 0x1 PUSH1 0x1 PUSH1 0xA0 SHL SUB SWAP3 DUP4 AND PUSH1 0x80 MSTORE PUSH1 0x2 DUP1 SLOAD PUSH1 0x1 PUSH1 0x1 PUSH1 0xA0 SHL SUB NOT AND SWAP2 SWAP1 SWAP4 AND OR SWAP1 SWAP2 SSTORE POP PUSH2 0x1AF JUMP JUMPDEST PUSH0 DUP1 SLOAD PUSH1 0x1 PUSH1 0x1 PUSH1 0xA0 SHL SUB DUP4 DUP2 AND PUSH1 0x1 PUSH1 0x1 PUSH1 0xA0 SHL SUB NOT DUP4 AND DUP2 OR DUP5 SSTORE PUSH1 0x40 MLOAD SWAP2 SWAP1 SWAP3 AND SWAP3 DUP4 SWAP2 PUSH32 0x8BE0079C531659141344CD1FD0A4F28419497F9722A3DAAFE3B4186F6B6457E0 SWAP2 SWAP1 LOG3 POP POP JUMP JUMPDEST DUP1 MLOAD PUSH1 0x1 PUSH1 0x1 PUSH1 0xA0 SHL SUB DUP2 AND DUP2 EQ PUSH2 0x16A JUMPI PUSH0 PUSH0 REVERT JUMPDEST SWAP2 SWAP1 POP JUMP JUMPDEST PUSH0 PUSH0 PUSH0 PUSH1 0x60 DUP5 DUP7 SUB SLT ISZERO PUSH2 0x181 JUMPI PUSH0 PUSH0 REVERT JUMPDEST PUSH2 0x18A DUP5 PUSH2 0x154 JUMP JUMPDEST SWAP3 POP PUSH2 0x198 PUSH1 0x20 DUP6 ADD PUSH2 0x154 JUMP JUMPDEST SWAP2 POP PUSH2 0x1A6 PUSH1 0x40 DUP6 ADD PUSH2 0x154 JUMP JUMPDEST SWAP1 POP SWAP3 POP SWAP3 POP SWAP3 JUMP JUMPDEST PUSH1 0x80 MLOAD PUSH2 0x5AD PUSH2 0x1CD PUSH0 CODECOPY PUSH0 DUP2 DUP2 PUSH1 0xFD ADD MSTORE PUSH2 0x269 ADD MSTORE PUSH2 0x5AD PUSH0 RETURN INVALID PUSH1 0x80 PUSH1 0x40 MSTORE CALLVALUE DUP1 ISZERO PUSH2 0xF JUMPI PUSH0 PUSH0 REVERT JUMPDEST POP PUSH1 0x4 CALLDATASIZE LT PUSH2 0x85 JUMPI PUSH0 CALLDATALOAD PUSH1 0xE0 SHR DUP1 PUSH4 0x8DA5CB5B GT PUSH2 0x58 JUMPI DUP1 PUSH4 0x8DA5CB5B EQ PUSH2 0xE8 JUMPI DUP1 PUSH4 0x9C8D69C5 EQ PUSH2 0xF8 JUMPI DUP1 PUSH4 0xD86F77FC EQ PUSH2 0x11F JUMPI DUP1 PUSH4 0xF2FDE38B EQ PUSH2 0x132 JUMPI PUSH0 PUSH0 REVERT JUMPDEST DUP1 PUSH4 0x1DE933C7 EQ PUSH2 0x89 JUMPI DUP1 PUSH4 0x335B7FA2 EQ PUSH2 0x9E JUMPI DUP1 PUSH4 0x5AF82ABF EQ PUSH2 0xCD JUMPI DUP1 PUSH4 0x715018A6 EQ PUSH2 0xE0 JUMPI JUMPDEST PUSH0 PUSH0 REVERT JUMPDEST PUSH2 0x9C PUSH2 0x97 CALLDATASIZE PUSH1 0x4 PUSH2 0x50E JUMP JUMPDEST PUSH2 0x145 JUMP JUMPDEST STOP JUMPDEST PUSH2 0xB1 PUSH2 0xAC CALLDATASIZE PUSH1 0x4 PUSH2 0x52E JUMP JUMPDEST PUSH2 0x196 JUMP JUMPDEST PUSH1 0x40 MLOAD PUSH1 0x1 PUSH1 0x1 PUSH1 0xA0 SHL SUB SWAP1 SWAP2 AND DUP2 MSTORE PUSH1 0x20 ADD PUSH1 0x40 MLOAD DUP1 SWAP2 SUB SWAP1 RETURN JUMPDEST PUSH1 0x2 SLOAD PUSH2 0xB1 SWAP1 PUSH1 0x1 PUSH1 0x1 PUSH1 0xA0 SHL SUB AND DUP2 JUMP JUMPDEST PUSH2 0x9C PUSH2 0x1BE JUMP JUMPDEST PUSH0 SLOAD PUSH1 0x1 PUSH1 0x1 PUSH1 0xA0 SHL SUB AND PUSH2 0xB1 JUMP JUMPDEST PUSH2 0xB1 PUSH32 0x0 DUP2 JUMP JUMPDEST PUSH2 0xB1 PUSH2 0x12D CALLDATASIZE PUSH1 0x4 PUSH2 0x545 JUMP JUMPDEST PUSH2 0x1D1 JUMP JUMPDEST PUSH2 0x9C PUSH2 0x140 CALLDATASIZE PUSH1 0x4 PUSH2 0x50E JUMP JUMPDEST PUSH2 0x391 JUMP JUMPDEST PUSH2 0x14D PUSH2 0x3D3 JUMP JUMPDEST PUSH1 0x1 PUSH1 0x1 PUSH1 0xA0 SHL SUB DUP2 AND PUSH2 0x174 JUMPI PUSH1 0x40 MLOAD PUSH4 0x74F166B PUSH1 0xE3 SHL DUP2 MSTORE PUSH1 0x4 ADD PUSH1 0x40 MLOAD DUP1 SWAP2 SUB SWAP1 REVERT JUMPDEST PUSH1 0x2 DUP1 SLOAD PUSH1 0x1 PUSH1 0x1 PUSH1 0xA0 SHL SUB NOT AND PUSH1 0x1 PUSH1 0x1 PUSH1 0xA0 SHL SUB SWAP3 SWAP1 SWAP3 AND SWAP2 SWAP1 SWAP2 OR SWAP1 SSTORE JUMP JUMPDEST PUSH1 0x1 DUP2 DUP2 SLOAD DUP2 LT PUSH2 0x1A5 JUMPI PUSH0 DUP1 REVERT JUMPDEST PUSH0 SWAP2 DUP3 MSTORE PUSH1 0x20 SWAP1 SWAP2 KECCAK256 ADD SLOAD PUSH1 0x1 PUSH1 0x1 PUSH1 0xA0 SHL SUB AND SWAP1 POP DUP2 JUMP JUMPDEST PUSH2 0x1C6 PUSH2 0x3D3 JUMP JUMPDEST PUSH2 0x1CF PUSH0 PUSH2 0x3FF JUMP JUMPDEST JUMP JUMPDEST PUSH1 0x2 SLOAD PUSH0 SWAP1 PUSH1 0x1 PUSH1 0x1 PUSH1 0xA0 SHL SUB AND CALLER EQ PUSH2 0x1FE JUMPI PUSH1 0x40 MLOAD PUSH4 0x5C378D31 PUSH1 0xE1 SHL DUP2 MSTORE PUSH1 0x4 ADD PUSH1 0x40 MLOAD DUP1 SWAP2 SUB SWAP1 REVERT JUMPDEST PUSH0 DUP4 GT PUSH2 0x21E JUMPI PUSH1 0x40 MLOAD PUSH4 0x10E41573 PUSH1 0xE2 SHL DUP2 MSTORE PUSH1 0x4 ADD PUSH1 0x40 MLOAD DUP1 SWAP2 SUB SWAP1 REVERT JUMPDEST PUSH1 0x1 PUSH1 0x1 PUSH1 0xA0 SHL SUB DUP3 AND PUSH2 0x245 JUMPI PUSH1 0x40 MLOAD PUSH4 0xE3588063 PUSH1 0xE0 SHL DUP2 MSTORE PUSH1 0x4 ADD PUSH1 0x40 MLOAD DUP1 SWAP2 SUB SWAP1 REVERT JUMPDEST DUP4 PUSH2 0x263 JUMPI PUSH1 0x40 MLOAD PUSH4 0x9DD854D3 PUSH1 0xE0 SHL DUP2 MSTORE PUSH1 0x4 ADD PUSH1 0x40 MLOAD DUP1 SWAP2 SUB SWAP1 REVERT JUMPDEST PUSH0 PUSH2 0x296 PUSH32 0x0 PUSH1 0x1 PUSH1 0x1 PUSH1 0xA0 SHL SUB AND PUSH2 0x44E JUMP JUMPDEST PUSH1 0x2 SLOAD PUSH1 0x40 MLOAD PUSH4 0x5F761675 PUSH1 0xE0 SHL DUP2 MSTORE PUSH1 0x1 PUSH1 0x1 PUSH1 0xA0 SHL SUB SWAP2 DUP3 AND PUSH1 0x4 DUP3 ADD MSTORE PUSH1 0x24 DUP2 ADD DUP8 SWAP1 MSTORE DUP6 DUP3 AND PUSH1 0x44 DUP3 ADD MSTORE PUSH1 0x64 DUP2 ADD DUP9 SWAP1 MSTORE SWAP2 SWAP3 POP DUP3 AND SWAP1 PUSH4 0x5F761675 SWAP1 PUSH1 0x84 ADD PUSH0 PUSH1 0x40 MLOAD DUP1 DUP4 SUB DUP2 PUSH0 DUP8 DUP1 EXTCODESIZE ISZERO DUP1 ISZERO PUSH2 0x2F2 JUMPI PUSH0 PUSH0 REVERT JUMPDEST POP GAS CALL ISZERO DUP1 ISZERO PUSH2 0x304 JUMPI RETURNDATASIZE PUSH0 PUSH0 RETURNDATACOPY RETURNDATASIZE PUSH0 REVERT JUMPDEST POP POP PUSH1 0x1 DUP1 SLOAD DUP1 DUP3 ADD DUP3 SSTORE PUSH0 SWAP2 SWAP1 SWAP2 MSTORE PUSH32 0xB10E2D527612073B26EECDFD717E6A320CF44B4AFAC2B0732D9FCBE2B7FA0CF6 ADD DUP1 SLOAD PUSH1 0x1 PUSH1 0x1 PUSH1 0xA0 SHL SUB NOT AND PUSH1 0x1 PUSH1 0x1 PUSH1 0xA0 SHL SUB DUP6 AND SWAP1 DUP2 OR SWAP1 SWAP2 SSTORE PUSH1 0x40 MLOAD DUP8 DUP2 MSTORE SWAP1 SWAP3 POP PUSH32 0xA99C90577B80D735A56496629133B35ECC581A0E5D29B949147BBCA7730E6D5A SWAP2 POP PUSH1 0x20 ADD PUSH1 0x40 MLOAD DUP1 SWAP2 SUB SWAP1 LOG2 SWAP5 SWAP4 POP POP POP POP JUMP JUMPDEST PUSH2 0x399 PUSH2 0x3D3 JUMP JUMPDEST PUSH1 0x1 PUSH1 0x1 PUSH1 0xA0 SHL SUB DUP2 AND PUSH2 0x3C7 JUMPI PUSH1 0x40 MLOAD PUSH4 0x1E4FBDF7 PUSH1 0xE0 SHL DUP2 MSTORE PUSH0 PUSH1 0x4 DUP3 ADD MSTORE PUSH1 0x24 ADD JUMPDEST PUSH1 0x40 MLOAD DUP1 SWAP2 SUB SWAP1 REVERT JUMPDEST PUSH2 0x3D0 DUP2 PUSH2 0x3FF JUMP JUMPDEST POP JUMP JUMPDEST PUSH0 SLOAD PUSH1 0x1 PUSH1 0x1 PUSH1 0xA0 SHL SUB AND CALLER EQ PUSH2 0x1CF JUMPI PUSH1 0x40 MLOAD PUSH4 0x118CDAA7 PUSH1 0xE0 SHL DUP2 MSTORE CALLER PUSH1 0x4 DUP3 ADD MSTORE PUSH1 0x24 ADD PUSH2 0x3BE JUMP JUMPDEST PUSH0 DUP1 SLOAD PUSH1 0x1 PUSH1 0x1 PUSH1 0xA0 SHL SUB DUP4 DUP2 AND PUSH1 0x1 PUSH1 0x1 PUSH1 0xA0 SHL SUB NOT DUP4 AND DUP2 OR DUP5 SSTORE PUSH1 0x40 MLOAD SWAP2 SWAP1 SWAP3 AND SWAP3 DUP4 SWAP2 PUSH32 0x8BE0079C531659141344CD1FD0A4F28419497F9722A3DAAFE3B4186F6B6457E0 SWAP2 SWAP1 LOG3 POP POP JUMP JUMPDEST PUSH0 PUSH2 0x459 DUP3 PUSH0 PUSH2 0x45F JUMP JUMPDEST SWAP3 SWAP2 POP POP JUMP JUMPDEST PUSH0 DUP2 SELFBALANCE LT ISZERO PUSH2 0x48A JUMPI PUSH1 0x40 MLOAD PUSH4 0xCF479181 PUSH1 0xE0 SHL DUP2 MSTORE SELFBALANCE PUSH1 0x4 DUP3 ADD MSTORE PUSH1 0x24 DUP2 ADD DUP4 SWAP1 MSTORE PUSH1 0x44 ADD PUSH2 0x3BE JUMP JUMPDEST PUSH23 0x3D602D80600A3D3981F3363D3D373D3D3D363D73000000 DUP4 PUSH1 0x60 SHL PUSH1 0xE8 SHR OR PUSH0 MSTORE PUSH15 0x5AF43D82803E903D91602B57FD5BF3 DUP4 PUSH1 0x78 SHL OR PUSH1 0x20 MSTORE PUSH1 0x37 PUSH1 0x9 DUP4 CREATE SWAP1 POP PUSH1 0x1 PUSH1 0x1 PUSH1 0xA0 SHL SUB DUP2 AND PUSH2 0x459 JUMPI PUSH1 0x40 MLOAD PUSH4 0xB06EBF3D PUSH1 0xE0 SHL DUP2 MSTORE PUSH1 0x4 ADD PUSH1 0x40 MLOAD DUP1 SWAP2 SUB SWAP1 REVERT JUMPDEST DUP1 CALLDATALOAD PUSH1 0x1 PUSH1 0x1 PUSH1 0xA0 SHL SUB DUP2 AND DUP2 EQ PUSH2 0x509 JUMPI PUSH0 PUSH0 REVERT JUMPDEST SWAP2 SWAP1 POP JUMP JUMPDEST PUSH0 PUSH1 0x20 DUP3 DUP5 SUB SLT ISZERO PUSH2 0x51E JUMPI PUSH0 PUSH0 REVERT JUMPDEST PUSH2 0x527 DUP3 PUSH2 0x4F3 JUMP JUMPDEST SWAP4 SWAP3 POP POP POP JUMP JUMPDEST PUSH0 PUSH1 0x20 DUP3 DUP5 SUB SLT ISZERO PUSH2 0x53E JUMPI PUSH0 PUSH0 REVERT JUMPDEST POP CALLDATALOAD SWAP2 SWAP1 POP JUMP JUMPDEST PUSH0 PUSH0 PUSH0 PUSH1 0x60 DUP5 DUP7 SUB SLT ISZERO PUSH2 0x557 JUMPI PUSH0 PUSH0 REVERT JUMPDEST DUP4 CALLDATALOAD SWAP3 POP PUSH1 0x20 DUP5 ADD CALLDATALOAD SWAP2 POP PUSH2 0x56E PUSH1 0x40 DUP6 ADD PUSH2 0x4F3 JUMP JUMPDEST SWAP1 POP SWAP3 POP SWAP3 POP SWAP3 JUMP INVALID LOG2 PUSH5 0x6970667358 0x22 SLT KECCAK256 PUSH29 0x1B473940862BC67C5AE0B215BEC3AA2A9013B12A655520CDF2848C4774 SSTORE PUSH26 0x64736F6C634300081C0033000000000000000000000000000000 "
		},
		"gasEstimates": {
			"creation": {
				"codeDepositCost": "290600",
				"executionCost": "infinite",
				"totalCost": "infinite"
			},
			"external": {
				"createDispenser(bytes32,uint256,address)": "infinite",
				"director()": "2369",
				"dispenserImplementation()": "infinite",
				"dispensers(uint256)": "4622",
				"owner()": "2317",
				"renounceOwnership()": "infinite",
				"transferOwnership(address)": "28395",
				"updateDirector(address)": "26768"
			}
		},
		"methodIdentifiers": {
			"createDispenser(bytes32,uint256,address)": "d86f77fc",
			"director()": "5af82abf",
			"dispenserImplementation()": "9c8d69c5",
			"dispensers(uint256)": "335b7fa2",
			"owner()": "8da5cb5b",
			"renounceOwnership()": "715018a6",
			"transferOwnership(address)": "f2fde38b",
			"updateDirector(address)": "1de933c7"
		}
	},
	"abi": [
		{
			"inputs": [
				{
					"internalType": "address",
					"name": "_dispenserImplementation",
					"type": "address"
				},
				{
					"internalType": "address",
					"name": "_admin",
					"type": "address"
				},
				{
					"internalType": "address",
					"name": "_director",
					"type": "address"
				}
			],
			"stateMutability": "nonpayable",
			"type": "constructor"
		},
		{
			"inputs": [],
			"name": "FailedDeployment",
			"type": "error"
		},
		{
			"inputs": [
				{
					"internalType": "uint256",
					"name": "balance",
					"type": "uint256"
				},
				{
					"internalType": "uint256",
					"name": "needed",
					"type": "uint256"
				}
			],
			"name": "InsufficientBalance",
			"type": "error"
		},
		{
			"inputs": [],
			"name": "InvalidAdminAddress",
			"type": "error"
		},
		{
			"inputs": [],
			"name": "InvalidDirectorAddress",
			"type": "error"
		},
		{
			"inputs": [],
			"name": "InvalidImplementationAddress",
			"type": "error"
		},
		{
			"inputs": [],
			"name": "InvalidMerkleRoot",
			"type": "error"
		},
		{
			"inputs": [],
			"name": "InvalidPriceFeedAddress",
			"type": "error"
		},
		{
			"inputs": [],
			"name": "OnlyDirectorCanCreateDispenser",
			"type": "error"
		},
		{
			"inputs": [
				{
					"internalType": "address",
					"name": "owner",
					"type": "address"
				}
			],
			"name": "OwnableInvalidOwner",
			"type": "error"
		},
		{
			"inputs": [
				{
					"internalType": "address",
					"name": "account",
					"type": "address"
				}
			],
			"name": "OwnableUnauthorizedAccount",
			"type": "error"
		},
		{
			"inputs": [],
			"name": "StipendAmountMustBeGreaterThanZero",
			"type": "error"
		},
		{
			"anonymous": false,
			"inputs": [
				{
					"indexed": true,
					"internalType": "address",
					"name": "dispenserAddress",
					"type": "address"
				},
				{
					"indexed": false,
					"internalType": "uint256",
					"name": "usdStipendAmount",
					"type": "uint256"
				}
			],
			"name": "DispenserCreated",
			"type": "event"
		},
		{
			"anonymous": false,
			"inputs": [
				{
					"indexed": true,
					"internalType": "address",
					"name": "previousOwner",
					"type": "address"
				},
				{
					"indexed": true,
					"internalType": "address",
					"name": "newOwner",
					"type": "address"
				}
			],
			"name": "OwnershipTransferred",
			"type": "event"
		},
		{
			"inputs": [
				{
					"internalType": "bytes32",
					"name": "_merkleRoot",
					"type": "bytes32"
				},
				{
					"internalType": "uint256",
					"name": "_usdStipendAmount",
					"type": "uint256"
				},
				{
					"internalType": "address",
					"name": "_priceFeed",
					"type": "address"
				}
			],
			"name": "createDispenser",
			"outputs": [
				{
					"internalType": "address",
					"name": "",
					"type": "address"
				}
			],
			"stateMutability": "nonpayable",
			"type": "function"
		},
		{
			"inputs": [],
			"name": "director",
			"outputs": [
				{
					"internalType": "address",
					"name": "",
					"type": "address"
				}
			],
			"stateMutability": "view",
			"type": "function"
		},
		{
			"inputs": [],
			"name": "dispenserImplementation",
			"outputs": [
				{
					"internalType": "address",
					"name": "",
					"type": "address"
				}
			],
			"stateMutability": "view",
			"type": "function"
		},
		{
			"inputs": [
				{
					"internalType": "uint256",
					"name": "",
					"type": "uint256"
				}
			],
			"name": "dispensers",
			"outputs": [
				{
					"internalType": "address",
					"name": "",
					"type": "address"
				}
			],
			"stateMutability": "view",
			"type": "function"
		},
		{
			"inputs": [],
			"name": "owner",
			"outputs": [
				{
					"internalType": "address",
					"name": "",
					"type": "address"
				}
			],
			"stateMutability": "view",
			"type": "function"
		},
		{
			"inputs": [],
			"name": "renounceOwnership",
			"outputs": [],
			"stateMutability": "nonpayable",
			"type": "function"
		},
		{
			"inputs": [
				{
					"internalType": "address",
					"name": "newOwner",
					"type": "address"
				}
			],
			"name": "transferOwnership",
			"outputs": [],
			"stateMutability": "nonpayable",
			"type": "function"
		},
		{
			"inputs": [
				{
					"internalType": "address",
					"name": "newDirector",
					"type": "address"
				}
			],
			"name": "updateDirector",
			"outputs": [],
			"stateMutability": "nonpayable",
			"type": "function"
		}
	]
}